:020000041000EA
:1000000000B5324B212058609868022188439860DF
:10001000D860186158612E4B002199600221596106
:100020000121F02299502B49196001219960352056
:1000300000F044F80222904214D00621196600F024
:1000400034F8196E01211966002018661A6600F04E
:100050002CF8196E196E196E052000F02FF8012189
:100060000842F9D1002199601B49196000215960AB
:100070001A491B48016001219960EB211966A021F2
:10008000196600F012F800219960164914480160C1
:100090000121996001BC002800D000471248134993
:1000A000086003C880F30888084703B5996A0420EC
:1000B0000142FBD001200142F8D103BD02B5186610
:1000C0001866FFF7F2FF186E186E02BD00000240BE
:1000D000000000180000070000035F00212200005C
:1000E000F4000018222000A00001001008ED00E03C
:1000F00000000000000000000000000074B24E7A12
:1001000000200420F7010010C3010010C5010010F9
:10011000C1010010C1010010C1010010C101001097
:10012000C1010010C1010010C1010010C701001081
:10013000C1010010C1010010C9010010CB01001065
:10014000CD010010CD010010CD010010CD01001037
:10015000CD010010CD010010CD010010CD01001027
:10016000CD010010CD010010CD010010CD01001017
:10017000CD010010CD010010CD010010CD01001007
:10018000CD010010CD010010CD010010CD010010F7
:10019000CD010010CD010010CD010010CD010010E7
:1001A000CD010010CD010010CD010010CD010010D7
:1001B000CD010010CD010010CD010010CD010010C7
:1001C00000BE00BE00BE00BE00BE00BEEFF3058054
:1001D000103800BEF2EB8871445F0010645F0010BD
:1001E0003402001090A31AE700201F49086006C8D7
:1001F00081F3088810471D48006800282FD10DA4FE
:100200000ECC002902D000F012F8F9E71849194A7B
:10021000002000E001C19142FCD1174988471749ED
:1002200088471749884700BEFDE701C901C29A42C5
:10023000FBD37047645F0010C0000020040600205C
:10024000A86400100000042000000420A86400102E
:10025000001004200010042000000000704709482E
:1002600002F008FA0047000008ED00E0000000D0AE
:100270000806002068150020F12400107D060010FB
:10028000E12500105756000006005250ABB36053F2
:10029000005D001006005250861C0302105D001025
:1002A000060052505422A29D205D001005005250BD
:1002B000DE65F468A8640010F8B5C046044B10B5BC
:1002C000002B03D00349044800E000BF10BDC04626
:1002D00000000000DC140020605C001010B50B4B27
:1002E00084B01B7802AA13700123094C00933621B5
:1002F000200005F095FA00233621009320000233F8
:1003000003AA05F0F5FA04B010BDC046605C001009
:10031000C4050020D023FF221B06102010B504497D
:100320001A6500F0FDFC0121102000F0B5FCFEE78D
:100330003503001070B505F06BF9C0B20A4C002807
:100340000CD0250015352078013402F05FFBA54262
:10035000F9D1D023FF221B061A6570BD1622210099
:10036000024805F065FCECE748100020000004405E
:1003700070B51C4B84B01A78002A03D101321A7070
:1003800004B070BD184C152322000021174805F059
:1003900027FC174B02AA1B78164D13700123362138
:1003A0000093280005F03CFA002303AE320036210A
:1003B00000932800023305F09BFA308840BA80B2DF
:1003C00002F050FAEE21890502F045FA02F072FAC5
:1003D000094B60751B78002BD2D0002005F00EF978
:1003E000CEE7C046601500204810002000C0034042
:1003F000645C0010C4050020E804002010B5164914
:10040000164805F0E3F90321162000F0CDFA032188
:10041000172000F0C9FA00220121162000F0DCFAB2
:1004200000220121172000F0D7FA182000F072FBFB
:10043000D02380221B0652049A6204210122182034
:1004400000F0DCFA0420064900F06AFC01210420D7
:1004500000F022FC10BDC046A0860100C4050020AB
:10046000DD020010F0B5062083B0D02500F052FB6D
:100470004024FA202D066C6240006C6101F03AFACB
:10048000AC610120002101F021FA6C61594C092076
:10049000002101F01BFA2000574905F071FA0121F3
:1004A000002000F081FA0121022000F07DFA0121F4
:1004B000072000F079FA042000F02CFB102387229B
:1004C0006B62AB6121682000514048320A404B49C1
:1004D00043260A606A46AB6101336946137001AA7C
:1004E000103B05F0ADFB6B466A461E80E023694673
:1004F0009370200001AADD3B05F0A2FBFA208000EA
:1005000001F0F8F96A46412313805333694693702A
:10051000200001AA913B05F093FB6A464223138019
:10052000913369469370200001AAD03B05F088FB07
:100530006B461E80BC3669469E7001AA03232000CC
:1005400005F07EFB20276A46552369461380977085
:10055000032301AA200005F073FB6A464D23694678
:1005600013809670032301AA200005F069FB002682
:100570006A464523694613809670032301AA20002A
:1005800005F05EFB6A464623694613809670032396
:1005900001AA200005F054FB6A46472369461380F0
:1005A0009670032301AA200005F04AFB6A464823FF
:1005B000694613809670032301AA200005F040FBD2
:1005C0006A464923694613809670032301AA2000D6
:1005D00005F036FB6A464A2369461380967003236A
:1005E00001AA200005F02CFB052000F093FA6F62B1
:1005F00003B0F0BD00C0034000093D0000D003403F
:10060000E12110B54902064801F0E4FC0221102066
:1006100000F0CAF90221112000F0C6F910BDC04651
:100620000040034010B51149114805F0A9F9012116
:100630001A2000F0B9F901211B2000F0B5F90121C1
:100640001C2000F0B1F9132000F064FAD0238022BE
:100650001B0612035A625A61064B1A6887235A40D6
:1006600048331340044A136010BDC04600093D00E2
:100670000000044000C0034000D00340F0B5DE4657
:100680004E4645465746E0B5102687B002F092FA2E
:10069000344805F00DF804ACFFF7E4FE05ADFFF7B4
:1006A000ADFEFFF7ADFFFFF7BDFF012204210120E2
:1006B0002D4B00F0CDF901232A0021002B48267094
:1006C00005F0BEFAD0222023002112065361284BE8
:1006D0001970284B96619B46274B284E9A46284B0B
:1006E0000393284B9946012398465B461B780027C5
:1006F000237043462200009336210123300005F089
:100700008FF82A00022336213000009705F0F0F818
:10071000288840BA80B202F0A5F853461860039BBF
:1007200022001B78362123704346300000930123BA
:1007300005F076F802232A0036213000009705F0F4
:10074000D7F8288840BA80B202F08CF8EE218905EB
:1007500002F081F84B461860FA20800001F0CAF8D8
:10076000C3E7C046150300107103001000C003402A
:1007700060150020685C001058150020C40500209A
:10078000645C001024150020D0231B061B68824ADD
:1007900099005258F0B5574692465A1E934130225E
:1007A000DE464E4645465B421A4013007B4AE0B5A2
:1007B000944683B063440193794B884600260F2703
:1007C0009B46F2081300019908339B005C583500E2
:1007D0000836002C22D0012399465346002B26D000
:1007E00039002140274213D05B4642469A584B4677
:1007F000AB401A420CD1072208002A4092009040D8
:100800000200EB0867483C339B001A502800D04791
:1008100024090135002C01D0B542E1D3202ED0D1DE
:1008200003B0F0BCBB46B246A946A046F0BD3900B5
:100830002140274209D00133AB409C4643465848EB
:10084000C0586346184200D17EE02309E6D00F224B
:10085000110019401A420FD06B1C0E3A9A40944670
:1008600042464F4880586246104205D1DB084D4A47
:100870003C3309019B009950230ACFD00F2211006D
:1008800019401A420FD0AB1C0E3A9A409446424689
:10089000434880586246104205D1DB08414A3C3348
:1008A00009029B009950230BB8D00F221100194068
:1008B0001A4238D1230CB1D00F22110019401A422C
:1008C00047D1230DAAD00F22110019401A4251D14D
:1008D000230EA3D00F22110019401A420FD0AB1DD6
:1008E0000E3A9A40944642462D488058624610423D
:1008F00005D1DB082B4A3C3309069B009950240F95
:100900000735002C00D189E701234146AB40244A3A
:1009100052581A4200D081E7ED08224A3C3524079C
:10092000AD00AC507AE7EB1C0E3A9A409446424632
:100930001B48805862461042BCD1DB08194A3C3340
:1009400009039B009950B5E7164B3C329200D150F9
:100950007BE72B1D0E3A9A40944642461048805839
:1009600062461042ADD1DB080E4A3C3309049B00BD
:100970009950A6E76B1D0E3A9A40944642460848A5
:10098000805862461042A3D1DB08064A3C33090571
:100990009B0099509CE7C046341000200041014064
:1009A0000C15002000400140094A10B5944640242F
:1009B000830063441A68C00062408034144080227F
:1009C000520113431C60034B9C466044416010BDC0
:1009D00004C0014000400140074B80009C46604439
:1009E0000368C90092000A435A400C231A4080232E
:1009F0005B0103431A60704704C00140D0231B060B
:100A00001B6830B50500584243412F205B428343A9
:100A10000D48EC08844607202840800081402000D3
:100A20000A4D3C3063448000A40041511B19002A48
:100A300004D0802292011343196030BDC02292017C
:100A400013431960F9E7C0463041014000400140BE
:100A5000F8B51D00D0231B061C6806006042444107
:100A60002F20644284432748F708844607203040FB
:100A7000800081403800244E3C3064448000BF0038
:100A80008151E419002A11D0802292012243116081
:100A90001C681E4EA400A359002B15D0002D25D094
:100AA000A55101210D2000F0F7F8F8BDC0229201F8
:100AB000224311601C68154EA400A359002B0CD0D2
:100AC000002D18D0A551F0E7002DEAD000220D200E
:100AD0000F49A55100F04EF9E3E7002DE5D00022C3
:100AE0000D200B49A55100F045F9DEE70D2008491E
:100AF00000F030FAD4E70D20054900F02BFAA5519B
:100B0000D3E7C0463041014000400140341000208E
:100B1000890700100123D02283401206936293615B
:100B2000094A40219446830063441A68C0004A4041
:100B3000803111408022520113431960034B9C46BF
:100B4000052360444360704704C0014000400140F9
:100B5000024B18688007C00F7047C04600C00640AF
:100B600070B5EFF3108C72B60D4D2B68002BFCD0D6
:100B7000BFF35F8F0724CB08C618C05C01230C406D
:100B8000A3401C000440034207D118433070BFF358
:100B90005F8F2C608CF3108870BD100001F024FD75
:100BA0002C0100D0F8B54746CE46884680B5EFF315
:100BB000108C72B6214D2C68002CFCD0BFF35F8FD7
:100BC0009A422CD8D4080727055D0619012417403E
:100BD000BC402C421FD007210127894609E0D408D8
:100BE000055D06194C4639001440A1400C0029420D
:100BF00011D001329342F2D201204042BFF35F8F05
:100C000000220E4B1A608CF3108800280FDBC0BC4A
:100C1000B946B046F8BD254310003570EEE7BFF386
:100C20005F8F00232B608CF31088012040424346E5
:100C3000002BECD0089801F0D7FCC0462C0100D066
:100C40000021044B044ABFF35F8F02C39342FAD1E1
:100C50007047C046000100D0800100D0044A1078DF
:100C6000431CDBB2172B00D9102313707047C0460A
:100C7000E904002010B5064B064C82B00100009339
:100C800018221F232000FFF78DFF02B010BDC046C1
:100C90006C5C00104410002001238340002904D024
:100CA000034A1360034A13607047034A1360FBE76B
:100CB00080E200E000E100E080E100E0012282400B
:100CC000034B1B6813405A1E9341D8B27047C0466D
:100CD00000E100E001238340014A13607047C046F1
:100CE00000E200E0084B10309B688000C358002BE6
:100CF00007D0064A00209B1A2F229A424041C0B2D8
:100D000070470020FCE7C04600ED00E0EC04002046
:100D1000024B10309B688000C058704700ED00E027
:100D200070B50D00EFF3108672B60F4A1368002BF2
:100D3000FCD0BFF35F8F0D4B10309B6884001B59B4
:100D40000B4A934203D09D4201D001F065FC074B52
:100D50009B681D51BFF35F8FBFF35F8F0022024B73
:100D60001A6086F3108870BD240100D000ED00E009
:100D7000CD010010F0B54E464546DE465746E0B57B
:100D800083B0060000919046EFF3108B72B6654A6F
:100D90001368002BFCD0BFF35F8F0025624B5D57BB
:100DA0009A46002D00DA79E052466B005F4C5F19DD
:100DB000BF000193E31999469B79103613705C4B81
:100DC000B6009B6899590B1B2F2B33D9594B99426D
:100DD00000D07CE0019B02379C46574B6544AD0038
:100DE0006353564BE719043BDB1B554A1B055B0D50
:100DF000651913436B80534B0121AB80FF23AB710B
:100E00004346EB71009BAB604B460B431900484BCC
:100E10009B689951BFF35F8FBFF35F8F0022414BF7
:100E20001A608BF3108803B0F0BCBB46B246A946EB
:100E3000A046F0BD01200A008243D379434549D939
:100E4000BC464746884607E05800C0188000201876
:100E5000C179B94228D902000623D356002BF3DA10
:100E60009A46131D9C464146B846374F484663464E
:100E70000438C01A0005324B400D1843019B908086
:100E800095715A1953469200A418A37143462F4AEC
:100E9000E371009B2260A780A360B8E701F0BCFB70
:100EA000002553465D577FE79A464146131DB846D5
:100EB00067469C469088043740050015E719604452
:100EC000C01BE0270005400D3F020743CEE701F0BD
:100ED000A3FB7FE713001E491B1B5B415943090D10
:100EE000154BBD1CE353154B6519043B5B1B1B05E0
:100EF000134D5B0D2B43AC464D466B806546043766
:100F0000131FE719DB1B1B055B0D1D434B46997136
:100F10004146D97100999D80996049460B4B014328
:100F2000136074E7240100D061150020EC04002058
:100F300000ED00E0CD01001000A1FFFF1C05002026
:100F400000E0FFFF01BDFFFF01BD00000148804739
:100F5000AAAA0000F0B5DE4657464E464546E0B523
:100F60000C0083B0EFF3108872B65D4A1368002B53
:100F7000FCD0BFF35F8F5B4B5B499A680300103373
:100F80009F00D5598D4239D0A5424AD0574EAA1B51
:100F90002F2A33D801229246824091464846544A2D
:100FA0001268104001904846524A1060BFF35F8FAC
:100FB000EFF305829346002A35D0934201D001F029
:100FC0002BFB2A0053469A439068844208D175E06F
:100FD0004B005B189B00F3189868A04234D01A00AD
:100FE000062151560029F3DA844253D0019B002B8D
:100FF00026D04A46404B1A603D4B1A60394B9B68DD
:10100000DD51BFF35F8FBFF35F8F0022344B1A6057
:1010100088F3108803B0F0BCBB46B246A946A04690
:10102000F0BD0D00EAE72A0053469A4390688442D7
:10103000D6D1062010561300002809DA0D0031E041
:101040004A462C4B1A60D9E706201856002822DBA6
:1010500042001118890074188A46A1689960E179E4
:10106000D971062161569971002925DBA488F11AEE
:101070006405241554440919E0240905490D240286
:101080002143998013181D4A9B001178F318997118
:101090001070ABE713005946002914D1FF3191714C
:1010A0001749918015490A789A71164A9B1B5B4132
:1010B0005A43120D0A7099E71349E2E706201056C9
:1010C00013000028C4DA114A1149D21A083A500212
:1010D000400D014399800F4952080A43DA8085E7A1
:1010E000240100D000ED00E0CD010010EC04002050
:1010F00000E100E080E100E080E200E06115002016
:1011000001BDFFFFAAAA000001BD000026050020C6
:1011100000F0FFFF00F8FFFF70B5EFF30581012439
:101120000443EFF3108C72B6214A1368002BFCD0F5
:10113000BFF35F8F1F4B05001F4AED1A6D416A43D5
:10114000120D1E4D8900AE6852B27658A6421CD0D0
:101150000621595691421CD012215956914222D053
:101160001E215956914220D02A21595603249142DA
:1011700010D0134B19781A708171BFF35F8F002262
:101180000B4B1A608CF3108870BDAB680D4C5C5033
:10119000EFE700246100091989005B18FF219971AC
:1011A00009499980E5E70124F4E70224F2E7C04603
:1011B000240100D0EC040020AAAA000000ED00E009
:1011C00061150020CD01001001BDFFFF054B064A4F
:1011D0001360064A136053609360D36013615361D8
:1011E000936170478080808000E400E004E400E0C8
:1011F00010B5084B084C82B0010000930022052373
:101200002000FFF7CFFC002801DB1F23181A02B0D3
:1012100010BDC046885C001066150020024B9C463D
:1012200061448900016070474000003410B504003B
:10123000FFF714FD01002000FFF7F0FFFF232371EB
:10124000BFF35F8F10BDC04610B50400FFF706FD69
:1012500001002000FFF7E2FFFF23A380BFF35F8FB1
:1012600010BDC04610B504000120FFF703FD034B7D
:10127000C3189B002360BFF35F8F10BD4000003494
:10128000034B9C46614489000160BFF35F8F704748
:101290004000003483680B4810B5844661446244C2
:1012A0001201090159189B185C684A680120944290
:1012B00001D802D00020C0B210BD1A680B689A4253
:1012C000F9D8F7E7FFFFFF0F0A4B1968EFF310801B
:1012D00072B60A68002AFCD0BFF35F8F1B68BFF3A9
:1012E0005F8F00221A6080F3108840BF0020002129
:1012F0007047C04620150020F8B5574645464E4673
:10130000DE46E0B598460CAB1C780DAB1B780700A9
:1013100091469A460568002C5AD1AC7B002C3BD0F4
:10132000660029683619033E89194B78AB73002B88
:1013300000D1EB7300238B704B700B702B4BE218BA
:10134000BB6812019B184A461A6042465A600A9AC4
:101350009A600B9ADA6000238B704B700B706B7B7A
:101360009B46002B27D022006B685946A8689847F7
:101370005B465B005B442A68033B002812D058465A
:101380009619B070D118D35C002B00D073705B46F7
:101390000C706B735C450FD0F0BCBB46B246A946DF
:1013A000A046F8BDD3189C709119925D002A00D018
:1013B0005A705B460B706C734A464346387D00F0AA
:1013C000AFFB051E0AD10E9B002BE5D01D70E3E795
:1013D000660029683619033E8919AFE75346002B8A
:1013E000F1D12100386800F0B9FDECE7FFFFFF0FF5
:1013F000F0B5DE4657464E4645460023E0B58BB075
:101400000893674B8200D45800239B46099000F054
:1014100027FB02000B006068EFF3108A72B6564695
:1014200001680029FCD0B246BFF35F8F21684F7B73
:101430008C46002F2ED0A5685A49A9467918090173
:10144000894449460868496805000E00AD1A9E4166
:10145000002E5FDD02000B00099800F061FB002305
:10146000002299460023069207930023984663685A
:10147000BFF35F8F5A461A608AF310884346002BE9
:1014800012D10028C3D10BB0F0BCBB46B246A9466E
:10149000A046F0BD00230022994600230692079340
:1014A000002300209846E2E7089B4946180238438B
:1014B000C047626805000E00EFF3108A72B6136829
:1014C000002BFCD0BFF35F8F002E40DB2B0033439B
:1014D00002D02369002B55D12368D97B002905D080
:1014E0001A68480041185218033A57709A7B002A2C
:1014F00000D19F73DF73E268013FD35D0133D355A1
:101500005B4623616368BFF35F8F5A461A608AF3B4
:1015100010887CE7002E01D1002D9BD10021604670
:1015200000F09AFC4B461A685B68069207934B469C
:101530009B6898464B46DB689946E368DB19013B9C
:101540001B7808931B020343236100208FE7236964
:10155000002BC1D0069A079B8021521BB34109067C
:101560008B4202D30122104B5242002104910131DF
:101570000391494601914146200002970091FFF7EF
:10158000BBFEBDE700F06CFA2A00330012184B4195
:10159000802109068B42E8D30122034B5242E4E743
:1015A000FC140020FFFFFF0FFFFFFF7F10B5144C5E
:1015B0006368002B04D00A211248FFF72FFE10BDEC
:1015C0002300114A1021206800F062FB032000F084
:1015D0003BFA032000F012FB03200C4900F05AFAFA
:1015E000FFF73CFB0A4B9C4603232375D0231B06C5
:1015F0001B6860446375074B80006060DC60DAE75D
:10160000340500202015002095120010F113001061
:1016100040000034FC1400200048704734050020CE
:10162000F0B557464E464546DE46E0B585B00193D7
:1016300010AB1B780600039300239A46984600924D
:101640007268EFF3108B72B61368002BFCD0BFF3F7
:101650005F8F3568AC7B002C00D16DE067002B6894
:101660003F19033FDB195A78AA73002A00D1EA73A5
:10167000484AA118B26809015218009801991060EF
:1016800051600E9991600F99D16042469A705A70DC
:101690001A706B7B9946002B6BD022006B68494611
:1016A000A86898474B465B004B442A68033B0028D8
:1016B00056D04846D719B870D118D35C002B00D04B
:1016C0007B704B460C706B734C4553D0F3681B1901
:1016D000013B18787368BFF35F8F42461A608BF343
:1016E00010885346002B08D10002204305B0F0BCFF
:1016F000BB46B246A946A046F0BD039B002B46D090
:101700000E9B00200F99984703000B433FD0040025
:101710000D1E1ADA009A019B121BAB410092019335
:1017200080221206934204D301231B4C5B42009398
:101730000194039B9A4683E77368BFF35F8F1C6035
:101740008BF3108801204042D0E700F089F9802215
:10175000001969411206009001919142E9D3E3E733
:10176000D3189C70D119D25D002A00D05A704B4614
:101770000B706C73307D009A019B00F0D1F98246AA
:101780000028A3D02100306800F0E8FB9EE700208D
:10179000ACE7C046FFFFFF0FFFFFFF7FF8B50B0070
:1017A00004004168EFF3108572B60A68002AFCD085
:1017B000BFF35F8FFF222068D9B2467B1A408E426A
:1017C00007D006685700BF18F619033EB678002EFA
:1017D00010D0E6681B0AB218013A1278DBB29A42BE
:1017E0000DD000206368BFF35F8F00221A6085F37D
:1017F0001088F8BD22699A42F3D12661F1E700F022
:10180000ADFBEFE7407D7047F0B504000D00062604
:101810007642F717C64636196F4100B584B08F423D
:1018200014D811D000F01CF932003B00121A8B4181
:10183000002B15DC002B3ED02000290000F01AF907
:1018400004B080BCB846F0BD8642EBD90026002724
:1018500000F006F932003B00121A8B41002BE9DD43
:10186000002302930193154B3200009314483B0070
:10187000FFF7D6FE0028DFDB00239846BC46114A5E
:10188000114F7B6A9C4504D8B96AB142D4D29C45B9
:10189000D2D11168EFF3108072B60B68002BFCD028
:1018A000BFF35F8F1368BFF35F8F4146196080F30A
:1018B000108820BFE5E7002ABED0D1E7C91200108A
:1018C00034050020201500200040054070B50400BC
:1018D0000D0000F0C5F88023001969411B069942EC
:1018E00002D3012002494042FFF78EFF70BDC0467F
:1018F000FFFFFF7F70B5060000F0B2F8FA22040087
:101900000D00002330000021920000F06DFF8023C5
:10191000001969411B06994202D301200249404245
:10192000FFF772FF70BDC046FFFFFF7F70B5EFF39A
:10193000058305000C0084B0002B0FD0104A002056
:10194000536AA34203D3926A0130AA4201D304B07E
:1019500070BD1B1B5A1E9341D8B2F8E7094E029383
:101960000193094B0200009330000B00FFF758FE73
:10197000011EE3DD20BF3000FFF710FFDEE7C046A9
:101980000040054034050020C9120010F0B5EFF307
:101990000582D6464F4646461000C0B51038EFF3D4
:1019A000108872B6214C2368002BFCD0BFF35F8FE8
:1019B0000123190081401E4D1F006963AA461D4D79
:1019C00029601D4D2E78AC463500C5402F402B4276
:1019D00015D053465F6A194B8500EB589F4218D3C8
:1019E0006246174B8E43EB581670BFF35F8F002291
:1019F000226088F31088002B06D0984704E0BFF3DC
:101A00005F8F276088F31088E0BCBA46B146A846CD
:101A1000F0BD0C4B92009C46624413681360BFF308
:101A20005F8F0023236088F31088EDE7280100D042
:101A3000004005403C700540651500203015002031
:101A4000240F0020D03F054010B5034B01001800C3
:101A5000024AFFF785F810BD5F150020A45C001056
:101A6000034B596A0A00986A596A8A42FAD1704748
:101A700000400540064A536A9942FCD807D1044BFE
:101A800002E05A6A914202D19A6A8242F9D37047BF
:101A90000040054070B504000D00EFF3108672B6EB
:101AA0001A4A1368002BFCD0BFF35F8F002D1BD0A8
:101AB0002000FFF72DF9164981420AD02000FFF7D8
:101AC0002FF901212000FFF7E7F80123A340114A75
:101AD0001360114BA400E550BFF35F8F00220B4B46
:101AE0001A6086F3108870BD0121A1400A4BA20044
:101AF000D5500A4B20001A788A4305491A70FFF71F
:101B000029FA00212000FFF7C7F8E5E7280100D0F7
:101B10008D19001038600540240F00206515002045
:101B2000F0B54F46D6464646C0B507002E4C616A12
:101B30000D00A66A616AA942FAD18B4208D805D085
:101B40000120E0BCBA46B146A846F0BDB242F7D982
:101B5000EFF3108A72B6254801680029FCD0BFF364
:101B60005F8F0125BD4022491F4C88460978894670
:101B70002943C9B28C46414660460870391D890028
:101B800065630A511B49B8004350216A002029426D
:101B900019D0616A0800A66A616A8142FAD18B4253
:101BA00019D801D1B24216D8CC450BD00E4B1F220A
:101BB0001D625D6301233A4093400F4A1360434620
:101BC0004A461A700120BFF35F8F0022074B1A604C
:101BD0008AF31088B5E70020BFF35F8F0022034B24
:101BE0001A608AF31088ACE700400540280100D055
:101BF000651500203015002080E200E0EFF3108C26
:101C000072B60A490B68002BFCD0BFF35F8F01232B
:101C10008340074A0748136202789A430270BFF371
:101C20005F8F00230B608CF310887047280100D071
:101C3000004005406515002070B506000D00140039
:101C400000291DD0002A12D073688068984762006E
:101C50006B0012195B193168033A033B002808D066
:101C60008A189570C818CB5C002B0BD10470280023
:101C700070BDCB189C7088188A5C002A05D105704D
:101C80002000F5E753700470F1E75A700570F7E72C
:101C900010B583600023CCB24373013342600473F8
:101CA0008373C4730068421C012C05D90133DBB275
:101CB000137003329C42F9D1FF230B405A00D31812
:101CC000C01800230338437010BDC04670B505002E
:101CD0000C1E07D0630001681B19033BCB185A7810
:101CE000002A01D1200070BD500080180338091867
:101CF00000204E784870210058702800FFF79CFFA4
:101D0000310004002800FFF7E1FF0600002C20D07E
:101D10000028E7D0320021006B68A868984772005D
:101D2000630092191B192968033A033B002808D065
:101D30008A189470C818CB5C002B00D053700670C2
:101D4000D0E7CB189E7088188A5C002A00D05A70A1
:101D500004703400C6E7C046F0B557464546DE4637
:101D60004E46E0B50D006F0001687F19033F040087
:101D7000C85D83B00192CA19002850D043001B18D7
:101D8000033BCB185E78B446002E1AD1019E002E7C
:101D900042D0E67B002E04D073009B19CB18033B86
:101DA0005D70A37B002B00D1A573E57300282FD1B4
:101DB0000023537003B0F0BCBB46B246A946A04610
:101DC000F0BD72006244033A8A18517888460021B7
:101DD000517089465970320001002000FFF72CFF36
:101DE00043468246002B07D05B0021684344033BF7
:101DF000CB185A78002A16D1424651462000FFF7E8
:101E00001BFF2168019BCA19002BC2D10028CFD02B
:101E100043001B18033BCB1800219970C8E7019BB6
:101E2000002BB6D1C4E75000801803380918487851
:101E3000834648464870587041462000FFF7FCFE34
:101E4000594680462000FFF741FF4146020020002E
:101E5000FFF7F2FE8046CFE7F0B557464546DE462F
:101E60004E46E0B583B00191457B04006F000068E9
:101E70007F19033FC15DC219002952D04B005B1886
:101E8000033BC3185E78B446002E1CD1019E002E81
:101E900044D0E67B002E04D073009B19C318033B8B
:101EA0005D70A37B002B00D1A573E573002931D1B0
:101EB000002328005370617303B0F0BCBB46B246E8
:101EC000A946A046F0BD72006244033A82185078D9
:101ED0008046002050708146587032002000FFF785
:101EE000ABFE43468246002B07D05B00216843448B
:101EF000033BCB185A78002A17D14246514620009E
:101F0000FFF79AFE019B01002068C219002BC0D187
:101F10000029CDD04B005B18033BC31800209870FC
:101F2000C6E7019B002BB4D1C2E7500080180338EC
:101F30000918487883464846487058704146200042
:101F4000FFF77AFE594680462000FFF7BFFE414664
:101F500002002000FFF770FE8046CEE770B5050056
:101F600000292CD0437B8B422ED04C000068641893
:101F7000033C0419A278002A21D053009B18033B8C
:101F8000C25CC6188A4202D11BE0002A08D0530066
:101F90009B18033BC3185A788A42F6D162785A706C
:101FA000002301222800A3706370FFF7D5FE697B30
:101FB00002002800FFF740FE6873012000E00020C7
:101FC00070BD63783370EBE701221900FFF7C4FEA0
:101FD000F2E7C046F8B5040006200D0000F0C4F991
:101FE000002844D02A4B2B49E21853425A418023FF
:101FF000DB039C469205284B62441A60274B1A600B
:1020000010008B689843FBD1214B254AE3185942B5
:102010004B4180215B0049000620995200F0A4F951
:102020002900C00000F058FBC30921D1402701213D
:10203000260080256162A36200232C36AD01354362
:102040002B60062000F090F93900800000F044FB7E
:102050006022E36A53400E321A4080235B0133430F
:102060001A60104B236310232B600D3BA364F8BD53
:102070000D4A934203D900230C4F0D49D8E77F2224
:102080000240013252089F011900BF181300CFE728
:102090000080FCBF00C0004000E0004000F00040B5
:1020A0004015002001030000FEFF0000C0FF3F00BC
:1020B000FFFF000010B50C2082B000F0AFF9FEF772
:1020C00047FD002810D0864B86488649864A18600E
:1020D00059609860D960186159619861D961186236
:1020E00059625A6202B010BD804CA06700F0ECF952
:1020F00001227F4B1A60636C012BFCD103227D4BC4
:102100001A607A4A936B012BFCD1013301217A4A80
:102110007A480093043300F02DF90523784A0093A0
:102120000121784800F026F9774B5A68FF2A02D837
:10213000802252005A6080226E4B694C12011A6054
:102140002169002905D0606900F0C6FA0130013824
:10215000FDD1E0226C4B6D4819680A4002600222F2
:102160001968514001320A40042102609A68114204
:10217000FCD08021664A09011160802252005A6019
:10218000644B2361644B5968FF2900D85A600322CD
:102190000121574B1A60604A93681942FCD0E02332
:1021A000106803405D480360126803234A4002211F
:1021B0001340594A036093681942FCD08021584B60
:1021C000090119608021574B490051606361564BEA
:1021D0005A68FF2A00D859608022544B12011A60B5
:1021E000E169002905D0606900F076FA0130013814
:1021F000FDD1E0234C4A11680B404D490B60802112
:102200004C4B090119608021364B49005160E36154
:10221000494B5A68FF2A00D859608022474B120167
:102220001A60216A002905D0606900F055FA013072
:102230000138FDD1E023404A11680B4040490B6052
:102240008021404B0901196080235B00536080228C
:10225000244BD20223623C4B5968914200D25A600F
:1022600080223A4B12011A60616A002905D0606928
:1022700000F032FA01300138FDD1E023324A116812
:102280000B4033490B608021324B090119608023D8
:10229000DB025360144B63622F4B5A68FF2A02D84B
:1022A000802252005A6080222C4B12011A60A169D0
:1022B000002905D0606900F00FFA01300138FDD126
:1022C000E023254A11680B4025490B608021254BEE
:1022D0000901196080235B005360124BA36101E781
:1022E00008060020006CDC021BB7000000800040E4
:1022F0003CB0004030B00040002F685900800240E0
:10230000008C864700C00240308000403090004082
:1023100030A00040001BB7003C8000403C900040D3
:102320003CA00040405973075480004054B0004026
:102330005490004054A000406080004060B00040D5
:102340006090004060A000406C8000406CB0004095
:102350006C9000406CA000404880004048B00040B5
:102360004890004048A00040014B8000C058704792
:1023700008060020F8B504000C2017001D000E0010
:1023800000F0AAF943011B1A9901C91AC9000918DA
:102390008901380000F0A0F9069B29041B031943AA
:1023A0002368002B20DB194B194DE3185A42534187
:1023B0008022520194461B03164A63441360164A56
:1023C00013601F00AA689743FBD1C023221D9B0105
:1023D000134321222660A0601A602268002AFCDADA
:1023E0000822E1601A60F8BD3F2322681340B3421F
:1023F000D9D1A3681B051B0D8342D4D1EE22E3681B
:10240000D20213408B42CED1EDE7C0460040FDBF63
:1024100000C0004000E0004000F000408023024A7D
:102420009B000343D36270470080054010B58024B1
:102430001C4BE4051C6000281AD001231A4C1843D9
:102440001A4BDC611A4C44401C625962986280212C
:10245000144BC9051960174817490860E021C904E1
:102460001960002A07D18022144B12061A6010BD91
:102470000E4BD861EBE753019B1A9B009A188023FF
:1024800012015B049A4209D213000D490B60074BFD
:102490005A608022094BD2051A60E8E7094B1A00FE
:1024A000F3E7C04600B00540D3C007B00080054048
:1024B0002D3FF84FFCFF01000820014000A005401F
:1024C000D4140020FFFFFF00AA23064A1B0113605B
:1024D0002F230549D360054B19605368002BFCDAA4
:1024E0007047C0460040024000B0FA000060024061
:1024F0002B4B2C4A70B51A602B4A2C4B2C491A6076
:1025000014008B689C43FBD12A4D2B4EB54208D258
:10251000013E761BB60808CD984723000134B3422C
:10252000F9D1FFF7C7FD254A204B1A60204A93686E
:10253000DB43DB01DD09002BF9D14022204B214E8A
:10254000214C9A675A671A67DA66B44208D2236840
:1025500020000834002B1FD0FEF776FEB442F6D3DD
:102560001A4C1B4EC022B168200000F0FFF9B46085
:10257000FEF766FBFEF72AFEFFF718F8154C164E1D
:10258000B44208D2013E361BB60808CC98472B004F
:1025900001359E42F9D170BDFEF748FED5E7C04631
:1025A00000E00040BFCDFBFEFE7F3C0000F000409D
:1025B00000C00040E8050020F8050020FFFFFF01F3
:1025C00000F00140E8050020D805002000000020B0
:1025D00000ED00E0F80500200406002000BEFDE745
:1025E00010B5FFF7FBFFC0460FB400B5084883B035
:1025F00000F058FA049B002B07D005A918000191A0
:1026000000F018F8034800F04DFA0120FFF7E6FF4C
:10261000C85C0010D85C001010B50148FFF7E4FF5B
:10262000DC5C001010B5002800D110BD00F0EEF900
:10263000FBE7C04610B5094A0300146884B0002CBB
:1026400008D0012200910648524203A9A047012068
:1026500004B010BD00F026FA0020F9E7D0140020E5
:102660002526001001480421014B18476005002071
:1026700095260010142310B50100188804331B8818
:10268000984710BD162310B50100188802331B8827
:10269000984710BDF8B54746CE4680B50F1E19D0F5
:1026A00014239946043304000025012698464B461E
:1026B0001888434621681B88984701C4431E9841E7
:1026C000013540420640AF42F1D13000C0BCB946AE
:1026D000B046F8BD0126F8E7114A936F9B0813D264
:1026E00010665166002905D0FFE7FFE7FFE7516F4D
:1026F000106F704704B5002801D00020C04303F0DC
:102700007FFA002104BDC046F0B5146E556E576FB8
:10271000166FFFF7E5FF1466556657671667F0BD3D
:10272000000000D0132370B51D78012D15D010DDE9
:102730001D48FFF7A7FF1D4C01008022200000F07C
:1027400015F9022D2DD01A48FFF794FF194B186088
:1027500070BD194B154CA364F5E7174B134C236060
:102760006360A360E36023616361A361E36123624B
:102770006362A362E36223636363A363E36323642B
:102780006364A364E36423656365A365E36523660B
:102790006366A366E36623676367A367E367A3646F
:1027A000D1E7054BA364CEE753440000380700206F
:1027B0004C3300001C150020BD27001007B56046F3
:1027C00001880A0A0230DF2AFAD1C9B2820804D38A
:1027D000028840880004104300E00068014A50501D
:1027E000039007BD3807002051434343C9188C4666
:1027F000110C83B24B4310B4040C614392B280B20B
:10280000504362431C041B0C001910BC59411304B3
:10281000120CC018514161447047000048404140CB
:1028200048400E4B5B6818470C4B1B6818470C4A16
:10283000936F9B0802D2094BDB681847F0B5146E02
:10284000556E576F166FFFF7F6FF054A146655660B
:1028500057671667F0BD014B9B6818473808002082
:10286000000000D0491A002808D10846704700002F
:10287000C10FC90700D54042002817D0F44603B461
:102880000B4B1B68984706BC81409E384042803104
:1028900007D20B0607D04900490AC0051043084378
:1028A00060470130F8E7490A8902F5E77047000000
:1028B0001C150020014B5B6A1847000038080020F7
:1028C000132310B512481C78FFF7DCFE0100012C21
:1028D0000AD003DD80220F4800F048F80E48FFF7C9
:1028E000C9FE0E4B186010BD0A4C5422200000F0A7
:1028F0003DF80B4B6365A365E36523666366A366DA
:10290000E36623676367A367E3672362E361E5E741
:1029100053460000380800204C3300001C150020EE
:102920002529001007B5604601880A0A0230DF2A0F
:10293000FAD1C9B2820804D3028840880004104347
:1029400000E00068014A5050039007BD380800209D
:1029500001480421014B18477005002095260010FE
:10296000014B1B681847000070050020014B5B6895
:102970001847000070050020F0B5C64600B5437D3D
:1029800007000D001600002B38D0002A2EDD002194
:102990006A1E90466A5C037D4C1C00200A2A0CD0FB
:1029A000A64216D043461B5D21000D3B5A425341BF
:1029B0006A5CDBB24C1C0A2AF2D1002BF0D18142B6
:1029C00017DC022110483B689847A64207D0200038
:1029D000E8E7864203DD311A3B6828189847AD19AD
:1029E000013D2B780D3B5A4253413B7580BCB846A4
:1029F000F0BD091A3B6828189847E2E70368110000
:102A000028009847F2E7C046505D0010F0B5CE466A
:102A1000474680B583B06B460600DD1D2870FFF782
:102A20001FF800231A4A12184B41802109068B42D5
:102A300002D30122174B524217490800884603F07F
:102A400007F9164B81461C68002C14D0144F02E085
:102A50002469002C0FD02368002BF9D03B68002B91
:102A600001D0A342F4D1200001222900FFF784FF06
:102A70002469002CEFD14B46002B05D1300003B068
:102A8000C0BCB946B046F0BD404603F0B1F8F5E72A
:102A900040420F00FFFFFF7FE0050020C81000202C
:102AA000CC100020F0B5DE4657464E464546E0B510
:102AB00085B0070002F0FCFF0600FEF7D1FF0023FF
:102AC0002B4A12184B41802109068B4202D3012266
:102AD000284B5242284908008B4603F0B9F8274B8F
:102AE00001901C689A46002C3BD0254B984602ABBF
:102AF000DD1D0A23994602E02469002C17D02368C3
:102B0000002BF9D043461B68002B01D0A342F3D120
:102B1000200032003900FFF72FFF4B462000012232
:102B200029002B70FFF728FF2469002CE7D1019BB7
:102B3000002B18D153461C68002C06D06368002B6C
:102B40000BD098472469002CF8D1300005B0F0BCB8
:102B5000BB46B246A946A046F0BD2469002CEDD183
:102B6000F3E70028F1D0584603F042F8E2E7C04608
:102B700040420F00FFFFFF7FE0050020C81000204B
:102B8000CC1000200A4A1368002B05D10CE01A0073
:102B90001B691032002B07D09842F8D1002902D1CE
:102BA00003691360016170470029FCD01060FAE7E7
:102BB000C810002010B500F0CFF910BD7047C04616
:102BC0000022014B1A707047621500204B790020DB
:102BD000FF2B0BD18B79002B08D1CB79012B05D1A1
:102BE000082A03D9024B8A7809301A707047C04608
:102BF000621500200120704770B5002913D11449D7
:102C00005379107909781B0203430020994200D0C0
:102C100070BD5378012B08D0022BF9D1642200211A
:102C20000020FFF703FC0120F2E79478D27805003A
:102C300012021443D20502D5620A93401D000548D2
:102C4000FFF718FD7F210300214028009847C04668
:102C500062150020554200000123037000487047B0
:102C6000545D00104B780A781B0213438A7810B524
:102C700012041A43CB781B0613439622D2009342C8
:102C800000D010BD0348FFF7F5FC00210300080049
:102C90009847C04655420000024B1860024B19602D
:102CA0007047C0463C1000204010002010B5024B79
:102CB0001878FEF70FF810BD63150020114B70B5A2
:102CC0001A68002A1AD0EFF3108172B61068002833
:102CD000FCD0BFF35F8F00200B4A596010701B6857
:102CE000BFF35F8F186081F3108800240025074B25
:102CF0001878FDF7EFFF2900200070BDFA240025A9
:102D0000A400F4E7F41400206415002063150020EB
:102D100070B5040000200E0001F044FF002833D0FD
:102D2000002001F057FF00282ED0FEF799FE002367
:102D3000174A12184B41802109068B4213D2154DB8
:102D4000280002F085FF00281ED0002001F02AFF95
:102D500000280CD100F090FF03246442280002F008
:102D600047FF200070BD01220B4B5242E7E70020D5
:102D700001F030FF0028EDD021003200002001F0EA
:102D800035FF041EEAD1E7E703246442E9E7C046C1
:102D900040420F0028150020FFFFFF7FF8B5DE46F8
:102DA000574680B505000C00FEF75AFE0023344A52
:102DB00012184B41802109068B4202D30122314B6C
:102DC0005242314908008B4602F042FF002803D1ED
:102DD000C0BCBB46B246F8BD002001F0E3FE0028AF
:102DE00044D00026002C3DDD284B9A4611E0A9195D
:102DF000002001F06FFF070000F03EFF002001F00F
:102E00002DFFFEF72DFE534618605960F619B442A7
:102E100028DD002001F078FFA71B0200B84200DD8A
:102E20003A00002AE3D100F027FF002001F016FF4E
:102E3000002001F0B7FE002814D0002001F064FF4C
:102E40000028E4D1FEF70CFE53460F001A685B68B9
:102E5000002184460E4812184B419F4202D8D6D119
:102E60009445D4D9584602F0C3FEB1E700200021B2
:102E7000064B18605960584602F0BAFEA8E7C046F3
:102E800040420F00FFFFFF7F281500203007002081
:102E900020A1070010B5234C84B00021200002F0CF
:102EA000B7FE00281CD1204B1A68002A16D0EFF379
:102EB000108172B610680028FCD0BFF35F8F012428
:102EC0001A48596002781B68D2B20470BFF35F8F52
:102ED0000020186081F31088002A07D004B010BDCC
:102EE00000F0CAFE200002F083FEF7E7FEF794FB35
:102EF0000400FEF7B5FDFA220023920012184B41A0
:102F0000802109068B4202D30122094B5242012142
:102F1000029100210191074920000091FEF780FBFA
:102F2000DCE7C04628150020F414002064150020BA
:102F3000FFFFFF7FBD2C0010054B10B5186800285F
:102F400004D0044B0022196801F072FC10BDC04689
:102F50003C10002040100020D02310B51B0684B088
:102F60001C68FEF759FBFEF74DFCA04202D0002082
:102F700004B010BD274B1B7802F0A8F82648FEF7D6
:102F800055F90120FEF734F9FF23244C2449207021
:102F90001840FDF7C5FE20780121FDF77DFE0520D4
:102FA000FDF7A0FE002827D1FEF736FB0400FEF750
:102FB00057FDFA220023920012184B418021090686
:102FC0008B4202D30122174B524201210291002170
:102FD0000191154920000091FEF722FB0822040010
:102FE00000211248FFF7BCFC002CC0DB1048012177
:102FF000FFF7C8FD0120BBE700220E490520FDF7C1
:10300000B9FEFDF72BFE094B01001800FEF738F959
:10301000ECE7C046605F0010281500206315002013
:10302000952E0010FFFFFF7FBD2C0010F414002030
:1030300080050020AD2C001000487047245E001071
:1030400000487047D05D001010B5040017480378A1
:10305000002B20D0002C06D1154B16484380063B90
:10306000FF3B038010BD052C19D8134BA400E0587A
:1030700012490123013804E001330A800231142B84
:103080000FD0C25C002AF7D1C022DBB25B009200F5
:1030900008481343E5E7112100F01AF8DAE70020A9
:1030A000E0E7CA2303489B00DBE7C0464415002045
:1030B00009040000A0100020B85D0010A21000203C
:1030C00010B5024800F0D8F810BDC0461415002015
:1030D00030B54B1E012900D1A7E0664A11780D09D1
:1030E0002C0030349F2900D9A2E00470012B00D1BC
:1030F000BEE00F21147821400C003034092900D99A
:1031000098E04470022B00D1B2E0547825092900E0
:1031100030319F2C00D990E08170032B00D1A7E0C3
:103120000F2121400C003034092900D987E0C470F8
:10313000042B00D19CE094782509290030319F2C84
:1031400000D97FE00171052B00D191E00F212140D2
:103150000C003034092900D976E04471062B00D1E7
:1031600086E0D4782509290030319F2C00D96EE003
:103170008171072B00D17BE00F2121400C003034FE
:10318000092966D8C471082B00D171E0147925098A
:10319000290030319F2C5FD80172092B68D00F2194
:1031A00021400C003034092958D844720A2B5FD0D2
:1031B00054792509290030319F2C52D881720B2B6C
:1031C00056D00F2121400C00303409294BD8C4724D
:1031D0000C2B4DD094792509290030319F2C00D932
:1031E000073101730D2B43D00F2121400C003034E7
:1031F000092901D937310C0044730E2B38D0D1790D
:103200000C09220030329F2900D9073282730F2B1C
:103210002ED00F220A4011003731092A01D830324E
:103220001100C173102B23D010300023037030BD68
:1032300007345AE737310C0063E707316CE7373161
:103240000C0074E707317DE737310C0085E7073163
:103250008EE737310C0095E707319DE737310C00D9
:10326000A3E70731AAE737310C00C4720C2BB1D1A8
:10327000C018DAE71415002030B5002589B0040025
:103280000922002101A80095FFF76AFB092200210D
:1032900005A80495FFF764FB4B236A466846137044
:1032A00004A90D2202F094FC152108222000694493
:1032B000FFF75CFB09B030BDF0B598235746454693
:1032C000DE464E46674AE0B5D75880253C006D0281
:1032D00085B02C40883B2F420ED001222321624B27
:1032E00000205A546149DA7001F0FCF980222C0068
:1032F0005F4B92021A655F4BFA0617D480235B017D
:103300001F424BD18023DB011F4200D080E080238D
:103310001B021F4200D089E0BC4200D09DE005B0F6
:10332000F0BCBB46B246A946A046F0BD4D4A926DE0
:103330009046002A2DD04E4A002493460122914601
:10334000494A0126924642465146B8469A461700D7
:10335000039104E001347600E4B2202C17D0374208
:10336000F8D05B469E654B466508A3436D00ED189B
:10337000039B6D019C466544280000F00BFB002870
:103380005FD10134B743E4B27600002FE5D1474660
:1033900053461C0080235B011F42B3D01C43002313
:1033A000304A00211360314A33489360D36013617F
:1033B00053619361D361136253629362D362136367
:1033C00053639363D363136453649364D364136547
:1033D00053659365D365136653669366D366136727
:1033E00053679367D367F0229200FFF7B9FA234B34
:1033F000234A00211A600020012201F047F98022AF
:103400001B4B12031A658023DB011F4200D17EE7AC
:103410000122042100201C4301F0A6F81022144BC5
:103420001A6580231B021F4200D175E70122052186
:1034300000201C4301F098F880220D4B12011A6500
:103440006AE74B46AA8AA97800200093002301F07E
:1034500071F9280000F0DAF993E721000948794072
:10346000FFF7C2F800001150D010002000001050EB
:10347000003011501000010010110020D81400205D
:1034800080011050385E001010B501210520FDF7B5
:1034900003FC10BD10B500220021024800F0DEF947
:1034A00010BDC046F01000208022024B5202DA64A8
:1034B0007047C04600201150F0B5C64600B5060062
:1034C00000F07EF90C232E4D0520AB672D49FDF74A
:1034D00027FC402398462C4C402200212000FFF777
:1034E0003FFA43460127A38321210023274A67701F
:1034F000A260136063545F3161844146A187023941
:103500006354234A23496360E260A1620B60E26274
:10351000214A636220009360D36013615361936119
:10352000D361136253629362D362136353639363F1
:10353000D363136453649364D364136553659365D1
:10354000D365136653669366D366136753679367B1
:10355000D367F022002192004030FFF701FA0F4BB1
:103560000F4A30001A6080239B052F64EB64902380
:103570000C4AEA50FFF798FF80BCB846F0BDC04641
:1035800000001150B9320010D010002084001050FB
:10359000000110508000105000001050D81400207E
:1035A0008001105010D001000B785B0602D14B78DF
:1035B000052B00D070478A78014B1A60FAE7C046A5
:1035C00000001150F0B5CE464746072380B5487934
:1035D0008E780A790340C8787F21800731401B022A
:1035E000F40913434F00820F944691462A4D3A192D
:1035F0005201AA1896700126664056706046002651
:103600009383D6709077CA00012C29D02348844632
:10361000880162448446AC4460468260166000299A
:1036200029D01F4AC9009046414441603F223F33A0
:1036300093434A46022A00D15B001A493F190A689F
:103640007F01D3180B60184BED195340EA604A46CE
:103650009006184380236A681B060343136010E03A
:1036600012488446880162448446AC4460468262C3
:10367000166000290AD1002364012C1963600C4BE9
:10368000E3600120C0BCB946B046F0BD064AC9009F
:10369000904641444162C9E7D01000208400105098
:1036A00004001050D814002000001050800010506A
:1036B000000110500022154B10B59A60DA601A61B3
:1036C0005A619A61DA611A625A629A62DA621A631C
:1036D0005A639A63DA631A645A649A64DA641A65FC
:1036E0005A659A65DA651A665A669A66DA661A67DC
:1036F0005A679A67DA67F032920000210448FFF7B0
:103700002FF9044B044A1A6010BDC0460000105047
:1037100010110020D81400208001105010B57F2017
:103720000C0020404000E409110000191A00034B6E
:103730004001C01800F092F8012010BDD010002008
:103740007F23180010B50840CA090B4203D107496E
:103750007D3B9B1A8B66400080188022044B400101
:103760000021C018120100F057F810BD00201150C0
:10377000D01000207F22130010B50B400A4200D168
:1037800010BDC9095B005B1804485B01C018002329
:1037900000220349C37000F03FF8F1E7D010002089
:1037A000FFF7FFFF7F21C209034B9200014010B5D4
:1037B000D2580248FEF718FF980500204C5E001012
:1037C00080220D4B520410B51A600C4B0C491A6044
:1037D00010008B689843FBD10A4C9C2200212000EA
:1037E000FFF7BEF88022002152010748FFF7B8F822
:1037F0000923636710BDC04600E0004000F00040B0
:1038000000C000400000115000001050002303745D
:10381000438283828361704710B58368002901D099
:103820001C682140002A11D08024E4001143224268
:103830000CD01A6822420BD1074A0A401A60FFE7EF
:10384000FFE7FFE7FFE7FFE7FFE78368196010BDC9
:103850008078FFF7A7FFC046FFFBFFFFF0B5C64625
:10386000002300B5838201330374436804001F689A
:10387000838B81611E1C934200D9161C8020B6B236
:10388000921B93B2E278C000304315008446681E54
:10389000854160466D03054301204240E270627835
:1038A0006382002A50D0002B2CD080225201154375
:1038B000344A126C920743D5A28B111C9A4200D94C
:1038C000191C8AB28021C90011439B1A9046E278E4
:1038D0009BB21600701E864176030E4301214A40BA
:1038E000E27062786382002A3AD0002B02D18023F2
:1038F000DB011E43A023244A36043A40DB0535434E
:10390000134309E0A023DB011D431E4B1B6C8023E6
:103910001E4A9B053A40134362681360A26813680D
:103920005B052BD41A4B2B401360FFE7FFE7FFE743
:10393000FFE7FFE7FFE7A3681D6080BCB846F0BD66
:10394000A278D209B8D1E2E73200E068FFF70EF8BA
:10395000A3699B19A36180231B021D43638AA2E70D
:10396000E0684246A1694030FFF700F8A36943448C
:10397000A36180231B021E43638AB6E7A078FFF78A
:1039800011FFC04600001150FFFFFFDFFFFFFFAF38
:10399000FFFBFFFFF0B5C64600B5067C0400002E15
:1039A00000D1CDE083681A681D684378AD05AD0D80
:1039B000002B00D06FE0838AEB189BB28382A18B2F
:1039C00062688D4206D2002363821368300080BC97
:1039D000B846F0BD1268520010D58D420ED1A268D3
:1039E00015686278AD01AD0D002A00D08CE0EB18AF
:1039F000A3828D4202D200236382E7E7638A002B11
:103A0000E4D062681E1C17688B4200D90E1CE17856
:103A100080220D00681E8541B6B2D20032436D038C
:103A2000154301229B1B514062789BB26382E17077
:103A3000002A5AD0002B3BD0802252011543454A20
:103A4000126C920702D4A278D20936D0A28B111C34
:103A50009A4257D88AB28021C90011439B1A9046D6
:103A6000E2789BB21600701E864176030E43012158
:103A70004A40E27062786382002A53D0002B02D160
:103A80008023DB011E43A023334A36043A40DB0582
:103A90003543134316E02A008069E168FEF766FFAC
:103AA000A38AA269EB189BB25219A382A26186E78E
:103AB000A023DB011D43274B1B6C8023274A9B055A
:103AC0003A40134362681360A26813685B053ED4F2
:103AD000234B2B401360FFE7FFE7FFE7FFE7FFE71C
:103AE000FFE7A36800261D6070E73200E068A16967
:103AF000FEF73CFFA3699B19A36180231B021D43B2
:103B0000638A97E7191CA5E7E1682A004031A0699C
:103B1000FEF72CFFA38AA18BEB18A382A3695B1984
:103B2000A36166E7E0684246A1694030FEF71EFFE8
:103B3000A3694344A36180231B021E43638A9DE75C
:103B40007F238178074A08481940FEF74DFDA07889
:103B5000FFF728FE00001150FFFFFFDFFFFFFFAF60
:103B6000FFFBFFFF980500206C5E0010024B5878A9
:103B7000431E9841C0B27047080E0020024B1878CF
:103B80004007C00F7047C046080E0020014B187850
:103B90007047C0465D150020F0B5C6462D4F0500A4
:103BA0003B7800B5002B03D0012080BCB846F0BDA7
:103BB000532200212848FEF7D3FE284C2000FDF7B1
:103BC00035FB274B1C60274C20001C3CFDF74AFBB3
:103BD000200001F0C7FC244B244E1C60244B984667
:103BE000002B2AD03000FFF737F84246214B002443
:103BF00018603378002A25D01E4A90469C420FD385
:103C000001F08EF801343378E4B2A342F6D22800F2
:103C1000FFF752FC2800FFF737FC01233B70C3E796
:103C200043461A6863001B19DB009B589847013410
:103C30003378E4B29C42E1D9E9E742460024337884
:103C4000002AD9D101F06CF83378002BDFD043463D
:103C50001B68FFDE5D150020080E0020C00D00204F
:103C60005C0E0020BC050020600E00205C150020CA
:103C7000592C0010D00A0020F0B5DE4657464E46BB
:103C80004546E0B591B001F027FA002800D144E1A3
:103C9000C24BC34E0193C34B0DAC0293C24B009673
:103CA0009B46009B1D68EA69EFF3108172B61368AA
:103CB000002BFCD0BFF35F8F29622800210001F0A8
:103CC000C5FAEA692B6ABFF35F8F0021116083F3A5
:103CD0001088002800D120E16378082BE1D8019AF0
:103CE0009B00D3589F466368002BDAD0A0689847A2
:103CF000D7E77F222179AB4B0A405500C8095B19F1
:103D00001B18180001273030C578BD43C570C57831
:103D10000337BD43C570002A00D105E1A34ADB7C0F
:103D2000002A06D0A24A1278934200D287E19B1A59
:103D3000DBB2002B00D0F0E09E4DA36862792078C2
:103D4000A847AEE70122974F01213B780420134397
:103D50003B703323FA5C8A43FA54FA5C8243FA5488
:103D60000133FA5C8A43FA54FA5C8243FA542378AA
:103D700000209A4600F088FE602223791A40602ACB
:103D80000DD0402A00D1EBE0DB06DB0E012B00D189
:103D900060E1022B00D11BE1002B00D1EFE0207885
:103DA0000021FFF7CDFC80212078FFF7C9FC78E7E0
:103DB000029B1B78DB0700D473E77F4B002B00D1FD
:103DC0006FE700E000BF6CE7764A1378DB0700D4AA
:103DD00067E77A4B002B00D163E710780007C00F2C
:103DE00000E000BF5DE7724D704A00272B78002A83
:103DF00000D1B0E06C4A16009F4205D30137FFB2F4
:103E00009F4200D94DE7F9D27A003168D219D20029
:103E10008A185269002AF1D02078904701372B7810
:103E2000FFB2BB42E8D23CE72378614D98465F4A37
:103E30000027914646462B78002A00D183E0BB42FA
:103E40005CD8300000F0AAFF01372B78FFB2BB42EC
:103E5000F5D2029D532200212800FEF781FD102299
:103E6000FF215748FEF77CFD28002022FF21133058
:103E7000FEF776FD00F0FEFD524B002B00D110E75F
:103E800000E000BF0DE72378494D484A9846914627
:103E900000272B78002A4DD0434A46469146BB4224
:103EA0001DD8300000F07AFF01372B78FFB2BB42FB
:103EB000F5D23C4D532200212800FEF751FD10227F
:103EC000FF21E81CFEF74CFD28002022FF211330C3
:103ED000FEF746FD00F0CEFD2379AB70E1E64B46E0
:103EE0001A687B00DB19DB00D3185B683000984749
:103EF00001372B78FFB29F42D1D9DAE75B461A68C7
:103F00007B00DB19DB00D3185B6830009847013772
:103F10002B78FFB2BB4292D29BE711B0F0BCBB46FC
:103F2000B246A946A046F0BDA3686279207800F0A9
:103F3000BFFDB6E6404600F031FF2B78002BB8D02D
:103F40004B465B68FFDE404600F028FF2B78002BD5
:103F500000D17EE7F4E7002B00D1A2E65369FFDE33
:103F60001948002800D11AE700F08EFD00215046C4
:103F70000EAA00E000BF002800D092E60FE7202A3A
:103F800000D19CE0002A00D009E76379092B00D911
:103F900005E70E4A9B00D3589F46C046A05E00101E
:103FA000600E0020080E0020D00A0020592C0010BE
:103FB0005C150020914F0010000000000000000080
:103FC0000B0E00200000000000000000C45E001086
:103FD0007023217A0B4200D0E1E60F330B405B00E7
:103FE000CD09F8184019C67CB948002806D0B94850
:103FF0000078864200D283E0301AC6B2002E7BD110
:10400000002A00D010E1B44A914602266279904617
:10401000B243012A00D10BE14246002A00D0BEE69D
:10402000FB185B193033DB780CAA9B07DB0F0232DD
:104030001380504602230EA900F0C6FC31E6A74AC1
:1040400058001268C318DB00D318002B00D164E7B6
:104050001D6972E6237A0F2B00D9A0E69C4AFB1853
:10406000DB78002A05D09B4A1278934263D39B1ACF
:10407000DBB2002B00D092E69948974D00F004FD8A
:1040800000215046EB680EAA9847002800D008E6A9
:104090006022150023791D401A4200D07FE6637923
:1040A0000A3B012B00D97AE600F0EEFC63790A2B7B
:1040B00000D1EAE050460EA900F070FCF1E5237A49
:1040C0000F2B00D96BE6824AFB18DB78002A06D05A
:1040D000804A1278934200D2CCE09B1ADBB2002BCC
:1040E00000D05CE67E487C4D00F0CEFC00215046BE
:1040F000EB680EAA98473EE79146002A85D04EE627
:104100007648039070008446039866440068F60081
:104110008146B144002A00D177E74B46002B00D1FD
:104120003DE6D86800F0B0FC4B4600215046DB6805
:104130000EAA98471FE7694A59001568CB18DB009B
:10414000ED18002D00D12AE6E86897E7E388012BF7
:1041500000D024E608223B78504693430EA93B70DA
:1041600000F01CFC9DE5022039780CAB9A1C8B06F4
:104170008908DB0F01400B435AE7A37998467B7807
:10418000984507D07B78002B00D01AE14346002BDE
:1041900000D0ABE0434650460EA97B7000F0FEFB1A
:1041A0007FE57B780CAA02321370504601230EA9DA
:1041B00000F00AFC75E5E3881A0AD8B20F2A00D984
:1041C000EDE548499300CB589F460EA800F062FCED
:1041D0005046A179FFF75EF902223B7813433B700A
:1041E0005FE5E388012B00D0D9E508223B785046F3
:1041F00013430EA93B7000F0D1FB52E5022A00D117
:104200009BE1394B002B00D1C9E500E000BF020063
:10421000002A00D1C3E5D37891781B020B435046A6
:104220000EA900F0D1FBA6E62B4B2D48994679E765
:10423000E288002A08D14246FB185D193035EB7838
:10424000012A37D09B0729D54B46002B00D128E502
:10425000D86800F019FC4B460021DB680EAA5046D6
:104260009847002000F010FC3423FB5CDB0700D5EE
:1042700017E51FE7194A59001568CB18DB00ED1840
:10428000002D00D18BE5E8682EE70CAB9A1C504658
:1042900001230EA9157000F097FB02E55046FFF7C9
:1042A0004FFA0222EB7813430122EB70EB781343B1
:1042B000EB70C9E79B07C7D55046FFF75BFA42464C
:1042C000EB78B343EB70EB789343EB70BCE7C046FD
:1042D000592C00105C1500202C5F0010D00A002023
:1042E000AD4E0010EC5E001000000000581EC0B281
:1042F000FEF7A6FE002800D151E543780893022B73
:1043000000D04CE50121C3799A115B110A400B40A2
:1043100052011B0113433A782F318A4313433B70F8
:1043200009239946C37882781B021343C318059367
:10433000844B81440493844B0A93844B0693844BAF
:10434000079343460B933B004F469946059BBB4260
:1043500000D8E0E001227B7803920B2B04D1FB789C
:1043600003933B78FF187B78042B00D017E5059B5F
:104370000025DB1B9BB21E00049B1A780A9B002BB6
:1043800000D18BE0734BB84609930EE032004146F2
:1043900050469847082801D9864258D2049B0135D7
:1043A0001A78EDB2AA4200D2F9E4069B079F954223
:1043B000ECD2099A6B0017685B19DB00FF18BB6829
:1043C000E4E75046FFF776F90022BB785D4D5E4E7C
:1043D000039391462B78002E30D05E4E32002E0093
:1043E0004D469146AB421AD8504600F0D7FC0135F5
:1043F0003378EDB2AB42F5D2532200213800FEF7FC
:10440000AFFA1022FF21F81CFEF7AAFA380020228A
:10441000FF211330FEF7A4FA039BBB70B6E64B46B0
:104420001A686B005B19DB00D3185B68504698472D
:1044300001353378EDB29D42D4D9DDE7504600F026
:10444000ADFC2B78002BD7D033005B68FFDE3B0040
:10445000060047469846039B012B66D0039B002B22
:104460000FD00023B97805E0D5700133039ADBB291
:10447000934206D2CA18D2B24A44D078FF28F3D069
:104480008DE42B0039003200334800F069FE049BB4
:10449000BF191B78AB4200D358E780E432003900E3
:1044A000504600F091FCB0460600082802D9434669
:1044B00083422DD2049B1B78002B00D16FE4002394
:1044C0009B68FFDE254B002B00D168E400E000BFB5
:1044D0000200A0E6224B002B00D160E400E000BF08
:1044E000021E00D15BE4504613780EA900F06CFA6E
:1044F00041E52189FEF7A8FD021EF4D14FE4FEF745
:104500009BFD122302000EA9504600F05DFA32E531
:104510000F4B98469FE70B9B4F469846114B002B3D
:1045200000D137E600E000BF34E64246074B926810
:104530009A4296D1089B039393E7FEF781FD020010
:1045400066E6C0465C150020592C0010C94D0010CD
:104550002C5F0010D00A00201B0E0020000000007D
:10456000000000000000000030B587B06B46050079
:104570000C00981C0A220021FEF7F2F96B461D7010
:104580005C70042C4FD009D8022C34D0032C19D1E4
:104590003C4A13785B0758D407B030BD052C11D1C5
:1045A000384A1378DB07F7D5042113788B4313704F
:1045B000354B1C68E269EFF3108172B61368002B6B
:1045C00009D1FBE7304B1C68E269EFF3108172B64A
:1045D0001368002BFCD0BFF35F8F21626946200077
:1045E00000F006FFE269236ABFF35F8F00211160CC
:1045F00083F31088D0E70121224B1A788A431A707E
:104600001A780331A2431A7000225A701A788A432A
:104610001A701D4B1C68E269EFF3108172B61368C3
:10462000002BD8D1FBE7174A1378DB07B4D5042158
:1046300013780B431370144B1C68E269EFF310817D
:1046400072B61368002BC6D1FBE704210E20137845
:1046500068448B43137000210A22FEF781F96B46F0
:104660006A461D7305235373074B1C68E269EFF319
:10467000108172B61368002BFCD0BFF35F8F2162EC
:1046800003A9ACE7080E0020600E002070B584B0CE
:104690006B4606000C000A220021981DFEF760F907
:1046A000012301AD6B700E4B2C711C682E70E269FA
:1046B000EFF3108372B611680029FCD0BFF35F8F4F
:1046C00023622900200000F093FEE269236ABFF311
:1046D0005F8F0021116083F3108804B070BDC04665
:1046E000600E0020002330B585B001AD6B802870CE
:1046F0000633082202A86B70FEF738F90C4B1C68D1
:10470000E269EFF3108372B611680029FCD0BFF3A1
:104710005F8F23622900200000F06AFEE269236AAD
:10472000BFF35F8F0021116083F3108805B030BDA7
:10473000600E0020F0B5C64600B584B01D006B4683
:1047400080460F00160000210622981DFEF708F98A
:10475000434601AC2370072363700F4B65711D68DE
:104760002771A660EA69EFF3108372B61168002919
:10477000FCD0BFF35F8F2B622100280000F038FED1
:10478000EA692B6ABFF35F8F0021116083F3108801
:1047900004B080BCB846F0BD600E0020F8B54E46AF
:1047A000DE4657464546E0B51F000A9B83460C008F
:1047B000161E994637D0702398461C4B00259A4602
:1047C00017E053462000997800F08AFC00281CD09E
:1047D00021005846FEF7F6FE002816D0A378DA0925
:1047E000012A19D04A46137023780135E418B542DE
:1047F00019DA6378052B08D1E3789B079B0FBB423E
:1048000003D14246A3781A42DBD00020F0BCBB465D
:10481000B246A946A046F8BD0B9A0135137023781D
:10482000E418B542E5DB0120F0E7C046080E0020A1
:10483000802310B51B0184B001930E4B02901C68BD
:104840000391E269EFF3108372B611680029FCD07E
:10485000BFF35F8F2362200001A900F0C9FDE26968
:10486000236ABFF35F8F0021116083F3108804B0C7
:1048700010BDC046600E0020702270B58B78050018
:104880000C001A4201D0002070BD064B2000997820
:1048900000F026FC0028F6D021002800FEF792FE4A
:1048A000F2E7C046080E00207F2270B5154B0A4083
:1048B00052009C18C90964183034E378DB07DD0F17
:1048C000002B18D1E3785B0701D5280070BD0121CA
:1048D0000D4E4942306801F0A3F9E378DB07DD0FA4
:1048E000002B0AD1E3785B0708D40422E378012582
:1048F0001343E37002E00025E7E70025306801F08C
:1049000077F9E2E7080E00205C0E002070B50C007D
:1049100001210F4D4942286801F082F97F230D4A99
:1049200023405B00E409D3181B193033DA780024E4
:10493000D20708D4DA785207D40F002A03DA042108
:10494000DA788A43DA70286801F052F9200070BDE5
:104950005C0E0020080E002070B57F240E4D0C4028
:1049600064002C19CE09A4193034E578ED0701D57F
:10497000002070BD0126E5783543E570FEF7CEFED8
:104980000028F6D10122E3789343E370E378033201
:104990009343E370ECE7C046080E002070B5094C65
:1049A0000600082220000D00FDF7E0FF0023802113
:1049B000E360A3602B783000994300220023FFF7C7
:1049C000CBFF70BDAC0D0020F8B5CE4647469046F3
:1049D000264E80B58146082230000D001F00FDF7ED
:1049E000C5FF4346B3600023F381EC79AB79240221
:1049F0001C43231CBC4200D93B1C9FB2B381002C3A
:104A00000ED0002F18D04346002B2CD03B1C402F3B
:104A10001BD89FB233787F2B1CD80021144A0FE09B
:104A200080212B780022994348460023FFF794FF0A
:104A3000C0BCB946B046F8BD7F2300223178994307
:104A40003B004846FFF788FFF2E740239FB23378E8
:104A50007F2BE2D9064C3A0041462000FDF786FF45
:104A600080212200ECE70020E2E7C046AC0D0020E8
:104A7000C80D002010B5142200210248FDF770FF78
:104A800010BDC046AC0D0020014B18617047C046F8
:104A9000AC0D002010B5054C010008222000FDF7E8
:104AA00065FF0023A360E36010BDC046AC0D00208D
:104AB00070B5394C1D0023780600DA09C9098A420D
:104AC00013D00020002D00D070BD344B002B03D03C
:104AD00021003000FEF768FD2369002B03D022007F
:104AE0000221300098470120EEE7A0687F2B05D80F
:104AF000002834D02A002A49FDF738FFE289A1684E
:104B00005219E38892B24919E281A160934214D00C
:104B10003F2D12D9A389981A051C80B240282AD8A3
:104B20002078ADB27F2828D800219A4232D01C4A82
:104B30002B003000FFF710FFC6E72369002B05D0DC
:104B4000220001213000984700280AD080212378D4
:104B50000022994330000023FFF7FEFEB4E7002057
:104B6000B2E700213000FEF7EBFD30008021FEF7B8
:104B7000E7FD0120A8E74025D2E79A4207D0084C7C
:104B80002A002000FDF7F2FE80212200D0E78021DC
:104B90000022CDE70022CBE7AC0D0020A9350010A4
:104BA000C80D002010B50400FEF7E0FF002801D179
:104BB000002010BDFEF7E2FF0028F9D1B6229200D6
:104BC0006243034B01309B181B791840F1E7C04644
:104BD000D40A0020B6239B00434310B5024818189E
:104BE00000F00EFB10BDC046E40A0020F0B5B6256B
:104BF000AD0045432C00C646174F1034E41900B5EC
:104C0000200092B200F074FB0600200000F010FBC0
:104C10003F2803D8300080BCB846F0BD7B19002087
:104C2000D9789846FFF740FE0028F3D0200000F026
:104C3000FFFA3F280AD996239B00EA184346D21967
:104C4000D97800204023FFF787FEE3E743460020A2
:104C5000D978FFF75BFEDDE7D40A0020F8B5040041
:104C6000FEF784FF002801D10020F8BDFEF786FF83
:104C70000028F9D1B6239B005C432500144E2C3547
:104C8000AD19280000F0BCFA0028EDD0371900203B
:104C9000B978FFF709FE0028E6D0A6239B009C46C2
:104CA0006444A41921002800402200F021FBB978B7
:104CB000051E08D0030022000020FFF74DFE00284B
:104CC000D2D02800D1E70020FFF720FECCE7C04675
:104CD000D40A002070B5B624A4004443094B050053
:104CE000E418200092B200F0BFFB0600200000F0A4
:104CF00087FA3F2801D8300070BD2800FFF7AEFFCB
:104D0000F9E7C046000B0020B6239B00434310B5D3
:104D10000248181800F08CFA10BDC046000B0020A5
:104D2000B622F0B51B4C83B0002120009200FDF7A5
:104D300017FEFF236371184B80260025E3800127AF
:104D40000823210020007600237332002781483198
:104D50000095073B103000F019FA2100200049317E
:104D60003200FF31012300972C3000F00FFA92231C
:104D70009B00E6183000FCF759FA94239B00A662CA
:104D8000E61830006562FCF751FA2664656403B0EA
:104D9000F0BDC046D40A002000C2FFFF10B5094C88
:104DA000052200212000FDF7DBFD20002C3410300F
:104DB00000F0D8FB200000F0D5FB0121200000F01E
:104DC000F7FB10BDD40A0020F0B54B79060083B084
:104DD000022B02D18B79022B03D00025280003B0CF
:104DE000F0BD2F4FBB78002BF7D18B7809253B7096
:104DF0000C780C196378242B0BD1082A02D81FE0F9
:104E0000AA421DD32378E4185D196378ADB2242B30
:104E1000F6D0052B30D0042B12D163790A2B0FD199
:104E2000204B2778019301330093022202233000A4
:104E3000E119FFF7B3FC0028CFD00E35ED19ADB264
:104E4000194C200000F0F4F93F28C7D92600103E85
:104E50000020F178FFF728FD0028BFD0200000F0E7
:104E6000E7F93F2816D992239B00E218F1784023F6
:104E70000020FFF771FDB1E721003000FFF7FCFCD7
:104E80000028AAD0A3787B7023785D19E418637892
:104E9000ADB2C0E7F1780020FFF738FD9EE7C046CD
:104EA000D40A0020D60A0020E40A0020F8B56023C6
:104EB00014001278050013400020202B12D12F4A35
:104EC0006379277916781B023B439E420AD16378A7
:104ED000222B27D007D8202B17D0212B02D1002935
:104EE0003DD00120F8BD232BFCD100293FD0022961
:104EF000F7D1234B002BF4D0E178A37809020020EE
:104F0000194300E000BF0120ECE7002927D0022967
:104F1000E7D11C4B002BE4D00020911DFDF7A2FE31
:104F20000120DFE7002922D00229DAD101252E0055
:104F3000A378E478013924021C43147126402C32F2
:104F40001000714000F034FB0F4B002BC9D06208F9
:104F5000002031002A4000E000BF0120C2E7072303
:104F600021002800094AFFF72FFD0120BAE72100A0
:104F70002800FFF713FD0120B4E7C046D40A002043
:104F800000000000652C001000000000DA0A00207C
:104F9000F8B545465746DE464E46E0B5464D1F003D
:104FA000EA7880460C00AB788A4246D000208B42DB
:104FB0001AD0F0BCBB46B246A946A046F8BD3F4B4E
:104FC000002B04D0484600F02BF900286CD048464E
:104FD00000F02EF93F2807D94E46103E0020F17808
:104FE000FFF762FC002851D1AB78A34201D0012029
:104FF000DFE7334B002B02D0002000E000BF002091
:10500000FFF72CFE0028F2D12E4C200000F0F8F81B
:105010000028ECD1002FEAD0BF06E8D12C3C404656
:10502000A178FFF741FC0028E1D000230022404690
:10503000A178FFF791FC0120BBE796239B00EE18B7
:1050400010239B46AB4431005846BAB200F00CFA2C
:105050001D4BD946002BB2D06B79FF2BAFD0002F60
:10506000ADD0F219924603E00136B245A7D06B7974
:1050700032789A42F8D1484600F0D2F80028F3D1AD
:105080004B46103B597900E000BFEDE7484600F081
:10509000CFF83F280BD9922292004023F1784A445E
:1050A0000020FFF759FC9FE7FDF746FF8FE7F178F7
:1050B0000020FFF72BFC97E7D40A0020392F0010BF
:1050C00000000000000B00200000000010B50020D0
:1050D000FEF762FD10BDC04610B5FEF757FD10BDCE
:1050E000072210B544790379224012021A43C3788B
:1050F0009B079B0F022B05D0032B15D00020012B03
:1051000008D010BD02291ED0002040239342404108
:10511000C0B2F6E702394B4259410E4B9C466144FE
:1051200091424041C0B2ECE702394B1E99410A4B13
:10513000494219408023DB009C4600206144914293
:105140004041C0B2DDE7054BD01843425841C0B2E0
:10515000D7E7C046FF03000040FCFFFF00FEFFFF53
:10516000F0B5002A11D000247F274D78052D06D1F7
:105170003D008E7835406D00F6094519AB550D7828
:105180002C19A4B24919A242EFD8F0BDF0B5C64619
:1051900000B5150006AA1E001378802204000F0037
:1051A00098461202954229D84069002803D001216F
:1051B000494200F035FDA069002803D00121494291
:1051C00000F02EFD4346A5806D00ADB223726B1E2C
:1051D000A381002360696D42E3812760E6806581D9
:1051E0002382002801D000F003FDA069002801D02F
:1051F00000F0FEFC012080BCB846F0BD0020FAE7BC
:10520000C189028A8B1A9BB2914202D242899B1AAF
:105210009BB28288101C9A4200D9181C80B2704739
:10522000C389008A181A43425841C0B27047C04629
:1052300010B5C489018A8388621A92B28C4202D264
:105240004189521A92B2981A80B210BD70B504000A
:1052500080690E00002803D00121494200F0E0FCE3
:10526000E089228A81B2851A93B2ADB2904202D20D
:105270006289AD1AADB2A288AA422BD2914222D243
:1052800060891018091A89B221829A4203D89B1AA0
:105290009BB29A42FBD9E288216853433000C91877
:1052A000FDF764FB228A0125531C9BB29A4215D953
:1052B00062899B189BB2A0692382002801D000F06C
:1052C00097FC280070BD891AA08989B2884209D349
:1052D00015002182002DDCD1238A9BB2A2899A423B
:1052E000E9D2E5E760891500091A89B22182F1E760
:1052F000F0B54F464646D646050080698846914639
:10530000C0B5002803D00121494200F089FCEA8998
:105310002B8A91B2D61A9CB2B6B29A4202D26B894B
:10532000F61AB6B2AF88B7423DD2B94232D23E0089
:105330006B89FB18CB1A9BB22B822C8AA4B24B46EA
:10534000B1454BD89EB2A74203D8E41BA4B2A742F2
:10535000FBD9EA882968914662433B1B9BB28918B6
:105360004A469E4235D953439BB21A0040469A465C
:10537000FDF7FCFA4B464046F71BE4195C432968ED
:105380005044A2B2FDF7F2FA2A8A93199BB29A42CC
:1053900010D80CE0C91BAB8989B28B4220D33E00E8
:1053A00029822C8AA4B2002EC9D12B8A9BB2AA8949
:1053B0009A4202D26A899B189BB2A8692B82002864
:1053C00001D000F015FC3000E0BCBA46B146A8465A
:1053D000F0BD40467243FDF7C9FAD5E7331CB1E78B
:1053E0006B893E00C91A89B229822C8AA4B2DAE7F5
:1053F00070B5040040690E00002803D00121494225
:1054000000F00EFCE289218A95B2531A9BB29142B8
:1054100002D962899B1A9BB2A2889A4220D02B00A3
:10542000954203D39B1A9BB29A42FBD9E28820682B
:1054300053433100C018FDF799FA6B1C9BB29D4293
:105440000AD962899B189BB26069E381002801D068
:1054500000F0CEFB012070BDA2899A42F4D2F0E7A1
:10546000207A0028DBD1F6E7F8B54E465746DE46EF
:1054700045468946E0B50600171E59D04069002808
:1054800003D00121494200F0CBFBF389327A9BB271
:105490009846318AF388B5889A4689B2002A39D16C
:1054A00043465A1A92B2884502D27189521A92B270
:1054B000AA1A111C92B2BA424ED88FB27A1B93B27A
:1054C0009B464446A84503D3641BA4B2AC42FBD21E
:1054D0005346634330682D1BADB2C018AF4229D884
:1054E000524649467A43FDF741FA4346FB189BB2C0
:1054F000984519D8B2899A4216D37069F381002869
:1055000001D000F075FB3800F0BCBB46B246A9469E
:10551000A046F8BDAF4221D37F1B5F430023B944AF
:1055200088462F009B46CCE772899B189BB2E4E724
:105530000027E8E753465D43ADB22A004946FDF730
:1055400015FA2200534629005A445A43306892B251
:105550004944FDF70BFAC8E7391CAEE77A1B93B252
:105560009B46AEE710B504004069002803D0012136
:10557000494200F055FBA069002803D001214942AF
:1055800000F04EFB0023E3812382A38860695B0067
:105590009BB25A1E5B42A2816381002801D000F0B9
:1055A00027FBA069002801D000F022FB012010BDDC
:1055B00070B5040040690D00002803D00121494264
:1055C00000F02EFBA069002803D00121494200F021
:1055D00027FB60692572002801D000F009FBA06953
:1055E000002801D000F004FB012070BD03BDC046BF
:1055F00010B50400FBF7EAFDA04710BDD022022140
:105600001206136D1942FCD0506540BF7047C0466A
:10561000D0221206136DDB0704D4012120BF136DC5
:105620001942FBD0D0231B06986D7047F0B50400DB
:1056300087B00F200E001700FBF740FB002105008C
:105640000F20FBF729FB0023002200920193012386
:105650000293D02304960594002600240121022001
:1056600003971B06002C14D01A6D1042FCD05C6509
:1056700040BF1A6D114203D120BF1A6D1142FBD0F9
:105680009A6DA2420AD000266C46B200A458E9E7FF
:105690009A6D1A6D1142FBD140BFE5E70136062E27
:1056A000F2D129000F20FBF7F7FA07B0F0BDC04692
:1056B0000D4B0E4A10B5934210D30D4A99181A009B
:1056C0000B4C1051FF20C00013500A4B0A481350D6
:1056D0000A4B0B489A68FFF7A9FF10BD01235B42F4
:1056E0001A000849ECE7C046000804200000042026
:1056F000F4070000F1550010FC07000000ED00E089
:10570000ED550010F3070000F8B5DE4657464E464B
:1057100045468346E0B505200C00FCF725FE060053
:10572000600821008019FCF7D7FF430098468044A9
:10573000070005214046FCF7CFFF3B1A9A46204B55
:105740008146700080199C4234D81E49FCF7C4FF82
:10575000451C5B461C6800230422E3662368012085
:10576000534002321A4080235B0123431A605346A0
:10577000E3614B46236243464F2B03D950214046F9
:10578000FCF7AAFFA023E050E36F22005D408023D6
:105790007C322D045B0113432D0C1D600123390065
:1057A0003000E366FCF798FFF0BCBB46B246A94662
:1057B000A046F8BD0449FCF78FFF451CC9E7C04669
:1057C0003F420F008096980040787D01104A70B5E6
:1057D000821A53425A41072352429A430D4B1032C8
:1057E0001A600D4B0D4C1A601500A3689D432B1ECB
:1057F000FAD166240268FF340571D5661460633CF3
:105800008833FF3CD5639563D450FFF77DFF70BDAF
:10581000CC05002000E0004000F0004000C0004047
:10582000F0B557464E46DE4645468446E0B583B061
:105830001F000CAB18786346914600221B6801904C
:10584000DA6601325960DA66002F4FDD7A1E904623
:105850006246127901269202802493463A0046401D
:10586000760280253700002046461021A246904649
:10587000AD00341A624254414A4664423C400094AE
:105880005C46125C2243009C22431A615A6B11420F
:10589000FCD052469C58002C10D1864221D00022C8
:1058A000013093468045E4D16346019A1A7103B0F2
:1058B000F0BCBB46B246A946A046F0BD5A6D0122D7
:1058C00093465A6B2A42FCD01A6E5A46002AE6D0FA
:1058D000002C03D0E30701D42407E5D40220404282
:1058E000E2E7019A002ADAD19346EAE70020DBE7F3
:1058F000F0B5DE464E4645465746E0B5060009A8D7
:105900000078346880460020E0666160012193469B
:10591000E166002B32DD8022591E52008C469246F1
:105920008025616F1029FCD00021002801D1317938
:10593000890260451CD052461143216102E0A16FEB
:1059400000290DD16159616D0029F8D00220404233
:1059500043463371F0BCBB46B246A946A046F0BDF3
:105960005A462169115401308342F1D03468D8E796
:105970004246012757407A021143DCE70020E7E75F
:10598000F0B54F468146364BD6464B445A425341BA
:1059900080229202944646465B421B0C314A1B040D
:1059A0006344C0B51360304A0D00304913601800DD
:1059B0008A689043FBD10620FCF7D6FC8046802005
:1059C000400002218246EF0D6E02AB0DAA0203E0F9
:1059D000C44509D851453FD00C0094461800023107
:1059E00092197B410028F3D0802627023F1B7600C6
:1059F000B246013E002E31D039004046FCF76CFE25
:105A00003F1B8542F4D25146614336024B461C612E
:105A10001B684A465E40FF231B021E4080235B0139
:105A200013431E60106807225040C83202401A60BB
:105A30004B468022032092012433134318604B46C7
:105A400004331A43022340461360FCF745FEE0BCD2
:105A5000BA46B146A846F0BD0C00C5E72100D5E71F
:105A60000040FCBF00E0004000F0004000C00040EB
:105A700010B5010000230022002000F047F810BDFF
:105A800070B5074C074D641BA41005D0013CA30062
:105A9000EB589847002CF9D100F098F870BDC0463B
:105AA00004060020040600207047C0467047C04628
:105AB00010B583070AD00300032102E001330B4233
:105AC00005D01A78002AF9D1181A10BD03001968F8
:105AD0000C4A0D4C8A188A4322420FD15968094A50
