:020000041000EA
:1000000000B5324B212058609868022188439860DF
:10001000D860186158612E4B002199600221596106
:100020000121F02299502B49196001219960352056
:1000300000F044F80222904214D00621196600F024
:1000400034F8196E01211966002018661A6600F04E
:100050002CF8196E196E196E052000F02FF8012189
:100060000842F9D1002199601B49196000215960AB
:100070001A491B48016001219960EB211966A021F2
:10008000196600F012F800219960164914480160C1
:100090000121996001BC002800D000471248134993
:1000A000086003C880F30888084703B5996A0420EC
:1000B0000142FBD001200142F8D103BD02B5186610
:1000C0001866FFF7F2FF186E186E02BD00000240BE
:1000D000000000180000070000035F00212200005C
:1000E000F4000018222000A00001001008ED00E03C
:1000F00000000000000000000000000074B24E7A12
:1001000000200420F7010010C3010010C5010010F9
:10011000C1010010C1010010C1010010C101001097
:10012000C1010010C1010010C1010010C701001081
:10013000C1010010C1010010C9010010CB01001065
:10014000CD010010CD010010CD010010CD01001037
:10015000CD010010CD010010CD010010CD01001027
:10016000CD010010CD010010CD010010CD01001017
:10017000CD010010CD010010CD010010CD01001007
:10018000CD010010CD010010CD010010CD010010F7
:10019000CD010010CD010010CD010010CD010010E7
:1001A000CD010010CD010010CD010010CD010010D7
:1001B000CD010010CD010010CD010010CD010010C7
:1001C00000BE00BE00BE00BE00BE00BEEFF3058054
:1001D000103800BEF2EB887194370010B837001069
:1001E0003402001090A31AE700201F49086006C8D7
:1001F00081F3088810471D48006800282FD10DA4FE
:100200000ECC002902D000F012F8F9E71849194A7B
:10021000002000E001C19142FCD1174988471749ED
:1002200088471749884700BEFDE701C901C29A42C5
:10023000FBD37047B8370010C0000020BC0300207B
:10024000B43A00100000042000000420B43A00106A
:10025000001004200010042000000000704709482E
:1002600002F0FAF80047000008ED00E0000000D0BE
:10027000C0030020C8070020D12200100106001092
:10028000C52300105756000006005250ABB3605310
:100290000037001006005250861C03021037001071
:1002A000060052505422A29D2037001005005250E3
:1002B000DE65F468B43A0010F8B5C0460648074950
:1002C000091A8B10C90FC91810B5491003D0044B77
:1002D000002B00D0984710BDBC030020BC030020B9
:1002E00000000000054B10B5002B03D00449054861
:1002F00000E000BFFFF7E2FF10BDC04600000000B5
:100300006C0700209836001010B50B4B84B01B789A
:1003100002AA13700123094C00933621200003F038
:1003200031F80023362100932000023303AA03F0A2
:1003300091F804B010BDC046983600107803002034
:10034000D023FF221B06102010B504491A6500F0C7
:100350002BFC0121102000F001FCFEE761030010DE
:1003600010B502F007FFC0B2002804D0D023FF224E
:100370001B061A6510BD16220249034803F074F9E2
:10038000F4E7C046080700200000044070B51B4B8E
:1003900084B01B78002B01D104B070BD184C15231C
:1003A00022000021174803F047F9174B02AA1B78D7
:1003B000164D1370012336210093280002F0E2FF4E
:1003C000002303AE3200362100932800023303F0ED
:1003D00041F8308840BA80B202F0ECFBEE2189058A
:1003E00002F0E1FB02F00EFC094B60751B78002B5C
:1003F000D2D0002002F0B4FECEE7C046C5070020F0
:100400000807002000C003409C360010780300203D
:10041000C802002010B51649164802F089FF0321D2
:10042000162000F083FA0321172000F07FFA002243
:100430000121162000F092FA00220121172000F07D
:100440008DFA182000F028FBD02380221B065204CE
:100450009A6204210122182000F092FA0420064931
:1004600000F0A2FB0121042000F078FB10BDC04683
:10047000A08601007803002009030010F0B50620D3
:1004800083B0D02400F008FB4025FA2024066562E2
:100490004000656101F054F9A5610120002101F0DF
:1004A0003BF96561344D0920002101F035F9280040
:1004B000324903F017F80121002000F037FA102626
:1004C0000121022000F032FA0121072000F02EFA6B
:1004D000042000F0E1FA8723666266612A686946B3
:1004E0005A4048331340264A280013606A461123B5
:1004F000A661137001AA103B03F0BEF86A464323BD
:100500001380A53369469370280001AAE53B03F0E8
:10051000B3F8C820400001F013F96A464123138064
:10052000713369469370280001AAAF3B03F0A4F829
:100530006A46422313808E3369469370280001AACD
:10054000CD3B03F099F820276A465523694613806E
:100550009770032301AA280003F08EF86B466946C2
:100560001E7001AA0123280003F086F8052000F080
:1005700093FA676203B0F0BD00C0034000093D007C
:1005800000D00340E12110B54902064801F060FCAB
:100590000221102000F0CAF90221112000F0C6F952
:1005A00010BDC0460040034010B51149114802F08B
:1005B00099FF01211A2000F0B9F901211B2000F058
:1005C000B5F901211C2000F0B1F9132000F064FA04
:1005D000D02380221B0612035A625A61064B1A6806
:1005E00087235A4048331340044A136010BDC04665
:1005F00000093D000000044000C0034000D003405B
:10060000F0B5DE464E4645465746E0B587B002F0A7
:10061000A9FC3A4802F0FEFDFFF730FFFFF7FAFEB3
:10062000FFF7B0FFFFF7C0FF012204210120344B88
:1006300000F0D0F9102304AC05AD2A00237021008E
:100640000F3B304803F018F8D02320221B065A61D4
:1006500000222D4B2D4E1A702D4B2E4A1B789146A1
:10066000039301232C4A9A4693462C4A9046039BB7
:1006700000272370534622000093362101233000C7
:1006800002F080FE2A00022336213000009702F09B
:10069000E1FE288840BA80B202F08CFA02F0B8FA83
:1006A00000221F4B01F063FF00221E4B01F041FFAF
:1006B00001F06AFF4B4618605B461B7822002370EE
:1006C0005346362100933000012302F05BFE0223E3
:1006D0002A0036213000009702F0BCFE288840BA7C
:1006E00080B202F067FAEE21890502F05CFA434617
:1006F0001860FA20800001F023F8B8E741030010E9
:100700008D03001000C00340C507002078030020BF
:10071000A0360010C00700209C360010A40700205F
:100720000000F43F00408F40D0231B061B687B4A2B
:1007300099005258F0B5574692465A1E93413022BE
:10074000DE464E4645465B421A401300744AE0B509
:10075000944683B063440193724B884608260F2762
:100760009B463500083DEA081300019908339B00B9
:100770005C58002C22D0012399465346002B27D0E9
:1007800039002140274213D05B4642469A584B46D7
:10079000AB401A420CD1072208002A409200904038
:1007A0000200EB0860483C339B001A502800D047F9
:1007B00024090135002C01D0AE42E1D80836282E9C
:1007C000CFD103B0F0BCBB46B246A946A046F0BDAF
:1007D00039002140274206D00133AB4045465148FD
:1007E0004059184276D02309E8D00F221100194051
:1007F0001A420DD04546F31F0E3A9A4049484059D7
:10080000104205D1DB08484A3C3309019B0099504E
:10081000230AD3D00F22110019401A420DD04546A9
:10082000B31F0E3A9A403F484059104205D1DB08A9
:100830003D4A3C3309029B009950230BBED00F2246
:10084000110019401A4236D1230CB7D00F221100E3
:1008500019401A4243D1230DB0D00F221100194084
:100860001A424BD1230EA9D00F22110019401A426F
:100870000DD04546B31E0E3A9A402A4840591042C0
:1008800005D1DB08284A3C3309069B009950240F08
:10089000721E002C00D191E701234046934021496C
:1008A0000958194200D089E7D3083C331E4A24076F
:1008B0009B009C5082E74546731F0E3A9A401948A8
:1008C00040591042C0D1DB08174A3C3309039B0052
:1008D0009950B9E7144B3C329200D15083E745461A
:1008E000331F0E3A9A400F4840591042B3D1DB08EB
:1008F0000D4A3C3309049B009950ACE74546F31E72
:100900000E3A9A40074840591042ABD1DB08064ADC
:100910003C3309059B009950A4E7C046F806002027
:10092000004101409407002000400140094A10B5F1
:1009300094464024830063441A68C00062408034B7
:1009400014408022520113431C60034B9C466044B8
:10095000416010BD04C0014000400140074B8000D1
:100960009C4660440368C90092000A435A400C2325
:100970001A4080235B0103431A60704704C00140A2
:10098000D0231B061B6830B50500584243412F2079
:100990005B4283430D48EC088446072028408000D2
:1009A000814020000A4D3C3063448000A400415146
:1009B0001B19002A04D0802292011343196030BD14
:1009C000C022920113431960F9E7C046304101404B
:1009D00000400140F8B51D00D0231B061C6806002E
:1009E000604244412F20644284432748F7088446EC
:1009F00007203040800081403800244E3C30644461
:100A00008000BF008151E419002A11D08022920198
:100A1000224311601C681E4EA400A359002B15D060
:100A2000002D25D0A55101210D2000F097F8F8BD2B
:100A3000C0229201224311601C68154EA400A359E4
:100A4000002B0CD0002D18D0A551F0E7002DEAD0D6
:100A500000220D200F49A55100F0D0F8E3E7002D4A
:100A6000E5D000220D200B49A55100F0C7F8DEE7C4
:100A70000D20084900F0BCF9D4E70D20054900F02D
:100A8000B7F9A551D3E7C0463041014000400140CD
:100A9000F8060020290700100123D0228340120607
:100AA00093629361094A40219446830063441A6823
:100AB000C0004A4080311140802252011343196026
:100AC000034B9C46052360444360704704C00140CB
:100AD00000400140024B18688007C00F7047C046B5
:100AE00000C0064070B5EFF3108C72B60D4D2B6848
:100AF000002BFCD0BFF35F8F0724CB08C618C05C67
:100B000001230C40A3401C000440034207D11843BA
:100B10003070BFF35F8F2C608CF3108870BD1000B5
:100B200001F054FC2C0100D00021044B044ABFF317
:100B30005F8F02C39342FAD17047C046000100D0D4
:100B4000800100D0044A1078431CDBB2172B00D977
:100B5000102313707047C046C90200200123834050
:100B6000002904D0034A1360034A13607047034A04
:100B70001360FBE780E200E000E100E080E100E0DC
:100B800001228240034B1B6813405A1E9341D8B286
:100B90007047C04600E100E0024B10309B688000C7
:100BA000C058704700ED00E070B50D00EFF31086FF
:100BB00072B60F4A1368002BFCD0BFF35F8F0D4B4A
:100BC00010309B6884001B590B4A934203D09D420E
:100BD00001D001F013FC074B9B681D51BFF35F8FE1
:100BE000BFF35F8F0022024B1A6086F3108870BD3E
:100BF000240100D000ED00E0CD010010F0B5574613
:100C00004E46DE464546E0B585B006000091170029
:100C1000EFF3108B72B66A4A1368002BFCD0BFF357
:100C20005F8F0025674B5D579A46002D00DA8BE0F9
:100C30006B00654C01935B199B009846A146C1442B
:100C40004B4652469B7910361370604BB6009B683A
:100C500099590B1B2F2B33D95D4B994200D0ACE037
:100C6000019B42469C465B4B6544AD0063535A4B27
:100C70000232A218043B9B1A1B05584A5B0D6519EA
:100C800013436B80564B0121AB80FF23AB71009B5C
:100C9000EF71AB604B460B4319004C4B9B6899516D
:100CA000BFF35F8FBFF35F8F0022454B1A608BF35A
:100CB000108805B0F0BCBB46B246A946A046F0BDC0
:100CC00001200A008243D3798C46BB4231D8454685
:100CD000130044491B1B5B415943090D3D4B6353B2
:100CE0003D4B02356519043B5B1B1B053B4D5B0D02
:100CF0002B43AA464D466B800425AC465546E0443E
:100D0000131F44441B1B1B055B0D1D434B46997170
:100D100000999D8099604946DF71334B0143136010
:100D2000BBE75800C01880002018C179B94211D91A
:100D300002000623D356002BF3DA0293131D9A46C2
:100D40002A4B6146039319E001F058FB00255346F6
:100D50005D576DE7908802934005131D9A46031571
:100D600061469C464046D444634604302018181A15
:100D7000E0230005400D1B021843039004235B424F
:100D80009C46E14450464B461B1A1B055B0D9C4696
:100D9000124B957198466346404603439380019BEE
:100DA0005A199200039BA418A380029B0E4AA371B8
:100DB000009B2260E771A3606FE701F01FFB4FE724
:100DC000240100D0C6070020CC02002000ED00E086
:100DD000CD01001000A1FFFFFC02002000E0FFFF9A
:100DE00001BDFFFFAAAA00000148804701BD000025
:100DF000F0B5DE4657464E464546E0B50C0083B09A
:100E0000EFF3108872B65D4A1368002BFCD0BFF375
:100E10005F8F5B4B5B499A68030010339F00D55985
:100E20008D4239D0A5424AD0574EAA1B2F2A33D81B
:100E300001229246824091464846544A1268104028
:100E400001904846524A1060BFF35F8FEFF305826E
:100E50009346002A35D0934201D001F0CFFA2A0000
:100E600053469A439068844208D175E04B005B1862
:100E70009B00F3189868A04234D01A0006215156FE
:100E80000029F3DA844253D0019B002B26D04A4636
:100E9000404B1A603D4B1A60394B9B68DD51BFF3E4
:100EA0005F8FBFF35F8F0022344B1A6088F3108886
:100EB00003B0F0BCBB46B246A946A046F0BD0D004B
:100EC000EAE72A0053469A4390688442D6D1062026
:100ED00010561300002809DA0D0031E04A462C4B69
:100EE0001A60D9E706201856002822DB42001118A4
:100EF000890074188A46A1689960E179D971062140
:100F000061569971002925DBA488F11A640524151E
:100F100054440919E0240905490D2402214399800C
:100F200013181D4A9B001178F31899711070ABE7E4
:100F300013005946002914D1FF319171174991804E
:100F400015490A789A71164A9B1B5B415A43120D48
:100F50000A7099E71349E2E70620105613000028AB
:100F6000C4DA114A1149D21A083A5002400D01431D
:100F700099800F4952080A43DA8085E7240100D09E
:100F800000ED00E0CD010010CC02002000E100E007
:100F900080E100E080E200E0C607002001BDFFFF25
:100FA000AAAA000001BD00000603002000F0FFFF18
:100FB00000F8FFFF70B5EFF3058101240443EFF360
:100FC000108C72B6214A1368002BFCD0BFF35F8FE0
:100FD0001F4B05001F4AED1A6D416A43120D1E4D4D
:100FE0008900AE6852B27658A6421CD006215956E6
:100FF00091421CD012215956914222D01E2159569D
:10100000914220D02A2159560324914210D0134BEB
:1010100019781A708171BFF35F8F00220B4B1A6031
:101020008CF3108870BDAB680D4C5C50EFE700246A
:101030006100091989005B18FF219971094999809C
:10104000E5E70124F4E70224F2E7C046240100D0DA
:10105000CC020020AAAA000000ED00E0C607002094
:10106000CD01001001BDFFFF054B064A1360064A83
:10107000136053609360D360136153619361704751
:101080008080808000E400E004E400E0024B9C46A5
:1010900061448900016070474000003410B50400CD
:1010A000FFF750FD01002000FFF7F0FFFF23237141
:1010B000BFF35F8F10BDC04610B50400FFF742FDBF
:1010C00001002000FFF7E2FFFF23A380BFF35F8F43
:1010D00010BDC04683680B4810B584466144624425
:1010E0001201090159189B185C684A680120944252
:1010F00001D802D00020C0B210BD1A680B689A4215
:10110000F9D8F7E7FFFFFF0F0A4B1968EFF31080DC
:1011100072B60A68002AFCD0BFF35F8F1B68BFF36A
:101120005F8F00221A6080F3108840BF00200021EA
:101130007047C046A0070020F8B5574645464E46C2
:10114000DE46E0B598460CAB1C780DAB1B7807006B
:1011500091469A460568002C5ED1AC7B002C3BD0B2
:10116000660029683619033E89194B78AB73002B4A
:1011700000D1EB7300238B704B700B702D4BE2187A
:10118000BB6812019B184A461A6042465A600A9A86
:101190009A600B9ADA6000238B704B700B706B7B3C
:1011A0009B46002B2BD022005946A8686B689847B5
:1011B0002A68002816D05B4658465B005B449619A7
:1011C000033BB070D118D35C002B00D073705B462A
:1011D0000C706B735C4513D0F0BCBB46B246A9469D
:1011E000A046F8BD5B465B005B44033BD3189C7094
:1011F0009119925D002A00D05A705B460B706C7397
:101200004A464346387D00F0BDFB051E0AD10E9BC1
:10121000002BE1D01D70DFE7660029683619033E18
:101220008919ABE75346002BF1D12100386800F053
:10123000D3FDECE7FFFFFF0FF0B5DE4657464E4605
:1012400045460023E0B58BB00893674B8200D45825
:1012500000239B46099000F035FB02000B006068FC
:10126000EFF3108A72B6564601680029FCD0B246E8
:10127000BFF35F8F21684F7B8C46002F2ED0A5686F
:101280005A49A946791809018944494608684968B4
:1012900005000E00AD1A9E41002E5FDD02000B001E
:1012A000099800F06FFB0023002299460023069264
:1012B0000793002398466368BFF35F8F5A461A600E
:1012C0008AF310884346002B12D10028C3D10BB0FB
:1012D000F0BCBB46B246A946A046F0BD00230022A2
:1012E0009946002306920793002300209846E2E7E0
:1012F000089B494618023843C047626805000E0043
:10130000EFF3108A72B61368002BFCD0BFF35F8F27
:10131000002E40DB2B00334302D02369002B55D134
:101320002368D97B002905D01A6848004118521853
:10133000033A57709A7B002A00D19F73DF73E268EB
:10134000013FD35D0133D3555B4623616368BFF32F
:101350005F8F5A461A608AF310887CE7002E01D10D
:10136000002D9BD10021604600F0B4FC4B461A686A
:101370005B68069207934B469B6898464B46DB6832
:101380009946E368DB19013B1B7808931B02034372
:10139000236100208FE72369002BC1D0069A079BA9
:1013A0008021521BB34109068B4202D30122104B0C
:1013B0005242002104910131039149460191414675
:1013C000200002970091FFF7B7FEBDE700F07AFA20
:1013D0002A00330012184B41802109068B42E8D3C2
:1013E0000122034B5242E4E784070020FFFFFF0F76
:1013F000FFFFFF7F10B5144C6368002B04D00A2157
:101400001248FFF743FE10BD2300114A1021206847
:1014100000F076FB032000F049FA032000F020FBE7
:1014200003200C4900F068FAFFF78CFB0A4B9C463E
:1014300003232375D0231B061B6860446375074B89
:1014400080006060DC60DAE714030020A007002061
:10145000D51000103912001040000034840700201D
:10146000F0B557464E464546DE46E0B585B0019399
:1014700010AB1B780600039300239A46984600920F
:101480007268EFF3108B72B61368002BFCD0BFF3B9
:101490005F8F3568AC7B002C00D16FE067002B6854
:1014A0003F19033FDB195A78AA73002A00D1EA7367
:1014B0004B4AA118B26809015218009801991060AE
:1014C00051600E9991600F99D16042469A705A709E
:1014D0001A706B7B9946002B00D170E022004946C0
:1014E000A8686B6898472A6800285BD04B46484636
:1014F0005B004B44D719033BB870D118D35C002B69
:1015000000D07B704B460C706B734C4558D0F36821
:101510001B19013B18787368BFF35F8F42461A604E
:101520008BF310885346002B08D10002204305B0EE
:10153000F0BCBB46B246A946A046F0BD039B002BBB
:101540004BD00E9B00200F999847030004000D001C
:101550000B4342D000291ADA009A019B121BAB41BF
:101560000092019380221206934204D301231D4C62
:101570005B4200930194039B9A4681E77368BFF333
:101580005F8F1C608BF3108801204042CFE700F092
:1015900099F9802224184D41120600940195954234
:1015A000E9D3E3E74B465B004B44033BD3189C7005
:1015B000D119D25D002A00D05A704B460B706C7363
:1015C000307D009A019B00F0DDF9824600289ED014
:1015D0002100306800F000FC99E70020A7E7C04632
:1015E000FFFFFF0FFFFFFF7FF8B50B00040041680E
:1015F000EFF3108572B60A68002AFCD0BFF35F8F44
:101600002068D9B2427B8A4209D0FF261E40026878
:101610007700BE199219033A9278002A12D0FF2659
:10162000E2681E409219013A1B0A1278DBB29A4214
:101630000DD000206368BFF35F8F00221A6085F32E
:101640001088F8BD21699942F3D12261F1E700F0D9
:10165000C3FBEFE7F0B504000D0006267642F7174E
:10166000C64636196F4100B584B08F4214D811D0E8
:1016700000F028F932003B00121A8B41002B15DCD8
:10168000002B3ED02000290000F026F904B080BCD9
:10169000B846F0BD8642EBD90026002700F012F9CB
:1016A00032003B00121A8B41002BE9DD002302932C
:1016B0000193154B3200009314483B00FFF7D0FE16
:1016C0000028DFDB00239846BC46114A114F7B6A95
:1016D0009C4504D8B96AB142D4D29C45D2D1116894
:1016E000EFF3108072B60B68002BFCD0BFF35F8F56
:1016F0001368BFF35F8F4146196080F3108820BFE5
:10170000E5E7002ABED0D1E709110010140300203C
:10171000A00700200040054070B504000D0000F057
:10172000D1F88023001969411B06994202D3012098
:1017300002494042FFF78EFF70BDC046FFFFFF7FAA
:1017400070B5060000F0BEF8FA2204000D00002378
:1017500030000021920001F0EFF980230019694167
:101760001B06994202D3012002494042FFF772FF53
:1017700070BDC046FFFFFF7F70B5EFF30583050026
:101780000C0084B0002B0AD0164A0020536A9C42F9
:1017900003D8926A0130AA421FD304B070BD124E22
:1017A00002930193114B0200009330000B00FFF7EE
:1017B00057FE011EE8DD20BF3000FFF715FF094B83
:1017C00000205A6A9442E8D89B6A0130AB42E4D2C6
:1017D000A41A631E9C41E0B2DFE7E31A5A1E93414C
:1017E000D8B2DAE7004005401403002009110010C8
:1017F000F0B5EFF30582D6464F4646461000C0B519
:101800001038EFF3108872B6214C2368002BFCD0FF
:10181000BFF35F8F0123190081401E4D1F006963D4
:10182000AA461D4D29601D4D2E78AC463500C54099
:101830002F402B4215D053465F6A194B8500EB5859
:101840009F4218D36246174B8E43EB581670BFF376
:101850005F8F0022226088F31088002B06D0984703
:1018600004E0BFF35F8F276088F31088E0BCBA46BE
:10187000B146A846F0BD0C4B92009C4662441368EA
:101880001360BFF35F8F0023236088F31088EDE7B8
:10189000280100D0004005403C700540C7070020EB
:1018A000A8070020E8060020D03F054010B5034BF4
:1018B00001001800024AFFF715F910BDC407002007
:1018C000A4360010034B596A0A00986A596A8A4282
:1018D000FAD1704700400540064A536A9942FCD845
:1018E00007D1044B02E05A6A914202D19A6A8242BD
:1018F000F9D370470040054070B504000D00EFF3C8
:10190000108672B61A4A1368002BFCD0BFF35F8FA3
:10191000002D1BD02000FFF73FF9164981420AD065
:101920002000FFF741F901212000FFF717F90123FB
:10193000A340114A1360114BA400E550BFF35F8F21
:1019400000220B4B1A6086F3108870BD0121A14064
:101950000A4BA200D5500A4B20001A788A43054949
:101960001A70FFF745FA00212000FFF7F7F8E5E7C6
:10197000280100D0F117001038600540E80600206B
:10198000C7070020F0B54F46D6464646C0B507000B
:101990002E4C616A0D00A66A616AA942FAD18B4297
:1019A00008D805D00120E0BCBA46B146A846F0BD33
:1019B000B242F7D9EFF3108A72B6254801680029C0
:1019C000FCD0BFF35F8F0125BD4022491F4C8846E4
:1019D000097889462943C9B28C4641466046087059
:1019E000391D890065630A511B49B8004350216ABB
:1019F0000020294219D0616A0800A66A616A814202
:101A0000FAD18B4219D801D1B24216D8CC450BD0AD
:101A10000E4B1F221D625D6301233A4093400F4A23
:101A2000136043464A461A700120BFF35F8F0022BD
:101A3000074B1A608AF31088B5E70020BFF35F8F69
:101A40000022034B1A608AF31088ACE7004005407F
:101A5000280100D0C7070020A807002080E200E08E
:101A6000EFF3108C72B60A490B68002BFCD0BFF361
:101A70005F8F01238340074A0748136202789A4325
:101A80000270BFF35F8F00230B608CF310887047E8
:101A9000280100D000400540C707002070B50500B0
:101AA0000E001400002923D0002A12D080686B6831
:101AB0009847296800280ED063001B197200033B69
:101AC0009219CB18033A9E7088188A5C002A11D1AB
:101AD0000470300070BD73009B196200033B121943
:101AE000CB18033A9C7088188A5C002A05D10670CE
:101AF0002000EFE75A700470EBE75A700670F7E7C2
:101B000030B583600023CCB2437301330473426069
:101B10008373C4730D000068012C06D9421C013385
:101B2000DBB2137003329C42F9D1FF2129404B00F4
:101B30005B18C01800230338437030BD70B5050032
:101B40000C1E07D0630001681B19033BCB185A78A1
:101B5000002A01D1200070BD5000801803380918F8
:101B600000204E784870210058702800FFF796FF3B
:101B7000310004002800FFF7E1FF0600002C26D00A
:101B80000028E7D021003200A8686B6898472968D0
:101B900000280ED073009B196200033B1219CB186A
:101BA000033A9C7088188A5C002A00D05A7006702C
:101BB000D0E763001B197200033B9219CB18033A5C
:101BC0009E7088188A5C002A00D05A700470340015
:101BD000C0E7C046F0B557464546DE464E46E0B53E
:101BE0000D006F0001687F19033F0400C85D83B0DA
:101BF0000192CA19002850D043001B18033BCB1890
:101C00005E78B446002E1AD1019E002E42D0E67BAB
:101C1000002E04D073009B19CB18033B5D70A37B8F
:101C2000002B00D1A573E57300282FD1002353703A
:101C300003B0F0BCBB46B246A946A046F0BD720058
:101C40006244033A8A1851788846002151708946C7
:101C50005970320001002000FFF720FF4346824602
:101C6000002B07D05B0021684344033BCB185A7814
:101C7000002A16D1424651462000FFF70FFF216887
:101C8000019BCA19002BC2D10028CFD043001B18DA
:101C9000033BCB1800219970C8E7019B002BB6D1FC
:101CA000C4E750008018033809184878834648462E
:101CB0004870587041462000FFF7F0FE59468046B4
:101CC0002000FFF73BFF414602002000FFF7E6FE41
:101CD0008046CFE7F0B557464546DE464E46E0B56E
:101CE00083B00191457B04006F0000687F19033FBA
:101CF000C15DC219002952D04B005B18033BC318C9
:101D00005E78B446002E1CD1019E002E44D0E67BA6
:101D1000002E04D073009B19C318033B5D70A37B96
:101D2000002B00D1A573E573002931D100232800D1
:101D30005370617303B0F0BCBB46B246A946A046DF
:101D4000F0BD72006244033A821850788046002049
:101D500050708146587032002000FFF79FFE4346C6
:101D60008246002B07D05B0021684344033BCB181D
:101D70005A78002A17D1424651462000FFF78EFEBE
:101D8000019B01002068C219002BC0D10029CDD0D1
:101D90004B005B18033BC31800209870C6E7019BFB
:101DA000002BB4D1C2E750008018033809184878D6
:101DB000834648464870587041462000FFF76EFE43
:101DC000594680462000FFF7B9FE41460200200038
:101DD000FFF764FE8046CEE770B5050000292CD0E1
:101DE000437B8B422ED04C0000686418033C0419DE
:101DF000A278002A21D053009B18033BC25CC6186E
:101E00008A4202D11BE0002A08D053009B18033BF2
:101E1000C3185A788A42F6D162785A700023012298
:101E20002800A3706370FFF7D5FE697B02002800CD
:101E3000FFF734FE6873012000E0002070BD637876
:101E40003370EBE701221900FFF7C4FEF2E7C0464A
:101E5000F8B5040006200D0000F0C4F9002844D0B5
:101E60002A4B2B49E21853425A418023DB039C46FC
:101E70009205284B62441A60274B1A6010008B6849
:101E80009843FBD1214B254AE31859424B4180210D
:101E90005B0049000620995200F0A4F92900C00017
:101EA00000F00CFBC30921D1402701212600802529
:101EB0006162A36200232C36AD0135432B600620FE
:101EC00000F090F93900800000F0F8FA6022E36A2F
:101ED00053400E321A4080235B0133431A60104B8B
:101EE000236310232B600D3BA364F8BD0D4A93427E
:101EF00003D900230C4F0D49D8E77F22024001325D
:101F000052089F011900BF181300CFE70080FCBFE3
:101F100000C0004000E0004000F00040B807002092
:101F200001030000FEFF0000C0FF3F00FFFF0000B4
:101F300010B50C2082B000F0AFF9FEF7CBFD002801
:101F400010D0864B86488649864A1860596098604A
:101F5000D960186159619861D961186259625A62F1
:101F600002B010BD804CA06700F09EF901227F4BAB
:101F70001A60636C012BFCD103227D4B1A607A4AF4
:101F8000936B012BFCD1013301217A4A7A480093EB
:101F9000043300F02DF90523784A00930121784895
:101FA00000F026F9774B5A68FF2A02D880225200A7
:101FB0005A6080226E4B694C12011A602169002917
:101FC00005D0606900F07AFA01300138FDD1E022D5
:101FD0006C4B6D4819680A40026002221968514032
:101FE00001320A40042102609A681142FCD080212B
:101FF000664A09011160802252005A60644B2361D5
:10200000644B5968FF2900D85A6003220121574BBD
:102010001A60604A93681942FCD0E02310680340BC
:102020005D480360126803234A4002211340594A65
:10203000036093681942FCD08021584B0901196054
:102040008021574B490051606361564B5A68FF2A03
:1020500000D859608022544B12011A60E1690029AE
:1020600005D0606900F02AFA01300138FDD1E02383
:102070004C4A11680B404D490B6080214C4B0901C3
:1020800019608021364B49005160E361494B5A6821
:10209000FF2A00D859608022474B12011A60216A3A
:1020A000002905D0606900F009FA01300138FDD13E
:1020B000E023404A11680B4040490B608021404BAF
:1020C0000901196080235B0053608022244BD202F7
:1020D00023623C4B5968914200D25A6080223A4BAD
:1020E00012011A60616A002905D0606900F0E6F902
:1020F00001300138FDD1E023324A11680B403349E9
:102100000B608021324B090119608023DB02536090
:10211000144B63622F4B5A68FF2A02D88022520068
:102120005A6080222C4B12011A60A169002905D047
:10213000606900F0C3F901300138FDD1E023254A80
:1021400011680B4025490B608021254B090119605E
:1021500080235B005360124BA36101E7C0030020A2
:10216000006CDC021BB70000008000403CB0004067
:1021700030B00040002F685900800240008C864734
:1021800000C00240308000403090004030A000404D
:10219000001BB7003C8000403C9000403CA0004049
:1021A000405973075480004054B0004054900040A0
:1021B00054A000406080004060B00040609000404B
:1021C00060A000406C8000406CB000406C9000400B
:1021D0006CA000404880004048B00040489000405B
:1021E00048A00040014B8000C0587047C003002049
:1021F000F8B504000C2017001D000E0000F05EF979
:1022000043011B1A9901C91AC9000918890138002C
:1022100000F054F9069B29041B0319432368002B83
:1022200020DB194B194DE3185A42534180225201C9
:1022300094461B03164A63441360164A13601F003A
:10224000AA689743FBD1C023221D9B01134321227F
:102250002660A0601A602268002AFCDA0822E16089
:102260001A60F8BD3F2322681340B342D9D1A36856
:102270001B051B0D8342D4D1EE22E368D20213402A
:102280008B42CED1EDE7C0460040FDBF00C000400C
:1022900000E0004000F000408023024A9B0003431E
:1022A000D362704700800540AA23064A1B011360D1
:1022B0002F230549D360054B19605368002BFCDAC6
:1022C0007047C0460040024000B0FA000060024083
:1022D0002C4B2D4A70B51A602C4A2D4B2D491A6093
:1022E00014008B689C43FBD12B4D2C4EB54208D279
:1022F000013E761BB60808CD984723000134B3424F
:10230000F9D1FFF715FE264A214B1A60214A93683E
:10231000DB43DB01DD09002BF9D14022214B224CAC
:10232000224E9A675A671A67DA66B44208D223685F
:102330002000002B20D00834FEF7BEFEB442F6D3B6
:102340001B4C1C4EC022B168200000F0D3FCB460CE
:10235000FEF7EAFBFEF788FEFFF74CF8164C174E27
:10236000B44208D2013E361BB60808CC98472B0071
:1023700001359E42F9D170BD0834FEF78FFEB4429C
:10238000D5D3DDE700E00040BFCDFBFEFE7F3C0083
:1023900000F0004000C00040A8030020B803002067
:1023A000FFFFFF0100F0014088030020A803002088
:1023B0000000002000ED00E0B8030020BC03002076
:1023C00000BEFDE710B5FFF7FBFFC0460FB400B538
:1023D000084883B000F03EFD049B002B07D005A900
:1023E0001800019100F018F8034800F033FD0120B7
:1023F000FFF7E6FFC8360010D836001010B50148C8
:10240000FFF7E4FFDC36001010B5002800D110BD46
:1024100000F0D4FCFBE7C04610B5094A030014687D
:1024200084B0002C08D0012200910648524203A932
:10243000A047012004B010BD00F00CFD0020F9E71A
:10244000680700200924001001480421014B1847A7
:102450004003002079240010142310B501001888CF
:1024600004331B88984710BD162310B50100188847
:1024700002331B88984710BDF8B54746CE4680B555
:102480000F1E19D014239946043304000025012699
:1024900098464B461888434621681B88984701C4D4
:1024A000431E9841013540420640AF42F1D1300011
:1024B000C0BCB946B046F8BD0126F8E7114A936F93
:1024C0009B0813D210665166002905D0FFE7FFE78D
:1024D000FFE7516F106F704704B5002801D000204E
:1024E000C04301F0B9F8002104BDC046F0B5146E38
:1024F000556E576F166FFFF7E5FF14665566576701
:102500001667F0BD000000D048404140484018B474
:102510001B4B5B68FC46019308BD04DF6B26001073
:1025200018B4174B1B68FC46019308BD00DF7526E5
:1025300000109446134A926F920809D2624618B46A
:102540000F4BDB68FC46019308BD0CDF2D29001002
:102550000C4AF0B5146E556E576F166F6246FFF752
:10256000EEFF084A1466556657671667F0BD18B443
:10257000034B9B68FC46019308BD08DFD127001080
:10258000E8040020000000D018B4044BDB6FFC46C8
:10259000019308BD7CDFDD2A00100000E804002064
:1025A000132370B51D78012D15D010DD1D48FFF7E0
:1025B0005BFF1D4C01008022200000F09BFB022DE0
:1025C0002DD01A48FFF748FF194B186070BD194B02
:1025D000154CA364F5E7174B134C23606360A360AD
:1025E000E36023616361A361E36123626362A362C9
:1025F000E36223636363A363E36323646364A364A9
:10260000E36423656365A365E36523666366A36688
:10261000E36623676367A367E367A364D1E7054BBA
:10262000A364CEE753440000E80400204C330000CC
:102630009C0700203926001007B5604601880A0A69
:102640000230DF2AFAD1C9B2820804D30288408856
:102650000004104300E00068014A5050039007BD99
:10266000E80400200FB403BC0CBCF0B50124E4075F
:10267000634000E0F0B50C0DCF0F661E3605891BD8
:10268000640503D3C943404200D30131640D03D034
:10269000661CF60A07D0E41B00207F00791C89071E
:1026A0008912803C24031D0DDF0F6E1E36059B1B17
:1026B0006D0503D3DB43524200D301336D0D03D0CC
:1026C0006E1CF60A07D0ED1B00227F007B1C9B07C7
:1026D0009B12803D2D032F1B661B58D4A446202E31
:1026E00046DA20371400BC401D00BD40F2403341A3
:1026F0002A4380185941CB0F05D0C943C04300225B
:1027000064425041514162464D0D28D10D0D07D113
:1027100000281FD0241940414941013A0D0DF9D03C
:10272000640006D3013000D30131002C01D14008F0
:102730004000013A0BD4941CE40A04D11205114460
:10274000DB071944F0BDD907204B194300E0D90736
:102750000020F0BD0029DDD1002CDBD1F0BD01321D
:10276000C6074008CD0728434908002EE1D0D9E725
:102770003C2E29DA203E40371400BC4000D0012412
:10278000F24014431A00BB401C43D317ACE7AC46DD
:10279000202F08DA20360400B4400D00B540F84080
:1027A00039412843A5E73C2F0CDA203F403604008E
:1027B000B44000D00124F84004430800B1400C4369
:1027C000C117EAE710001900002494E70000F07F29
:1027D000F0B50C0D661E3605891BE60A6405640D0E
:1027E00002D0651CED0A04D0002001210905803CBF
:1027F0002403A4461C0D671E3F05DB1BE70A640586
:10280000640D02D0651CED0A04D0002201231B05D3
:10281000803C24037740644497B484B296B27443F6
:10282000070C7E43150C6F4380B26843361802D301
:10283000012000043F183004350C00197D41844606
:1028400088B29AB250430C0C62431F0C7C438EB288
:102850007E43921902D301263604A4191604170CDC
:102860003618674101BC81B29AB25143040C6243ED
:102870001B0C5C4380B25843121802D301200004A1
:1028800024181004130C401863412D185E410020D9
:10289000474106BC88B293B258430C0C6343120CF8
:1028A000544389B251435B1802D3012109046418CF
:1028B00019041A0C091862416D185641002047414D
:1028C00018BCF902720D1143F0026A0D1043ED02BB
:1028D0000A0D03D16D1940414941013B124E9B1B2A
:1028E0007600B3420ED26D0007D30130002671414D
:1028F0006646354301D1400840001B05C918E4076E
:102900002144F0BD0BDA013306D1013004D101318D
:102910004F0D01D04908F2E7E1070020F0BD013674
:1029200031050020EBE70000FF030000F0B51C0DAF
:10293000671E3F05DB1BE70A6405640D02D0661CB9
:10294000F60A04D0002201231B05803C2403D02575
:102950002D060026F6432E661E096E66CE0FF6196A
:10296000B44649004F0D02D07E1CF60A03D0002069
:102970000021403F3F033E1BB600B444013F7F05AA
:10298000C91B49082E6F013676089C02950D254318
:102990007543ED137543AD1301356D10F603761BCA
:1029A0000CB4CC02450D2C43A2B2B3B25A43270C4F
:1029B0007B43350C6F43A4B26C431B1902D3012433
:1029C00024043F191C041D0CA4187D4124196D41D9
:1029D000009A91B2ACB26143170C7C432B0C5F435D
:1029E00092B25A43A41802D301221204BF1822043F
:1029F000230C52187B41019C6C431B19520ED901C8
:102A00000A434401A01A81B2B2B2514303145A439B
:102A1000360C734387B27743D617D21900277E410D
:102A200036049B191704160C7F185E417316ED18B7
:102A3000F301002680337541A90F06D16400690AAD
:102A4000E8055B0A184309D22FE00422944480333E
:102A50007541A90AA8059B0A184326D3404149415C
:102A60002404009A019B0D005543641B4343E41A60
:102A700095B286B27543170C7E43030C5F4392B246
:102A80005A43B61802D301221204BF183204330C81
:102A900052197B4152429C41002C02D40022013049
:102AA00051414008CA071043490802B06246D7079F
:102AB0009210084BD218084B9A4203D2120589187B
:102AC000C919F0BD0020002A01DC3900F0BD013336
:102AD0001905F5E7FD030000FE0700004A00520D4E
:102AE000144BD21A13DDFF2A1EDAD205CB0FDB07F7
:102AF0001A43C300400F0903490A084310435B000F
:102B000001D301D0013070474308FBD2704702D097
:102B1000C80FC00770470A0312130132F8D1420FE1
:102B2000072AF5D1012200E0FF22C80F0002801819
:102B3000C00570478003000051434343C9188C46C9
:102B4000110C83B24B4310B4040C614392B280B2B7
:102B5000504362431C041B0C001910BC5941130460
:102B6000120CC01851416144704700004840414078
:102B700048400E4B5B6818470C4B1B6818470C4AC3
:102B8000936F9B0802D2094BDB681847F0B5146EAF
:102B9000556E576F166FFFF7F6FF054A14665566B8
:102BA00057671667F0BD014B9B681847E805002082
:102BB000000000D0491A002808D1084670470000DC
:102BC000C10FC90700D54042002817D0F44603B40E
:102BD0000B4B1B68984706BC81409E3840428031B1
:102BE00007D20B0607D04900490AC0051043084325
:102BF00060470130F8E7490A8902F5E770470000AD
:102C00009C070020014B5B6A18470000E805002084
:102C1000034BDB6FFC4618477CDFB52C001000002F
:102C2000E8050020132310B512481C78FFF71CFCA0
:102C30000100012C0AD003DD80220F4800F05AF871
:102C40000E48FFF709FC0E4B186010BD0A4C5422C9
:102C5000200000F04FF80B4B6365A365E365236626
:102C60006366A366E36623676367A367E36723621C
:102C7000E361E5E753460000E80500204C3300001F
:102C80009C070020892C001007B5604601880A0ABD
:102C90000230DF2AFAD1C9B2820804D30288408800
:102CA0000004104300E00068014A5050039007BD43
:102CB000E8050020C30FDB0741000A0E07D0FF2AFA
:102CC00008D00909054A89181943400770471900B7
:102CD000002070470249C918FAE7000000000038D8
:102CE0000000F07F01480421014B184750030020E9
:102CF00079240010014B5B68184700005003002046
:102D0000F0B546464F46D646C0B5437D80460E00D8
:102D10001700002B4BD0002A32DD274B01259A46A5
:102D20004B1E00240020994607E0335D0A2B2CD06F
:102D30002B0001340135BB4213DA002CF5D1337876
:102D40000A2BF5D143461B7D002BF1D1434650465B
:102D500002211B68984728002B0001340135BB4233
:102D6000EBDB874204DD4346391A1B68301898476D
:102D7000F619013E33780D3B5A42534142461375D2
:102D8000E0BCBA46B146A846F0BD4B461B5D0D2BD4
:102D9000CED0A042DADA4346211A1B683018984791
:102DA0004346504602211B6898472800D4E7036831
:102DB000110030009847E3E750370010F0B5CE46D9
:102DC000474680B583B06B460600DD1D2870FEF7D0
:102DD00079FD00231A4A12184B41802109068B42C3
:102DE00002D30122174B524217490800884600F0CF
:102DF0004BFC164B81461C68002C14D0144F02E08B
:102E00002469002C0FD02368002BF9D03B68002BDD
:102E100001D0A342F4D1200001222900FFF770FF66
:102E20002469002CEFD14B46002B05D1300003B0B4
:102E3000C0BCB946B046F0BD404600F005FCF5E721
:102E400040420F00FFFFFF7F90030020600700203B
:102E500064070020F0B5DE4657464E464546E0B5CD
:102E600085B0070000F0B6FB0600FEF72BFD00233F
:102E70002B4A12184B41802109068B4202D30122B2
:102E8000284B5242284908008B4600F0FDFB274B97
:102E900001901C689A46002C3BD0254B984602AB0B
:102EA000DD1D0A23994602E02469002C17D023680F
:102EB000002BF9D043461B68002B01D0A342F3D16D
:102EC000200032003900FFF71BFF4B462000012293
:102ED00029002B70FFF714FF2469002CE7D1019B18
:102EE000002B18D153461C68002C06D06368002BB9
:102EF0000BD098472469002CF8D1300005B0F0BC05
:102F0000BB46B246A946A046F0BD2469002CEDD1CF
:102F1000F3E70028F1D0584600F096FBE2E7C04600
:102F200040420F00FFFFFF7F90030020600700205A
:102F3000640700200A4A1368002B05D10CE01A0030
:102F40001B691032002B07D09842F8D1002902D11A
:102F500003691360016170470029FCD01060FAE733
:102F60006007002010B500F0CFF8012010BDC0466A
:102F7000F0B5002915DD0E4B0D271A680D4B0E4CD0
:102F8000D3185D426B41451820215B001E5F047819
:102F9000A64207D093691942FCD101301460A842BF
:102FA000F5D1F0BD93691942FCD11760F2E7C04634
:102FB000BC0700200080FCBFB807002030B504002B
:102FC0000D1E30DD00201021204B013C1A68936952
:102FD000194217D1013093691942FCD11368235467
:102FE0008542F4D11A4B1B68002B09D0502338219D
:102FF0009363536B3432194080235B011343196090
:1030000028000FE0124B1B68002B09D050233821F9
:103010009363536B3432194080235B011A43116070
:10302000002810D030BD0A4B1B68002B0BD050225B
:103030003821064B1B689A635A6B34331140802247
:1030400052011343196003204042EBE7BC07002004
:1030500000070020064B10B51B68002B06D000218E
:10306000044A12689163044A1068984710BDC0462C
:1030700000070020BC070020040700201D4BF0B50E
:103080001A68C64698461C4B0E00D31859424B414D
:103090001A4F14331C00050000B53B68002807D008
:1030A000002B11D0164B3D601E6080BCB846F0BDB1
:1030B000002BF7D0906300212000FDF74FFD20008A
:1030C0001049FDF795FEEDE720000E49FDF76CFD78
:1030D00001212000FDF742FD4346502238211B68A4
:1030E0009A635A6B343311408022520113431960A2
:1030F000D8E7C046BC0700200080FCBF00070020C6
:10310000040700205530001010B50C4B0C4C1B78F8
:103110000C4B02211B780C4B00202360FDF706FCB2
:1031200002210120FDF702FCE12120684902FEF79F
:103130008FFE01210548FFF7FDFE10BDB4370010DA
:10314000BC070020B037001000400340600300209F
:1031500003BDC04610B50400FDF786FFA04710BDB3
:10316000D02202211206136D1942FCD0506540BFD7
:103170007047C046D0221206136DDB0704D401212C
:1031800020BF136D1942FBD0D0231B06986D7047EA
:10319000F0B5040087B00F200E001700FDF7F0FC1B
:1031A000002105000F20FDF7D9FC0023002200922A
:1031B000019301230293D023049605940026002452
:1031C0000121022003971B06002C14D01A6D104217
:1031D000FCD05C6540BF1A6D114203D120BF1A6D4F
:1031E0001142FBD09A6DA2420AD000266C46B20072
:1031F000A458E9E79A6D1A6D1142FBD140BFE5E78B
:103200000136062EF2D129000F20FDF7A7FC07B0EA
:10321000F0BDC0460D4B0E4A10B5934210D30D4A77
:1032200099181A000B4C1051FF20C00013500A4B84
:103230000A4813500A4B0B489A68FFF7A9FF10BDC4
:1032400001235B421A000849ECE7C046000804204D
:1032500000000420F407000055310010FC070000B6
:1032600000ED00E051310010F3070000F8B5DE4634
:1032700057464E4645468346E0B505200C00FEF70E
:10328000B1FF0600600821008019FFF717F943001D
:1032900098468044070005214046FFF70FF93B1A86
:1032A0009A46204B8146700080199C4234D81E49B2
:1032B000FFF704F9451C5B461C6800230422E36603
:1032C00023680120534002321A4080235B012343CC
:1032D0001A605346E3614B46236243464F2B03D9A2
:1032E00050214046FFF7EAF8A023E050E36F2200A8
:1032F0005D4080237C322D045B0113432D0C1D6047
:10330000012339003000E366FFF7D8F8F0BCBB4674
:10331000B246A946A046F8BD0449FFF7CFF8451CC0
:10332000C9E7C0463F420F008096980040787D0173
:10333000104A70B5821A53425A41072352429A43A7
:103340000D4B10321A600D4B0D4C1A601500A3681E
:103350009D432B1EFAD166240268FF340571D566A1
:103360001460633C8833FF3CD5639563D450FFF70A
:103370007DFF70BD8003002000E0004000F00040B1
:1033800000C00040F0B557464E46DE4645468446EE
:10339000E0B583B01F000CAB18786346914600225D
:1033A0001B680190DA6601325960DA66002F4FDD42
:1033B0007A1E904662461279012692028024934634
:1033C0003A0046407602802537000020464610210C
:1033D000A2469046AD00341A624254414A466442C5
:1033E0003C4000945C46125C2243009C22431A61DC
:1033F0005A6B1142FCD052469C58002C10D1864288
:1034000021D00022013093468045E4D16346019AE1
:103410001A7103B0F0BCBB46B246A946A046F0BD47
:103420005A6D012293465A6B2A42FCD01A6E5A46B4
:10343000002AE6D0002C03D0E30701D42407E5D40A
:1034400002204042E2E7019A002ADAD19346EAE7F5
:103450000020DBE7F0B5DE464E4645465746E0B570
:10346000060009A80078346880460020E0666160A4
:1034700001219346E166002B32DD8022591E520065
:103480008C4692468025616F1029FCD000210028CF
:1034900001D13179890260451CD052461143216126
:1034A00002E0A16F00290DD16159616D0029F8D0AA
:1034B0000220404243463371F0BCBB46B246A946A7
:1034C000A046F0BD5A462169115401308342F1D023
:1034D0003468D8E74246012757407A021143DCE7B7
:1034E0000020E7E7F0B54F468146364BD6464B44C1
:1034F0005A42534180229202944646465B421B0C3C
:10350000314A1B046344C0B51360304A0D00304992
:10351000136018008A689043FBD10620FEF762FE14
:1035200080468020400002218246EF0D6E02AB0DE6
:10353000AA0203E0C44509D851453FD00C00944687
:103540001800023192197B410028F3D0802627020F
:103550003F1B7600B246013E002E31D03900404676
:10356000FEF7ACFF3F1B8542F4D251466143360261
:103570004B461C611B684A465E40FF231B021E40EF
:1035800080235B0113431E60106807225040C8323D
:1035900002401A604B4680220320920124331343D9
:1035A00018604B4604331A43022340461360FEF76B
:1035B00085FFE0BCBA46B146A846F0BD0C00C5E7A1
:1035C0002100D5E70040FCBF00E0004000F00040D3
:1035D00000C0004010B583070AD00300032102E0B9
:1035E00001330B4205D01A78002AF9D1181A10BD00
:1035F000030019680C4A0D4C8A188A4322420FD1E5
:103600005968094A04338A188A43224208D1596802
:10361000054A04338A188A432242F1D000E001337C
:103620001A78002AFBD1E1E7FFFEFEFE8080808051
:10363000F8B5C0460000000001B40248844601BC51
:10364000604700BF4902002001B40248844601BC23
:10365000604700BF5D01002001B40248844601BC00
:10366000604700BFB102002001B40248844601BC9B
:10367000604700BFFD01002001B40248844601BC40
:10368000604700BF8501002001B40248844601BCA8
:08369000604700BFC1000020EB
:103698001A00000004000000020000004861726483
:1036A8007761726520616C61726D20256420616CA0
:1036B800726561647920636C61696D6564000000FE
:1036C8000A2A2A2A2050414E4943202A2A2A0A0037
:1036D8000A000000486172642061737365727400A7
:1036E80052656C6561736500626F6F74325F773223
:1036F8003571303830000000312E352E3000000092
:103708007069636F0000000054616C6F6E466972E7
:103718006D776172650000004D617220313720328B
:103728003032330006005250D3F07542E8360010AC
:1037380006005250E182887FF03600100600525091
:10374800BBFF3CB6083700100D0A00005541525423
:1037580020737464696E0000554152542073746478
:103768006F7574005541525420737464696E202F2C
:10377800207374646F7574000600525053B4F4A13A
:0C3788006C370010080052509200000046
:103794002C3700103837001088020010443700100E
:1037A40094020010A0020010AC0200108C3700102C
:0437B400803700104A
:1037B800F0B5C646150000B504001E000268EFF318
:1037C800108172B61368002BFCD0BFF35F8F0423FF
:1037D800E356002B2DDB2268BFF35F8F00201060BB
:1037E80081F31088D0221206127852B290469A427B
:1037F80003D1002080BCB846F0BD00270BE0236849
:10380800BFF35F8F1F6081F310882800310000F03C
:10381800CBF80028EDD12268EFF3108172B6136857
:10382800002BFCD0BFF35F8F23797F2BE7D943466A
:1038380002E0D0231B061B6823712368BFF35F8F48
:1038480000221A6081F310880120D3E70268EFF3A1
:10385800108172B61368002BFCD0BFF35F8FFF2373
:1038680003710368BFF35F8F00221A6081F3108829
:1038780040BF7047F0B5CE46474606001D00180009
:103888001C008946042380B5002804D111E02F00CC
:103898002743002F0DD0002D0FD1002C09D0F76839
:1038A8003B42F4D0B768013C1770270001322F4320
:1038B800EFE7C0BCB946B046F0BD02218C460631E0
:1038C8008846A8446146F76839420CD0A0450AD911
:1038D80049460F7801218C46013DB760E1442F002D
:1038E800002CD6D0DBE7002CECD0D8E730B50400AC
:1038F800101E0AD00A000D180221E3681942FCD0F4
:1039080013780132A3609542F7D1E3685B0704D5C9
:103918000421A368E3681942FBD11021E368194226
:10392800FCD1E3685B0704D50421A368E368194266
:10393800FBD10123236230BDF0B58C4606001D0083
:1039480018001C000221042300280AD0002D0DD1E4
:10395800002C06D0F7683B4214D12F002743002FD4
:10396800F4D1F0BD002CF5D1002DFAD0F76839421A
:10397800F8D02F000837A7420BD8002CF6D0F768EC
:103988003B42EAD0B768013C1770270001322F4349
:10399800E5E76746013DB7602F00002CDFD0D9E787
:1039A8007047C0460000000001B40248844601BCCC
:1039B800604700BF791700100110000000000000E8
:1039C80000000100000000000000000000000200EC
:1039D80000000000000000000000030000000000DC
:1039E800000000000000FF000000000001B548686A
:1039F80001318E460047704609380149884701BDA4
:103A0800B50F00102C03002000000000E803002080
:103A18002007002000000000000000003007002000
:103A2800000000000000000010000000000000007E
:103A3800503300004C330000543300005233000070
:103A48004D5300004D430000533400004334000040
:103A5800712F001000000000BD2F00107D300010F5
:103A68000000000000010000008004400000000089
:103A780000400440000000000000000000000000BA
:103A8800000000000000000000000000000000002E
:103A98000000000000000000E52C00104924001080
:0C3AA800A1250010252C0010E5020010E4
:04000005100001E9FD
:00000001FF
