:020000041000EA
:1000000000B5324B212058609868022188439860DF
:10001000D860186158612E4B002199600221596106
:100020000121F02299502B49196001219960352056
:1000300000F044F80222904214D00621196600F024
:1000400034F8196E01211966002018661A6600F04E
:100050002CF8196E196E196E052000F02FF8012189
:100060000842F9D1002199601B49196000215960AB
:100070001A491B48016001219960EB211966A021F2
:10008000196600F012F800219960164914480160C1
:100090000121996001BC002800D000471248134993
:1000A000086003C880F30888084703B5996A0420EC
:1000B0000142FBD001200142F8D103BD02B5186610
:1000C0001866FFF7F2FF186E186E02BD00000240BE
:1000D000000000180000070000035F00212200005C
:1000E000F4000018222000A00001001008ED00E03C
:1000F00000000000000000000000000074B24E7A12
:1001000000200420F7010010C3010010C5010010F9
:10011000C1010010C1010010C1010010C101001097
:10012000C1010010C1010010C1010010C701001081
:10013000C1010010C1010010C9010010CB01001065
:10014000CD010010CD010010CD010010CD01001037
:10015000CD010010CD010010CD010010CD01001027
:10016000CD010010CD010010CD010010CD01001017
:10017000CD010010CD010010CD010010CD01001007
:10018000CD010010CD010010CD010010CD010010F7
:10019000CD010010CD010010CD010010CD010010E7
:1001A000CD010010CD010010CD010010CD010010D7
:1001B000CD010010CD010010CD010010CD010010C7
:1001C00000BE00BE00BE00BE00BE00BEEFF3058054
:1001D000103800BEF2EB88712C7E00104C7E0010AF
:1001E0003402001090A31AE700201F49086006C8D7
:1001F00081F3088810471D48006800282FD10DA4FE
:100200000ECC002902D000F012F8F9E71849194A7B
:10021000002000E001C19142FCD1174988471749ED
:1002200088471749884700BEFDE701C901C29A42C5
:10023000FBD370474C7E0010C00000202810002027
:10024000B48D00100000042000000420B48D0010C4
:10025000001004200010042000000000704709482E
:1002600003F0A2FD0047000008ED00E0000000D010
:1002700028100020E41D00202D2600107907001012
:10028000212700105756000006005250ABB36053B0
:10029000E87B001006005250861C0302F87B001019
:1002A000060052505422A29D087C001005005250B6
:1002B000DE65F468B48D0010F8B5C04606480749FD
:1002C000091A8B10C90FC91810B5491003D0044B77
:1002D000002B00D0984710BD2810002028100020C7
:1002E00000000000054B10B5002B03D00449054861
:1002F00000E000BFFFF7E2FF10BDC04600000000B5
:10030000581D00203879001010B50B4B84B01B78B5
:1003100002AA13700123094C00933621200007F034
:100320003BF90023362100932000023303AA07F093
:100330009BF904B010BDC04638790010F00F0020C2
:10034000D023FF221B06102010B504491A6500F0C7
:1003500057FD0121102000F00FFDFEE7E104001021
:1003600070B51C4B84B01A78002A03D101321A7080
:1003700004B070BD184C152322000021174807F067
:100380006BFA174B02AA1B78164D13700123362106
:100390000093280007F000F9002303AE3200362155
:1003A00000932800023307F05FF9308840BA80B22A
:1003B00004F0E4FBEE21890504F0D9FB04F006FC0F
:1003C000094B60751B78002BD2D0002006F0D2FFBD
:1003D000CEE7C046DC1D0020C018002000C003404E
:1003E0003C790010F00F0020180F002010B51649BE
:1003F000164807F0A7F80321162000F045FB03215B
:10040000172000F041FB00220121162000F054FBD0
:1004100000220121172000F04FFB182000F0EAFB1A
:10042000D02380221B0652049A6204210122182044
:1004300000F054FB0420064900F0E2FC01210420F6
:1004400000F09AFC10BDC046A0860100F00F00200D
:1004500009030010F8B51C4C1C4D26001C4F123629
:1004600018E004F08BFB04F0B7FB0022194B03F0FB
:1004700060FFFA2300229B0503F05BFF04F00AF8FB
:1004800004F0AAFB033402000B00280004F0F0FD86
:10049000A64211D023786278A0781B04120213437D
:1004A0001843DB0DDDD07840013004F067FB80237A
:1004B0001B069C466044D6E7074908488B784A7873
:1004C000097804F0D5FDF8BDC31800204479001068
:1004D000FFFFFF0000001240C01800204879001004
:1004E00010B506F051FFC0B2002806D0FFF7B2FFEA
:1004F000D023FF221B061A6510BD162202490348AD
:1005000007F0EAF9F2E7C046C018002000000440F6
:10051000F0B5C64600B5062082B0D02500F06AFBD3
:100520004024FA202D066C6240006C6101F068FAEC
:10053000AC610120002101F04FFA6C616C4C092084
:10054000002101F049FA20006A4907F0D5F801219D
:10055000002000F099FA0121022000F095FA012113
:10056000072000F091FA042000F044FB10238722BA
:100570006B62AB6121682000514048320A405E49FD
:1005800043270A606A46AB6101336946137001AACA
:10059000103B07F0A9F96B466A461F80C0236946E5
:1005A0009370200001AABD3B07F09EF9FA2080005D
:1005B00001F026FA6A46412313804333694693705B
:1005C000200001AA813B07F08FF900266A464223EA
:1005D000694613809670032301AA200007F084F96E
:1005E0006B461F80BC3769469F7001AA0323200019
:1005F00007F07AF96A4655231380353B98466B46D7
:10060000424669469A70200001AA032307F06CF95C
:100610006A464D23694613809770032301AA200080
:1006200007F062F96A4645236946138096700323F2
:1006300001AA200007F058F96A464623694613804C
:100640009670032301AA200007F04EF96A4647235B
:10065000694613809670032301AA200007F044F92D
:100660006A464823694613809670032301AA200036
:1006700007F03AF96A4649236946138096700323C6
:1006800001AA200007F030F96A464A236946138020
:100690009670032301AA200007F026F96A46442336
:1006A0001380313B69469370200001AA103B07F08C
:1006B0001BF96A4657231380553B69469370200007
:1006C00001AA013307F010F96A464F2369461380E7
:1006D0009770032301AA200007F006F9052000F017
:1006E00089FA43466B6202B080BCB846F0BDC04692
:1006F00000C0034000093D0000D00340E12110B5D7
:100700004902064801F004FD0221102000F0BCF966
:100710000221112000F0B8F910BDC046004003408E
:1007200010B51149114806F0E7FF01211A2000F029
:10073000ABF901211B2000F0A7F901211C2000F0DA
:10074000A3F9132000F056FAD02380221B061203CF
:100750005A625A61064B1A6887235A40483313403D
:10076000044A136010BDC04600093D00000004406B
:1007700000C0034000D00340F0B5DE464E4645467B
:100780005746E0B5102687B004F07EFC344806F0EA
:100790004BFE04ACFFF7BCFE05ADFFF727FEFFF7ED
:1007A000ADFFFFF7BDFF0122042101202D4B00F01A
:1007B000BFF901232A0021002B48267007F094F886
:1007C000D0222023002112065361284B1970284B98
:1007D00096619B46274B284E9A46284B0393284BFD
:1007E0009946012398465B461B78002723704346B1
:1007F0002200009336210123300006F0CDFE2A00AE
:10080000022336213000009706F02EFF288840BAD8
:1008100080B204F0B3F953461860039B22001B78A2
:1008200036212370434630000093012306F0B4FEC6
:1008300002232A0036213000009706F015FF288891
:1008400040BA80B204F09AF9EE21890504F08FF9DC
:100850004B461860FA20800001F0D2F8C3E7C0468A
:10086000410300106103001000C00340DC1D0020A4
:1008700040790010D41D0020F00F00203C790010BA
:10088000A01D0020D0231B061B687B4A99005258EC
:10089000F0B5574692465A1E93413022DE464E46E8
:1008A00045465B421A401300744AE0B5944683B053
:1008B00063440193724B884608260F279B463500F8
:1008C000083DEA081300019908339B005C58002C8E
:1008D00022D0012399465346002B27D039002140CE
:1008E000274213D05B4642469A584B46AB401A42C9
:1008F0000CD1072208002A40920090400200EB0829
:1009000060483C339B001A502800D0472409013529
:10091000002C01D0AE42E1D80836282ECFD103B04A
:10092000F0BCBB46B246A946A046F0BD3900214006
:10093000274206D00133AB40454651484059184242
:1009400076D02309E8D00F22110019401A420DD0A9
:100950004546F31F0E3A9A4049484059104205D186
:10096000DB08484A3C3309019B009950230AD3D045
:100970000F22110019401A420DD04546B31F0E3AFE
:100980009A403F484059104205D1DB083D4A3C336C
:1009900009029B009950230BBED00F221100194071
:1009A0001A4236D1230CB7D00F22110019401A4237
:1009B00043D1230DB0D00F22110019401A424BD160
:1009C000230EA9D00F22110019401A420DD045461E
:1009D000B31E0E3A9A402A484059104205D1DB080E
:1009E000284A3C3309069B009950240F721E002CA4
:1009F00000D191E70123404693402149095819420B
:100A000000D089E7D3083C331E4A24079B009C5042
:100A100082E74546731F0E3A9A40194840591042E2
:100A2000C0D1DB08174A3C3309039B009950B9E752
:100A3000144B3C329200D15083E74546331F0E3AA7
:100A40009A400F4840591042B3D1DB080D4A3C335D
:100A500009049B009950ACE74546F31E0E3A9A40B4
:100A6000074840591042ABD1DB08064A3C33090520
:100A70009B009950A4E7C046AC18002000410140FB
:100A8000881D002000400140094A10B594464024CA
:100A9000830063441A68C00062408034144080229E
:100AA000520113431C60034B9C466044416010BDDF
:100AB00004C0014000400140074B80009C46604458
:100AC0000368C90092000A435A400C231A4080234D
:100AD0005B0103431A60704704C00140D0231B062A
:100AE0001B6830B50500584243412F205B428343C9
:100AF0000D48EC08844607202840800081402000F3
:100B00000A4D3C3063448000A40041511B19002A67
:100B100004D0802292011343196030BDC02292019B
:100B200013431960F9E7C0463041014000400140DD
:100B3000F8B51D00D0231B061C6806006042444126
:100B40002F20644284432748F7088446072030401A
:100B5000800081403800244E3C3064448000BF0057
:100B60008151E419002A11D08022920122431160A0
:100B70001C681E4EA400A359002B15D0002D25D0B3
:100B8000A55101210D2000F0F7F8F8BDC022920117
:100B9000224311601C68154EA400A359002B0CD0F1
:100BA000002D18D0A551F0E7002DEAD000220D202D
:100BB0000F49A55100F04EF9E3E7002DE5D00022E2
:100BC0000D200B49A55100F045F9DEE70D2008493D
:100BD00000F03AFAD4E70D20054900F035FAA551A6
:100BE000D3E7C0463041014000400140AC1800202E
:100BF000850800100123D02283401206936293617E
:100C0000094A40219446830063441A68C0004A4060
:100C1000803111408022520113431960034B9C46DE
:100C2000052360444360704704C001400040014018
:100C3000024B18688007C00F7047C04600C00640CE
:100C400070B5EFF3108C72B60D4D2B68002BFCD0F5
:100C5000BFF35F8F0724CB08C618C05C01230C408C
:100C6000A3401C000440034207D118433070BFF377
:100C70005F8F2C608CF3108870BD100001F054FD64
:100C80002C0100D0F8B54746CE46884680B5EFF334
:100C9000108C72B6214D2C68002CFCD0BFF35F8FF6
:100CA0009A422CD8D4080727055D0619012417405D
:100CB000BC402C421FD007210127894609E0D408F7
:100CC000055D06194C4639001440A1400C0029422C
:100CD00011D001329342F2D201204042BFF35F8F24
:100CE00000220E4B1A608CF3108800280FDBC0BC6A
:100CF000B946B046F8BD254310003570EEE7BFF3A6
:100D00005F8F00232B608CF3108801204042434604
:100D1000002BECD0089801F007FDC0462C0100D054
:100D20000021044B044ABFF35F8F02C39342FAD100
:100D30007047C046000100D0800100D0044A1078FE
:100D4000431CDBB2172B00D9102313707047C04629
:100D5000190F002010B5064B064C82B0010000931D
:100D600018221F232000FFF78DFF02B010BDC046E0
:100D700054790010BC18002001238340002904D0BE
:100D8000034A1360034A13607047034A1360FBE78A
:100D900080E200E000E100E080E100E0012282402A
:100DA000034B1B6813405A1E9341D8B27047C0468C
:100DB00000E100E001238340014A13607047C04610
:100DC00000E200E0084B10309B688000C358002B05
:100DD00007D0064A00209B1A2F229A424041C0B2F7
:100DE00070470020FCE7C04600ED00E01C0F00202B
:100DF000024B10309B688000C058704700ED00E047
:100E000070B50D00EFF3108672B60F4A1368002B11
:100E1000FCD0BFF35F8F0D4B10309B6884001B59D3
:100E20000B4A934203D09D4201D001F095FC074B41
:100E30009B681D51BFF35F8FBFF35F8F0022024B92
:100E40001A6086F3108870BD240100D000ED00E028
:100E5000CD010010F0B557464E46DE464546E0B59A
:100E600085B0060000911700EFF3108B72B66A4A46
:100E70001368002BFCD0BFF35F8F0025674B5D57D5
:100E80009A46002D00DA8BE06B00654C01935B19EC
:100E90009B009846A146C1444B4652469B7910366A
:100EA0001370604BB6009B6899590B1B2F2B33D9DD
:100EB0005D4B994200D0ACE0019B42469C465B4BA7
:100EC0006544AD0063535A4B0232A218043B9B1A8F
:100ED0001B05584A5B0D651913436B80564B012166
:100EE000AB80FF23AB71009BEF71AB604B460B43B4
:100EF00019004C4B9B689951BFF35F8FBFF35F8F15
:100F00000022454B1A608BF3108805B0F0BCBB463D
:100F1000B246A946A046F0BD01200A008243D3791B
:100F20008C46BB4231D84546130044491B1B5B41EC
:100F30005943090D3D4B63533D4B02356519043B45
:100F40005B1B1B053B4D5B0D2B43AA464D466B803F
:100F50000425AC465546E044131F44441B1B1B05A7
:100F60005B0D1D434B46997100999D8099604946E0
:100F7000DF71334B01431360BBE75800C01880009A
:100F80002018C179B94211D902000623D356002B8B
:100F9000F3DA0293131D9A462A4B6146039319E034
:100FA00001F0DAFB002553465D576DE79088029308
:100FB0004005131D9A46031561469C464046D4449D
:100FC000634604302018181AE0230005400D1B0268
:100FD0001843039004235B429C46E14450464B4631
:100FE0001B1A1B055B0D9C46124B95719846634678
:100FF000404603439380019B5A199200039BA41817
:10100000A380029B0E4AA371009B2260E771A3603C
:101010006FE701F0A1FB4FE7240100D0DD1D0020A8
:101020001C0F002000ED00E0CD01001000A1FFFF2B
:101030004C0F002000E0FFFF01BDFFFFAAAA000047
:101040000148804701BD0000F0B5DE4657464E46D8
:101050004546E0B50C0083B0EFF3108872B65D4AE8
:101060001368002BFCD0BFF35F8F5B4B5B499A6822
:10107000030010339F00D5598D4239D0A5424AD084
:10108000574EAA1B2F2A33D80122924682409146FE
:101090004846544A1268104001904846524A10602F
:1010A000BFF35F8FEFF305829346002A35D093425A
:1010B00001D001F051FB2A0053469A4390688442C4
:1010C00008D175E04B005B189B00F3189868A042AC
:1010D00034D01A00062151560029F3DA844253D045
:1010E000019B002B26D04A46404B1A603D4B1A60AC
:1010F000394B9B68DD51BFF35F8FBFF35F8F0022D9
:10110000344B1A6088F3108803B0F0BCBB46B2467B
:10111000A946A046F0BD0D00EAE72A0053469A43CF
:1011200090688442D6D1062010561300002809DAB0
:101130000D0031E04A462C4B1A60D9E706201856BC
:10114000002822DB42001118890074188A46A16821
:101150009960E179D971062161569971002925DBE1
:10116000A488F11A6405241554440919E0240905DA
:10117000490D24022143998013181D4A9B001178C0
:10118000F31899711070ABE713005946002914D178
:10119000FF3191711749918015490A789A71164A61
:1011A0009B1B5B415A43120D0A7099E71349E2E712
:1011B0000620105613000028C4DA114A1149D21A29
:1011C000083A5002400D014399800F4952080A43E2
:1011D000DA8085E7240100D000ED00E0CD010010A9
:1011E0001C0F002000E100E080E100E080E200E070
:1011F000DD1D002001BDFFFFAAAA000001BD000007
:10120000560F002000F0FFFF00F8FFFF70B5EFF36E
:10121000058101240443EFF3108C72B6214A136850
:10122000002BFCD0BFF35F8F1F4B05001F4AED1A48
:101230006D416A43120D1E4D8900AE6852B2765858
:10124000A6421CD00621595691421CD01221595653
:10125000914222D01E215956914220D02A2159561E
:101260000324914210D0134B19781A708171BFF387
:101270005F8F00220B4B1A608CF3108870BDAB6837
:101280000D4C5C50EFE700246100091989005B18E0
:10129000FF21997109499980E5E70124F4E70224C7
:1012A000F2E7C046240100D01C0F0020AAAA0000CB
:1012B00000ED00E0DD1D0020CD01001001BDFFFFAD
:1012C000054B064A1360064A136053609360D3606F
:1012D00013615361936170478080808000E400E077
:1012E00004E400E010B5084B084C82B00100009304
:1012F000002205232000FFF7C5FC002801DB1F2387
:10130000181A02B010BDC04670790010E21D00200E
:10131000024B9C46614489000160704740000034E4
:1013200010B50400FFF70AFD01002000FFF7F0FFF1
:10133000FF232371BFF35F8F10BDC04610B50400BB
:10134000FFF7FCFC01002000FFF7E2FFFF23A38072
:10135000BFF35F8F10BDC04610B504000120FFF73A
:10136000F9FC034BC3189B002360BFF35F8F10BDD4
:1013700040000034034B9C46614489000160BFF388
:101380005F8F70474000003483680B4810B5844677
:10139000614462441201090159189B185C684A684B
:1013A0000120944201D802D00020C0B210BD1A68BA
:1013B0000B689A42F9D8F7E7FFFFFF0F0A4B19684D
:1013C000EFF3108072B60A68002AFCD0BFF35F8F7B
:1013D0001B68BFF35F8F00221A6080F3108840BF44
:1013E000002000217047C0469C1D0020F8B55746DC
:1013F00045464E46DE46E0B598460CAB1C780DAB34
:101400001B78070091469A460568002C5ED1AC7B9C
:10141000002C3BD0660029683619033E89194B78A9
:10142000AB73002B00D1EB7300238B704B700B70F0
:101430002D4BE218BB6812019B184A461A604246BF
:101440005A600A9A9A600B9ADA6000238B704B708C
:101450000B706B7B9B46002B2BD022005946A86853
:101460006B6898472A68002816D05B4658465B0090
:101470005B449619033BB070D118D35C002B00D0AD
:1014800073705B460C706B735C4513D0F0BCBB464D
:10149000B246A946A046F8BD5B465B005B44033BF1
:1014A000D3189C709119925D002A00D05A705B4647
:1014B0000B706C734A464346387D00F0C3FB051E33
:1014C0000AD10E9B002BE1D01D70DFE76600296872
:1014D0003619033E8919ABE75346002BF1D12100A1
:1014E000386800F0D9FDECE7FFFFFF0FF0B5DE46EE
:1014F00057464E4645460023E0B58BB00893674BF0
:101500008200D45800239B46099000F03BFB020068
:101510000B006068EFF3108A72B656460168002926
:10152000FCD0B246BFF35F8F21684F7B8C46002F03
:101530002ED0A5685A49A946791809018944494617
:101540000868496805000E00AD1A9E41002E5FDD57
:1015500002000B00099800F075FB00230022994659
:10156000002306920793002398466368BFF35F8FBA
:101570005A461A608AF310884346002B12D100287D
:10158000C3D10BB0F0BCBB46B246A946A046F0BDE5
:10159000002300229946002306920793002300208F
:1015A0009846E2E7089B494618023843C0476268FC
:1015B00005000E00EFF3108A72B61368002BFCD002
:1015C000BFF35F8F002E40DB2B00334302D0236933
:1015D000002B55D12368D97B002905D01A68480013
:1015E00041185218033A57709A7B002A00D19F7312
:1015F000DF73E268013FD35D0133D3555B4623615E
:101600006368BFF35F8F5A461A608AF310887CE7DD
:10161000002E01D1002D9BD10021604600F0BAFCC4
:101620004B461A685B68069207934B469B68984640
:101630004B46DB689946E368DB19013B1B7808934E
:101640001B020343236100208FE72369002BC1D0D5
:10165000069A079B8021521BB34109068B4202D395
:101660000122104B5242002104910131039149465D
:1016700001914146200002970091FFF7B7FEBDE7B8
:1016800000F080FA2A00330012184B41802109062D
:101690008B42E8D30122034B5242E4E7781D00203D
:1016A000FFFFFF0FFFFFFF7F10B5144C6368002B97
:1016B00004D00A211248FFF72BFE10BD2300114A67
:1016C0001021206800F07CFB032000F04FFA03207B
:1016D00000F026FB03200C4900F06EFAFFF72EFB0A
:1016E0000A4B9C4603232375D0231B061B686044CA
:1016F0006375074B80006060DC60DAE7640F0020F0
:101700009C1D002089130010ED14001040000034CF
:10171000781D002000487047640F0020F0B5574640
:101720004E464546DE46E0B585B0019310AB1B78CA
:101730000600039300239A46984600927268EFF3DE
:10174000108B72B61368002BFCD0BFF35F8F356827
:10175000AC7B002C00D16FE067002B683F19033F82
:10176000DB195A78AA73002A00D1EA734B4AA118F0
:10177000B2680901521800980199106051600E99E1
:1017800091600F99D16042469A705A701A706B7BC3
:101790009946002B00D170E022004946A8686B688A
:1017A00098472A6800285BD04B4648465B004B446C
:1017B000D719033BB870D118D35C002B00D07B70D5
:1017C0004B460C706B734C4558D0F3681B19013BAA
:1017D00018787368BFF35F8F42461A608BF31088E6
:1017E0005346002B08D10002204305B0F0BCBB4695
:1017F000B246A946A046F0BD039B002B4BD00E9BE2
:1018000000200F999847030004000D000B4342D0BD
:1018100000291ADA009A019B121BAB410092019336
:1018200080221206934204D301231D4C5B42009395
:101830000194039B9A4681E77368BFF35F8F1C6036
:101840008BF3108801204042CFE700F09BF9802203
:1018500024184D411206009401959542E9D3E3E71F
:101860004B465B004B44033BD3189C70D119D25DAF
:10187000002A00D05A704B460B706C73307D009A72
:10188000019B00F0DFF9824600289ED021003068DD
:1018900000F002FC99E70020A7E7C046FFFFFF0F1A
:1018A000FFFFFF7FF8B50B0004004168EFF31085E0
:1018B00072B60A68002AFCD0BFF35F8F2068D9B2E5
:1018C000427B8A4209D0FF261E4002687700BE197B
:1018D0009219033A9278002A12D0FF26E2681E403D
:1018E0009219013A1B0A1278DBB29A420DD00020FD
:1018F0006368BFF35F8F00221A6085F31088F8BD1C
:1019000021699942F3D12261F1E700F0C5FBEFE7CD
:10191000407D7047F0B504000D0006267642F717AB
:10192000C64636196F4100B584B08F4214D811D025
:1019300000F028F932003B00121A8B41002B15DC15
:10194000002B3ED02000290000F026F904B080BC16
:10195000B846F0BD8642EBD90026002700F012F908
:1019600032003B00121A8B41002BE9DD0023029369
:101970000193154B3200009314483B00FFF7CEFE55
:101980000028DFDB00239846BC46114A114F7B6AD2
:101990009C4504D8B96AB142D4D29C45D2D11168D1
:1019A000EFF3108072B60B68002BFCD0BFF35F8F93
:1019B0001368BFF35F8F4146196080F3108820BF22
:1019C000E5E7002ABED0D1E7BD130010640F002068
:1019D0009C1D00200040054070B504000D0000F083
:1019E000D1F88023001969411B06994202D30120D6
:1019F00002494042FFF78EFF70BDC046FFFFFF7FE8
:101A000070B5060000F0BEF8FA2204000D000023B5
:101A100030000021920003F073F88023001969411F
:101A20001B06994202D3012002494042FFF772FF90
:101A300070BDC046FFFFFF7F70B5EFF30583050063
:101A40000C0084B0002B0AD0164A0020536A9C4236
:101A500003D8926A0130AA421FD304B070BD124E5F
:101A600002930193114B0200009330000B00FFF72B
:101A700055FE011EE8DD20BF3000FFF713FF094BC4
:101A800000205A6A9442E8D89B6A0130AB42E4D203
:101A9000A41A631E9C41E0B2DFE7E31A5A1E934189
:101AA000D8B2DAE700400540640F0020BD130010F3
:101AB000F0B5EFF30582D6464F4646461000C0B556
:101AC0001038EFF3108872B6214C2368002BFCD03D
:101AD000BFF35F8F0123190081401E4D1F00696312
:101AE000AA461D4D29601D4D2E78AC463500C540D7
:101AF0002F402B4215D053465F6A194B8500EB5897
:101B00009F4218D36246174B8E43EB581670BFF3B3
:101B10005F8F0022226088F31088002B06D0984740
:101B200004E0BFF35F8F276088F31088E0BCBA46FB
:101B3000B146A846F0BD0C4B92009C466244136827
:101B40001360BFF35F8F0023236088F31088EDE7F5
:101B5000280100D0004005403C700540E11D0020F8
:101B6000AC1D00209C170020D03F054010B5034B52
:101B700001001800024AFFF763F810BDDB1D0020CA
:101B80008C790010034B596A0A00986A596A8A4294
:101B9000FAD1704700400540064A536A9942FCD882
:101BA00007D1044B02E05A6A914202D19A6A8242FA
:101BB000F9D370470040054070B504000D00EFF305
:101BC000108672B61A4A1368002BFCD0BFF35F8FE1
:101BD000002D1BD02000FFF70BF9164981420AD0D7
:101BE0002000FFF70DF901212000FFF7C5F80123C0
:101BF000A340114A1360114BA400E550BFF35F8F5F
:101C000000220B4B1A6086F3108870BD0121A140A1
:101C10000A4BA200D5500A4B20001A788A43054986
:101C20001A70FFF711FA00212000FFF7A5F8E5E789
:101C3000280100D0B11A0010386005409C17002020
:101C4000E11D0020F0B54F46D6464646C0B5070018
:101C50002E4C616A0D00A66A616AA942FAD18B42D4
:101C600008D805D00120E0BCBA46B146A846F0BD70
:101C7000B242F7D9EFF3108A72B6254801680029FD
:101C8000FCD0BFF35F8F0125BD4022491F4C884621
:101C9000097889462943C9B28C4641466046087096
:101CA000391D890065630A511B49B8004350216AF8
:101CB0000020294219D0616A0800A66A616A81423F
:101CC000FAD18B4219D801D1B24216D8CC450BD0EB
:101CD0000E4B1F221D625D6301233A4093400F4A61
:101CE000136043464A461A700120BFF35F8F0022FB
:101CF000074B1A608AF31088B5E70020BFF35F8FA7
:101D00000022034B1A608AF31088ACE700400540BC
:101D1000280100D0E11D0020AC1D002080E200E081
:101D2000EFF3108C72B60A490B68002BFCD0BFF39E
:101D30005F8F01238340074A0748136202789A4362
:101D40000270BFF35F8F00230B608CF31088704725
:101D5000280100D000400540E11D002070B50500BD
:101D60000E001400002923D0002A12D080686B686E
:101D70009847296800280ED063001B197200033BA6
:101D80009219CB18033A9E7088188A5C002A11D1E8
:101D90000470300070BD73009B196200033B121980
:101DA000CB18033A9C7088188A5C002A05D106700B
:101DB0002000EFE75A700470EBE75A700670F7E7FF
:101DC00030B583600023CCB24373013304734260A7
:101DD0008373C4730D000068012C06D9421C0133C3
:101DE000DBB2137003329C42F9D1FF2129404B0032
:101DF0005B18C01800230338437030BD70B5050070
:101E00000C1E07D0630001681B19033BCB185A78DE
:101E1000002A01D1200070BD500080180338091835
:101E200000204E784870210058702800FFF796FF78
:101E3000310004002800FFF7E1FF0600002C26D047
:101E40000028E7D021003200A8686B68984729680D
:101E500000280ED073009B196200033B1219CB18A7
:101E6000033A9C7088188A5C002A00D05A70067069
:101E7000D0E763001B197200033B9219CB18033A99
:101E80009E7088188A5C002A00D05A700470340052
:101E9000C0E7C046F0B557464546DE464E46E0B57B
:101EA0000D006F0001687F19033F0400C85D83B017
:101EB0000192CA19002850D043001B18033BCB18CD
:101EC0005E78B446002E1AD1019E002E42D0E67BE9
:101ED000002E04D073009B19CB18033B5D70A37BCD
:101EE000002B00D1A573E57300282FD10023537078
:101EF00003B0F0BCBB46B246A946A046F0BD720096
:101F00006244033A8A185178884600215170894604
:101F10005970320001002000FFF720FF434682463F
:101F2000002B07D05B0021684344033BCB185A7851
:101F3000002A16D1424651462000FFF70FFF2168C4
:101F4000019BCA19002BC2D10028CFD043001B1817
:101F5000033BCB1800219970C8E7019B002BB6D139
:101F6000C4E750008018033809184878834648466B
:101F70004870587041462000FFF7F0FE59468046F1
:101F80002000FFF73BFF414602002000FFF7E6FE7E
:101F90008046CFE7F0B557464546DE464E46E0B5AB
:101FA00083B00191457B04006F0000687F19033FF7
:101FB000C15DC219002952D04B005B18033BC31806
:101FC0005E78B446002E1CD1019E002E44D0E67BE4
:101FD000002E04D073009B19C318033B5D70A37BD4
:101FE000002B00D1A573E573002931D1002328000F
:101FF0005370617303B0F0BCBB46B246A946A0461D
:10200000F0BD72006244033A821850788046002086
:1020100050708146587032002000FFF79FFE434603
:102020008246002B07D05B0021684344033BCB185A
:102030005A78002A17D1424651462000FFF78EFEFB
:10204000019B01002068C219002BC0D10029CDD00E
:102050004B005B18033BC31800209870C6E7019B38
:10206000002BB4D1C2E75000801803380918487813
:10207000834648464870587041462000FFF76EFE80
:10208000594680462000FFF7B9FE41460200200075
:10209000FFF764FE8046CEE770B5050000292CD01E
:1020A000437B8B422ED04C0000686418033C04191B
:1020B000A278002A21D053009B18033BC25CC618AB
:1020C0008A4202D11BE0002A08D053009B18033B30
:1020D000C3185A788A42F6D162785A7000230122D6
:1020E0002800A3706370FFF7D5FE697B020028000B
:1020F000FFF734FE6873012000E0002070BD6378B4
:102100003370EBE701221900FFF7C4FEF2E7C04687
:10211000F8B5040006200D0000F0C4F9002844D0F2
:102120002A4B2B49E21853425A418023DB039C4639
:102130009205284B62441A60274B1A6010008B6886
:102140009843FBD1214B254AE31859424B4180214A
:102150005B0049000620995200F0A4F92900C00054
:1021600001F07CFEC30921D14027012126008025F2
:102170006162A36200232C36AD0135432B6006203B
:1021800000F090F93900800001F068FE6022E36AF7
:1021900053400E321A4080235B0133431A60104BC8
:1021A000236310232B600D3BA364F8BD0D4A9342BB
:1021B00003D900230C4F0D49D8E77F22024001329A
:1021C00052089F011900BF181300CFE70080FCBF21
:1021D00000C0004000E0004000F00040BC1D0020B6
:1021E00001030000FEFF0000C0FF3F00FFFF0000F2
:1021F00010B50C2082B000F0AFF9FEF719FD0028F1
:1022000010D0864B86488649864A18605960986087
:10221000D960186159619861D961186259625A622E
:1022200002B010BD804CA06700F0ECF901227F4B9A
:102230001A60636C012BFCD103227D4B1A607A4A31
:10224000936B012BFCD1013301217A4A7A48009328
:10225000043300F02DF90523784A009301217848D2
:1022600000F026F9774B5A68FF2A02D880225200E4
:102270005A6080226E4B694C12011A602169002954
:1022800005D0606901F0EAFD01300138FDD1E0229E
:102290006C4B6D4819680A4002600222196851406F
:1022A00001320A40042102609A681142FCD0802168
:1022B000664A09011160802252005A60644B236112
:1022C000644B5968FF2900D85A6003220121574BFB
:1022D0001A60604A93681942FCD0E02310680340FA
:1022E0005D480360126803234A4002211340594AA3
:1022F000036093681942FCD08021584B0901196092
:102300008021574B490051606361564B5A68FF2A40
:1023100000D859608022544B12011A60E1690029EB
:1023200005D0606901F09AFD01300138FDD1E0234C
:102330004C4A11680B404D490B6080214C4B090100
:1023400019608021364B49005160E361494B5A685E
:10235000FF2A00D859608022474B12011A60216A77
:10236000002905D0606901F079FD01300138FDD107
:10237000E023404A11680B4040490B608021404BEC
:102380000901196080235B0053608022244BD20234
:1023900023623C4B5968914200D25A6080223A4BEA
:1023A00012011A60616A002905D0606901F056FDCA
:1023B00001300138FDD1E023324A11680B40334926
:1023C0000B608021324B090119608023DB025360CE
:1023D000144B63622F4B5A68FF2A02D880225200A6
:1023E0005A6080222C4B12011A60A169002905D085
:1023F000606901F033FD01300138FDD1E023254A49
:1024000011680B4025490B608021254B090119609B
:1024100080235B005360124BA36101E7281000206A
:10242000006CDC021BB70000008000403CB00040A4
:1024300030B00040002F685900800240008C864771
:1024400000C00240308000403090004030A000408A
:10245000001BB7003C8000403C9000403CA0004086
:10246000405973075480004054B0004054900040DD
:1024700054A000406080004060B000406090004088
:1024800060A000406C8000406CB000406C90004048
:102490006CA000404880004048B000404890004098
:1024A00048A00040014B8000C05870472810002011
:1024B000F8B504000C2017001D000E0001F0CEFC42
:1024C00043011B1A9901C91AC9000918890138006A
:1024D00001F0C4FC069B29041B0319432368002B4D
:1024E00020DB194B194DE3185A4253418022520107
:1024F00094461B03164A63441360164A13601F0078
:10250000AA689743FBD1C023221D9B0113432122BC
:102510002660A0601A602268002AFCDA0822E160C6
:102520001A60F8BD3F2322681340B342D9D1A36893
:102530001B051B0D8342D4D1EE22E368D202134067
:102540008B42CED1EDE7C0460040FDBF00C0004049
:1025500000E0004000F000408023024A9B0003435B
:10256000D36270470080054010B580241C4BE40501
:102570001C6000281AD001231A4C18431A4BDC6146
:102580001A4C44401C62596298628021144BC90560
:102590001960174817490860E021C9041960002A2A
:1025A00007D18022144B12061A6010BD0E4BD86161
:1025B000EBE753019B1A9B009A18802312015B04DE
:1025C0009A4209D213000D490B60074B5A608022D2
:1025D000094BD2051A60E8E7094B1A00F3E7C04639
:1025E00000B00540D3C007B0008005402D3FF84F34
:1025F000FCFF01000820014000A00540501D002004
:10260000FFFFFF00AA23064A1B0113602F23054981
:10261000D360054B19605368002BFCDA7047C04645
:102620000040024000B0FA00006002402C4B2D4AEE
:1026300070B51A602C4A2D4B2D491A6014008B6816
:102640009C43FBD12B4D2C4EB54208D2013E761B4C
:10265000B60808CD984723000134B342F9D1FFF7FB
:10266000C7FD264A214B1A60214A9368DB43DB01F0
:10267000DD09002BF9D14022214B224C224E9A67D2
:102680005A671A67DA66B44208D223682000002B22
:1026900020D00834FEF752FEB442F6D31B4C1C4E39
:1026A000C022B168200002F00FFBB460FEF738FBD7
:1026B000FEF706FEFEF7F8FF164C174EB44208D29E
:1026C000013E361BB60808CC98472B0001359E42C8
:1026D000F9D170BD0834FEF723FEB442D5D3DDE74F
:1026E00000E00040BFCDFBFEFE7F3C0000F000405C
:1026F00000C000401010002020100020FFFFFF014C
:1027000000F0014000100020101000200000002008
:1027100000ED00E0201000202810002000BEFDE7A2
:1027200010B5FFF7FBFFC0460FB400B5084883B0F3
:1027300002F0ACFB049B002B07D005A91800019107
:1027400001F012FB034802F0A1FB0120FFF7E6FFB6
:10275000B07900105079001010B50148FFF7E4FF80
:10276000C07900107047C046F8B557464546DE466A
:102770004E46E0B598460A9B06009A460D9B0F0010
:10278000934615009B0710D10B9B0C9A93420CD2D9
:1027900013005C460B9A9D1A5D44220043460134A7
:1027A00039002020B047A542F7D10B9C6319002CBB
:1027B00009D01D0053462A1B013C185D39004346D1
:1027C000B047002CF6D10D9B9B070ED55B46EC1A4B
:1027D0000C9BA34209D999462A0043463900202080
:1027E0000134B0470135A145F6D82800F0BCBB46FE
:1027F000B246A946A046F8BDF0B54F464646D64675
:10280000C0B584B098460EAB1B7894469946129B8F
:102810000D9C109F119E9A0724D4002E6AD1BC42B1
:1028200020D201221A409246202C00D1CBE00C9AF3
:10283000551E302201E0202C30D001342A55A74209
:10284000F9D85246002A0DD0B4420BD20C9A551E2C
:102850003022202C02D126E0202C61D001342A55D0
:10286000B442F9D1DA0634D55A0562D4002C5CD1D1
:102870000F9A102A00D191E0022A00D1A1E0302263
:102880000C9C227001244A46002A5CD15A0700D4CD
:102890007DE02B220C9D2A5501341CE05246002A73
:1028A00002D0202E3CD92024DA0614D55A0512D4A1
:1028B000202F00D197E0202E3BD120261F2234006C
:1028C0000F9D102D00D181E0022D4CD030250C9FA2
:1028D000BD54202CD7D103930C9B624600930296E3
:1028E00043460194FFF740FF04B0E0BCBA46B1464E
:1028F000A846F0BD012215001D40AA461A4227D065
:102900004A46002A33D10C321A4230D1BC429BD203
:10291000202C00D08BE7202EC5D8DA06A4D4DAE725
:102920002024DA06D7D55A0503D4A74221D0B442D1
:102930001FD00F9A102A21D0022A10D0202CCAD0E2
:1029400022000134C2E72D220C9D2A550134C2E732
:10295000BC4200D386E7202C00D068E7E1E7202CBA
:10296000B9D02200013462250C9FBD54E6E7013E38
:10297000CCE7621E012C00D17AE7A1E79A0616D4B3
:10298000202CA8D078220C9D2A550134D6E71A07AE
:10299000A1D520220C9D2A5501349CE79A060ED41D
:1029A00078220C9C22703022627002246BE7202C6B
:1029B00091D058250C9A121915700134BEE758228F
:1029C000EFE76222EDE7002AA7D1AAE7023C9D06C5
:1029D00004D478250C9F3D551400B1E758250C9F71
:1029E0003D551400ACE71F226AE7C04610B5002829
:1029F00000D110BD02F0FEF9FBE7C0460B0010B598
:102A0000002802D049681B68984710BDF0B55746AA
:102A10004E464546DE46E0B599B082468946904628
:102A20000993229A239B1000190001F0D8FC00287A
:102A300000D0C8E0229823990122D54B524201F0E0
:102A4000C9FC002800D0BEE0229823990122D14B76
:102A5000524201F0B1FC002800D0B4E02298239942
:102A60000022002301F0A8FC002800D0E9E1229E0A
:102A7000239F8023269ADB001A400D92269A1A4241
:102A800001D1062324933B00334300D0B4E0269BBE
:102A90001B0500D5BFE1002300240A930B940023FB
:102AA00004250C93259B0024AB4200D95C1B022318
:102AB000269A1A400D92269A134203D06B426B411C
:102AC0005B421C400C9B002B07D00A9A0B9B3000EA
:102AD000390001F010FC06000F0022982399002213
:102AE000002301F069FC002803D0802109067B182F
:102AF0001F00269AA84B009601971340099E049345
:102B0000249B03940293424633004946504600F00A
:102B1000A7F90400002D67D02020269A49460240DC
:102B200013005A4253415B42621C18400A92330020
:102B300022004530D0470C9A6F1ED317D4185C4042
:102B4000D30F9B46002501E0202D13D008AA944600
:102B50001F23200063440A2101355E1901F07EF92C
:102B60003031317020000A2101F078F9260004008C
:102B7000092EE9D805230693002304930A3303930F
:102B80005B46099E029310AB0A9A009349463300B4
:102B9000504605970195FFF72FFE0D9A0400002A75
:102BA00022D04246851A259AAA421DD9B0465746D8
:102BB000160022004346494620200135B84701341B
:102BC000AE42F6D810E0269B42460493259B494628
:102BD0000393249B50460293229B239C00930194D1
:102BE000099B00F03DF90400200019B0F0BCBB4681
:102BF000B246A946A046F0BD684B78009C46400D01
:102C0000604401F0FFFB664A664B01F092FB664AA6
:102C1000664B01F067FB664A3B031B0B1A4304003B
:102C20000D00644B11003000002201F052FB624A9B
:102C3000624B01F07EFB02000B002000290001F036
:102C400051FB01F0F7FB0C9001F0DCFB5C4A5D4BA3
:102C500004000D0001F06DFB00225B4B01F042FB14
:102C600001F0E8FB594A8346594B2000290001F046
:102C700060FB040058460D0001F0C4FB554A564B5A
:102C800001F057FB02000B002000290001F021FB9E
:102C900002000B000A900B9101F04BFB04000D00A9
:102CA0000A980B9902000B0001F01CFB00220E9009
:102CB0000F914A4B2000290001F01DFB0022484BD8
:102CC00001F010FB02000B002000290001F013FBB3
:102CD0000022444B01F006FB02000B0020002900FB
:102CE00001F009FB0A9A0B9B0D0080210400C90525
:102CF000002001F0EEFA02000B002000290001F094
:102D0000F1FA394C02000B000E980F9901F0F3FA1A
:102D10005C440022264B01F0E5FA2305002201F075
:102D200008FB04000D0002000B00300039000A947B
:102D30000B9501F041FB00285ED123002A00C62537
:102D40000C9963318D42AD4126996D4204350905D8
:102D500000D4A7E6134364D030003900234A244B43
:102D600001F030FB002807D0002230003900214B51
:102D700001F022FB002854D1249B002B00D191E6C6
:102D80000D9B5A1E9341249AD31A24938AE6C04677
:102D9000FFFFEF7FFFFFEFFFFFF7FFFF01FCFFFFEC
:102DA000FB799F501344D33FB3C8608B288AC63F3A
:102DB0000000F03F0000F83F61436F63A787D23FF8
:102DC00071A379094F930A400000E03F1655B5BB47
:102DD000B16B0240EF39FAFE422EE63F00002C4074
:102DE0000000244000001840FF0300002D431CEBAE
:102DF000E2361A3F80842E410C9B0022013B0C934B
:102E00002000164B290001F076FA0A0001000300A9
:102E10000A910B9293E7002300240A930B9400235A
:102E20000C93249A0C9B9A4214DDD31A013B2493F1
:102E30008023269ADB001A430023002526920C9358
:102E400030E6802212069446229B1E00239B634498
:102E50001F000EE600232493EAE7C046000024404A
:102E6000F0B54546DE464E465746E0B595B08B4632
:102E7000904699461E9A1F9B0A9019001000209DAB
:102E800001F0ADFA002800D0B0E11E981F99012290
:102E9000C74B524201F090FA002800D037E11E984B
:102EA0001F990122C34B524201F094FA002800D02E
:102EB000A7E01E981F990022BF4B01F08BFA002853
:102EC00000D088E01E981F990022BC4B01F074FAD4
:102ED000002800D07FE01E981F990022002301F0F7
:102EE0006BFA002800D0FAE000230B938023229C89
:102EF000229ADB001C401A4200D102E1092D00D8C1
:102F00007EE106A98C462C00172200233021093CC3
:102F100062440133D154EF1A202B00D132E1A34295
:102F2000F7D10022A44B069207931E981F9901F037
:102F300081FA050001F066FA02000B001E981F9945
:102F400001F0C7F9069A079B01F0F3F9089009917F
:102F500001F094FA060001F051FA02000B00089803
:102F6000099901F0B6F90022954B0890099101F0FA
:102F700031FA002800D1D2E00136300001F03EFAEB
:102F8000069A079B01F01EFA002801D000260135A1
:102F9000AA46002F00D098E0280001F033FA020082
:102FA0000B001E981F9901F094F9854B0022060032
:102FB0000F0001F001FA0CAB9A46002845D100221F
:102FC000300039007E4B01F005FA00283DD1EB07B7
:102FD0003BD5013539E0229B42460493219B59465B
:102FE00003930A981E9B1F9C0295009301944B46E5
:102FF000FFF70CFD15B0F0BCBB46B246A946A04693
:10300000F0BD229B5B0767D403226E4B229901928D
:10301000039121990291009342464B4659460A98E2
:10302000FFF7A2FBE6E706AA9446172328006344AD
:103030000A2101341E1900F0E9FE303128003170F8
:103040000A2100F0E3FE051E76D0202CEBD10323ED
:10305000229A1340012B1DD1219B002B1AD00B9BD0
:10306000002B00D0BBE0229A0C33134200D0B6E014
:10307000219BA34200D887E006AB9C461722302351
:10308000624404E02199013413558C4259D0202C1C
:10309000F8D12024229B01940393219B0293534651
:1030A000B9E706AA944617230A2163443000013485
:1030B0001D1900F0D3FE3031297030000A21013F84
:1030C00000F0CCFE092E46D90600202CE9D1554649
:1030D0000CAB20249A46B8E704223B4B96E71E9A95
:1030E0001F9B0020002101F0F4F801230B938023A3
:1030F000229C229ADB001E901F911C401A4200D095
:10310000FCE60022314B0627069207930DE7229B2F
:103110000393219B0293042301932D4B7BE7002211
:1031200008980999264B01F047F9002800D02FE7AD
:10313000002E4FD101362BE70323229A1340012B97
:1031400068D0202CA6D00B9B002B1FD02D235246DD
:10315000135501349EE75546202CB9D030223B1937
:10316000002F4BD0172006A9013409180A55202C2E
:10317000AED09C42F6D10CAA92462E2251465C1C3F
:10318000CA5462E72024CCE6202C83D0229B5B0724
:1031900008D4229B1B0700D47CE7202352461355FA
:1031A000013477E72B2352461355013472E7C046AA
:1031B000FFFFEFFFFFFFEF7F65CDCD4165CDCDC1B7
:1031C0000000E03FD4790010CC79001080842E41BB
:1031D000DC790010F30700D4DAE60136D8E6219B4B
:1031E000013B2193A34200D946E7AAE7229B039320
:1031F000219B029303230193084B0CE72300BAE7BA
:10320000074BEA009B185C681B682F000693079425
:1032100000248AE6219B002B93D020E7D879001068
:10322000807B0010F0B5DE4657464E464546E0B579
:103230009FB01C00289B93460A93CC4ACC4B8A46ED
:1032400009901A60002900D14DE1002320789946A9
:10325000002800D14FE1C74B4D460893C64B0D9354
:103260000AE02A006E1C5B46099D5146A8473500BE
:1032700001342078002872D02528F2D110239946F5
:10328000083B9846043B00219C46022701342078E5
:1032900026000300203BDBB2102B03D8089A9B00CA
:1032A000D3589F460300303B092B6ED900272A28AC
:1032B00000D18AE000230B932E2800D176E0030092
:1032C000683BDBB2122B1BD8AC4C9B00E3589F46EB
:1032D000012301341943DAE739430134D7E7634660
:1032E00001341943D3E74B4601341943CFE7434632
:1032F00001341943CBE780235B0070781943013612
:1033000067280AD824281FD90300253BDBB2422BAB
:103310001AD80D9A9B00D3589F460300693BDBB235
:103320000F2B11D801249C40954AA4469046144086
:103330000C9462464446224200D025E20A2B00D17A
:1033400001E1072B00D1D8E0099C2A005B465146D9
:10335000A04770786F1C741C3D0000288CD1A946D2
:103360002C00CB4503D801235B425B4499465B4666
:103370004A4651460020099DA84720001FB0F0BCD6
:10338000BB46B246A946A046F0BD0027BB00DF19E8
:1033900001367F003F183078303F0300303B092B67
:1033A000F4D900230B932E2800D088E7802370786F
:1033B000DB0019430300303B741C092B00D82CE1BF
:1033C0002A2800D138E1260079E70A9B80CB002F1C
:1033D00003DB60780A93661C6CE702226078114375
:1033E0007F420A93661C65E7672800D1C8E1472839
:1033F00000D104E2452800D104E207200A9B049191
:103400000733834319000B9A039702920CC909985A
:10341000009201930A912A005B465146FFF7F6FAA3
:10342000741C050025E770786C2800D10DE280231C
:103430005B001943013663E780239B0070781943D2
:1034400001365DE77078682800D1F9E18023013604
:10345000194355E7462800D18FE107200A9B0491C4
:103460000733834319000B9A039702920CC90998FA
:10347000009201930A912A005B465146FFF7F0FC47
:10348000741C0500F5E62A00099C5B465146252080
:103490006F1CA0473D00741CEBE6890700D4DEE1F9
:1034A0000A9B2A0098466B1C9946434601CB51461D
:1034B0009846099C5B46C0B2A047ED19012F00D881
:1034C00093E24C46B1465646099F22005B460134C2
:1034D00031002020B847AC42F7D1B24643464E46B1
:1034E0000A93741CC5E6274B20780993002399465C
:1034F000002800D0AFE6002433E70A9B1A0008CA70
:103500009046002B00D1A7E0212008430EA98C464D
:103510001F2262440F27AC46814615000C9C02E036
:10352000202C0CD013003800184001003731092836
:1035300000D80739013429551A090F2BF0D86546F0
:1035400048460C9494E00A9B1A0008CA12920B9AFF
:10355000002A7BD102241A786442002A1DD001344B
:1035600018199C461C00030010E0C04625320010CC
:103570004C1D0020E4790010747A0010287A0010A5
:1035800041900000652700109C4203D06078013410
:103590000028F9D16346E01A0C908020C0008446D0
:1035A000084080466046014204D00B980C9C84423F
:1035B00000D90C900220844608400A9060460842D8
:1035C00000D189E1101E00D170E14246002A00D1ED
:1035D0001BE10B9A5B1B9046A84444462A00B84660
:1035E00099465746B246099E09E05B463900551C8C
:1035F000B0474B46585D002800D12CE12A00944288
:10360000F3D156462500BA4647460A9B002B00D008
:103610004CE1129B741C0A932BE6002293009B182A
:103620005B0001341A182078303A0300303B092B34
:10363000F4D926000B9242E60A9B023604CBD04313
:10364000C01702400B9230780A9338E61A78002AA5
:10365000A3D00B98441E82E71023080080279843CC
:10366000113318430B00FF003B40394200D14DE7B6
:10367000082305930B9B2A00049310230393002334
:1036800002930C9B0690019316AB009351465B4648
:103690000998FFF7B1F843460500741C0A93E8E562
:1036A000622800D1A6E1582800D1B1E180230A00A8
:1036B000DB001A409046194200D189E11123994359
:1036C0008C46802362469B001A40100062461A42D4
:1036D00000D023E1802364465B001C401A4200D0E6
:1036E00032E263465B0600D56BE163460A991B062E
:1036F00000D4DBE208C91BB2DA179818504080B238
:103700000A91DA0F0C92002B00D118E280460EAA23
:1037100091461F234B441395E14645461297B04608
:103720001E0001E0202C0FD028000A2100F096FB9B
:10373000013437193031397028000A2100F08EFB2E
:103740002F000500092FEDD84646CC46129F139D49
:10375000634606930B9B059704930A2303930C9BE4
:10376000029316AB2A000194009351465B460998D8
:10377000FFF742F8741C05007BE5202319436CE633
:1037800080231B01194338E6782800D07CE1802390
:103790000A00DB001A409146194200D1A5E20D2330
:1037A0009943080003330C93802302009B001A40C6
:1037B0009046184200D078E1802304005B001C4052
:1037C000184200D007E2430600D453E2FF210A9BCF
:1037D00004CB0A4090460A934346002B00D026E1D2
:1037E000103398434B46002B00D120E100240B9B63
:1037F000069004930C9B059703930023B0E7802366
:103800001B01194320231943F7E55B1B99460C9BC9
:10381000099C98465B46B3465646BA461F002A00A6
:103820003B003100A0474B460135585D0028F6D1DA
:1038300043460C933B005746B2465E469B46E4E641
:10384000C023B078194302365AE5C0239B00B078F4
:103850001943023654E55646BA464746D5E6012F87
:1038600000D832E26B1E9846B8442C00A946454663
:10387000B8465746B246099E22005B4601343900DD
:103880002020B047AC42F7D10A9B564601CBBA463E
:103890004746984622005B46099C5146C0B2A04765
:1038A0004D464346ED190A93741CE2E40C9BA8466E
:1038B0009F4200D8ADE64446B04656467D19099F62
:1038C000ED1A22005B46013431002020B847AC429B
:1038D000F7D1B24646469CE60C98874200D8F0E104
:1038E000424698467919B9465746B246099E0C1A7F
:1038F0000C922A005B46013539002020B047A542D2
:10390000F7D15646BA464F4643460C9A90467A1C23
:103910000C921A78101E00D057E67AE6082207218A
:1039200091460A9B07338B4399444A460ACB0C00C5
:103930000A921C43DA0F002C4ED0D81704001090C6
:103940004C4011900E94109811990C005C400F940B
:103950000E9B0F9C1B1A8C410E930F940EA9884648
:103960001F23002443441297B046270013951E00DE
:103970000E9C0F9DE1460C9201E0202F10D02000FC
:1039800029000A22002300F0A7FA013730322B0069
:10399000F2550D0022000400002BEED1092AECD8CC
:1039A0004646CC460E940F950C9A3C00139D129FF0
:1039B000634606930B9B059704930A230292039395
:1039C000CFE6FF230A9904C9134018000A9198E62C
:1039D000102399438C4674E643460024002BE7D11C
:1039E000002300240E930F94B8E743464D460A93F4
:1039F000741C3EE480230A00DB001A409146194201
:103A000000D140E10D2399430B3B08000C93CBE61A
:103A100080230A00DB001A409146194200D162E17E
:103A20000D2320209943033308430C93BCE6612304
:103A3000810600D541230EA91F228C46DBB26244C9
:103A40000A3B13971495814645460C9FB046129346
:103A5000160008E03033DBB201343355BD420ED3DB
:103A6000202C0CD005003900280000F0F7F9CBB26B
:103A70000929EFD9129A94466344DBB2ECE7464633
:103A80004846139F149DB2E66F2800D03CE10C23FA
:103A90000800984380230A00DB001A40914619422F
:103AA00000D02AE108230C937EE60A99FA3BFF3BFB
:103AB0000731994301339C468C4463464A680A9314
:103AC0000B6890469C461343191E06D14B46103195
:103AD00000248843002B00D089E66121830600D5AD
:103AE00041210EAA91461F234B449946C9B20C9B13
:103AF0000A3913971495159645464E460024674695
:103B00009846814612910CE03032D2B20023013443
:103B10003255AB4200D1BCE0202C00D1BCE0070004
:103B20000D00424600233800290000F0D5F9D2B23A
:103B3000092AE9D9129B9C466244D2B2E6E7434681
:103B4000002B00D004E6E2E50A9C08CCDA0F1392C1
:103B5000002B00D1A5E0D9175B184B4098460EAA60
:103B600091461F234B440C95A14645461296E046CC
:103B700006001C000A9701E0202E0FD028000A2121
:103B800000F06CF90136A7193031397028000A218C
:103B900000F064F92F000500092FEDD8C4464C460B
:103BA00030000A9F0C9D129E634606930B9B2A00D1
:103BB00004930A230393139B0190029316AB009383
:103BC00051465B4609980597FEF716FE0A940500D4
:103BD000741CFFF74EFB0A9B10CB1493002C04D1EE
:103BE000102398434B46002B2CD16123810600D52E
:103BF00041230EA91F228C46DBB262440A3B129776
:103C00001395814645460C9FB0460A93160008E07E
:103C10003033DBB201357355BC420ED3202D0CD0AE
:103C200004003900200000F019F9CBB20929EFD9BE
:103C30000A9A94466344DBB2ECE748464646129F34
:103C4000A846139D0B9B2A0004930C9B069003939C
:103C5000002302934346019316AB009351465B4603
:103C600009980597FEF7C8FD149B05000A93741C7C
:103C7000FFF7FFFA03061FD50A9B02CB09040A0CC3
:103C800090460A93A8E50C2399430A3B08000C933D
:103C90008AE5B84500D83FE74846139F149D159E16
:103CA000A5E54346002B00D07EE758E708C9DA17A0
:103CB000981850400A9124E50A9B04CB90460A9339
:103CC0008AE5010001310C9124E60A9F6C1C01CFAA
:103CD0002A005B46099D5146C0B2A84725000A97B5
:103CE000741CFFF7C6FA202319430C2399430023C1
:103CF0009946103308000C9356E508238C460C9324
:103D00000D23604698434FE510230A009A439446DA
:103D1000692808D180230A00DB001A409046194226
:103D200000D1CEE4CAE41C230800984380230A0093
:103D3000DB001A409146194202D10A230C9333E565
:103D40000A230C93DCE7C04600B585B0039101213E
:103D500002900093034813004A4202A9FFF762FA57
:103D600005B000BDFD29001010B5094A0300146814
:103D700084B0002C08D0012200910648524203A9C9
:103D8000A047012004B010BD01F080F80020F9E741
:103D90004C1D0020ED29001001480421014B18475B
:103DA000900F0020C93D0010142310B501001888A1
:103DB00004331B88984710BD162310B501001888DE
:103DC00002331B88984710BDF8B54746CE4680B5EC
:103DD0000F1E19D014239946043304000025012630
:103DE00098464B461888434621681B88984701C46B
:103DF000431E9841013540420640AF42F1D13000A8
:103E0000C0BCB946B046F8BD0126F8E7124A936F28
:103E10009B0815D29066D166002905D0FFE7FFE721
:103E2000FFE7516F106F704704B580210906C21774
:103E30005140002800D0C84303F036FD002104BDE6
:103E4000F0B5146E556E576F166FFFF7E3FF1466EB
:103E5000556657671667F0BD000000D0114A936F92
:103E60009B0813D210665166002905D0FFE7FFE7D3
:103E7000FFE7516F106F704704B5002801D0002094
:103E8000C04303F011FD002104BDC046F0B5146E1F
:103E9000556E576F166FFFF7E5FF14665566576747
:103EA0001667F0BD000000D094464A4A926F92080F
:103EB000624601D228E0C046F0B5464E346E756EBB
:103EC000776F366F00F020F89446424A14665566C4
:103ED000576716676246F0BD94463E4A926F920855
:103EE000624601D254E0C046F0B53A4E346E756E6B
:103EF000776F366F00F04CF89446364A1466556674
:103F0000576716676246F0BD002B24DB11D00029ED
:103F10003EDA00B5C943404200D1013100F038F823
:103F2000C943404200D10131DB43524200D1013349
:103F300000BD002AEBD1002801D1002905D00020C6
:103F4000C90FC90701D1C043410800B503F094FC73
:103F50000022002300BD00B500290ADBDB435242EA
:103F600000D1013300F014F8C943404200D10131BF
:103F700000BDC943404200D10131DB43524200D170
:103F8000013300F005F8DB43524200D1013300BD9C
:103F9000002923D1002B18D1002A0CD0BC460D4F8C
:103FA00038667A6600210023FFE7FFE7FFE77A6FB4
:103FB000386F67467047002801D00748010000B5F8
:103FC00003F05AFC0022002300BD02000B00002079
:103FD00000217047000000D0FFFFFFFF002B00D042
:103FE000BFE0130C28D1002AE7D080B4114F396606
:103FF0007A66FFE7FFE730B4040C7B6F396F1B0470
:1040000023433B667A66FFE7FFE7FFE7C04684B2DB
:104010007B6F3D6F1B0423433B667A66FFE7FFE738
:10402000C04600232C042D0C7A6F386F00196941AB
:10403000B0BC7047000000D0F0B594460025140EC7
:1040400001D112020835140F01D112010435940F69
:1040500001D192000235D40F01D152000135D40BA9
:104060000134254F7C66254C3C660E0C93B2FFE76D
:10407000FFE7FFE73C6F6643360C7703BE467343AA
:10408000DF0B5B04C01AB941130C7343DB18C91A68
:10409000CE086643360CB64493B273431F0F1B0120
:1040A000C01AB941130C73431F0B1B05C01AB94149
:1040B000860D8F023E436643360C092D24DB520ADF
:1040C0007243801A7703460A6643360C16235B1B3D
:1040D000DE40DF40BF1964466643821B70460435EC
:1040E00006330100D940A840C01900D30131A242D3
:1040F00006D20023F0BD0000000000D0FFFFFFFF4C
:10410000121B0130F3D3F1E709277F1BFE40644601
:10411000A2B27243801A00D20139220C7243130CEE
:104120001204821A99410B007046043513370100BE
:10413000F940A840801900D30131002B02D1A242DE
:104140000AD2F0BD013000D30131121BFAD2013B7B
:10415000F8D1A24200D2F0BD013000D30131121BD0
:10416000F7E7F0B51C0C00D080E00CB400251C0A69
:1041700004D11B02160E3343120208351C0B04D166
:104180001B01160F3343120104359C0B04D19B0015
:10419000960F334392000235DC0B02D192185B413B
:1041A00001351C00971864410134464F7C66464C2B
:1041B0003C660E0CFFE7FFE7FFE7C0463C6F664337
:1041C000360C7703BE4697B27743C01B00D2013945
:1041D000C01B00D201399FB27743C91BC91B170C02
:1041E00077437E04FF0B801BB941CE086643360C33
:1041F0000C2D33DBB644120B1F053A431B0B97B251
:104200007743C01B00D201399FB27743C91B170CFB
:1042100077433E043F0C801BB941860D8F023E431D
:10422000664329277F1BFE400C3D7746AF40BF19F0
:1042300030BCA2B2ABB272437343801A9941220CD4
:104240007243130C1204801A994102000B000137CB
:10425000001BA941F9D2781E0021F0BD0C277F1B5D
:10426000FE4077467F0BAF40FF19E0E700245D1C5E
:1042700007D0144F7D663966FFE7FFE7FFE7FFE7EA
:104280003C6F95B29EB265436643401BB141150C2D
:104290001E0C6543664336042F0C3E432D04401B21
:1042A000B141994204D202000B0020000021F0BD70
:1042B00001D19042F7D3801A994101349942F2D347
:1042C000F6E70000000000D0FFFFFFFF484041403C
:1042D000484018B41B4B5B68FC46019308BD04DFE3
:1042E0007745001018B4174B1B68FC46019308BDB6
:1042F00000DF814500109446134A926F920809D25C
:10430000624618B40F4BDB68FC46019308BD0CDF16
:10431000394800100C4AF0B5146E556E576F166F81
:104320006246FFF7EEFF084A146655665767166740
:10433000F0BD18B4034B9B68FC46019308BD08DF31
:10434000DD46001058110020000000D0FFB550409D
:104350004240504059404B40594000E0FFB5154F96
:104360004C00640D03D0BC4204D10C0314D80020CF
:10437000090D09055C00640D03D0BC4204D11C0387
:104380000AD800221B0D1B0501264B4009D44B40C7
:1043900003D58B4200D18242FFBD9942FCD19042AD
:1043A000FFBD0B43DB1803431343F5D0C943491842
:1043B000FFBD0000FF07000000B5FFF7CFFF804101
:1043C00000BDC04600B5FFF7C1FF01D9002000BD08
:1043D000012000BD00B5FFF7B9FF804100BD0120FD
:1043E00040054A00121804D85A00121801D80020BB
:1043F000704701207047002070470000002100280E
:1044000005D17047C1174840401AFAD0C90713B503
:10441000064B1B6898470CBC441CA2401005120BAD
:104420000349091B09051943114310BD981D0020BC
:104430001F04000010B54C00620D8023D218DB0071
:10444000D21A5B057E2A10DD9E3A13DACC170903D7
:10445000490819435242D140640001341532202AE0
:1044600005DAD0400843604310BD002010BD084667
:10447000604310BDC80FC018013810BD18B4044BFC
:104480005B6AFC46019308BD24DFE9490010000087
:104490005811002018B4044BDB6FFC46019308BD93
:1044A0007CDF694A0010000058110020132370B50A
:1044B0001D78012D15D010DD1D48FFF77DFC1D4C2A
:1044C00001008022200000F0FFFB022D2DD01A48B1
:1044D000FFF76AFC194B186070BD194B154CA364AB
:1044E000F5E7174B134C23606360A360E36023611F
:1044F0006361A361E36123626362A362E362236396
:104500006363A363E36323646364A364E364236575
:104510006365A365E36523666366A366E366236755
:104520006367A367E367A364D1E7054BA364CEE7A2
:1045300053440000581100204C330000981D002007
:104540004545001007B5604601880A0A0230DF2A97
:10455000FAD1C9B2820804D302884088000410430B
:1045600000E00068014A5050039007BD5811002038
:104570000FB403BC0CBCF0B50124E407634000E0B9
:10458000F0B50C0DCF0F661E3605891B640503D3ED
:10459000C943404200D30131640D03D0661CF60AC2
:1045A00007D0E41B00207F00791C89078912803C1A
:1045B00024031D0DDF0F6E1E36059B1B6D0503D3F7
:1045C000DB43524200D301336D0D03D06E1CF60A5B
:1045D00007D0ED1B00227F007B1C9B079B12803DB8
:1045E0002D032F1B661B58D4A446202E46DA2037F5
:1045F0001400BC401D00BD40F24033412A438018E6
:104600005941CB0F05D0C943C043002264425041F9
:10461000514162464D0D28D10D0D07D100281FD004
:10462000241940414941013A0D0DF9D0640006D3E7
:10463000013000D30131002C01D140084000013A83
:104640000BD4941CE40A04D112051144DB0719446D
:10465000F0BDD907204B194300E0D9070020F0BD79
:104660000029DDD1002CDBD1F0BD0132C6074008A6
:10467000CD0728434908002EE1D0D9E73C2E29DA9E
:10468000203E40371400BC4000D00124F2401443C7
:104690001A00BB401C43D317ACE7AC46202F08DA06
:1046A00020360400B4400D00B540F840394128439D
:1046B000A5E73C2F0CDA203F40360400B44000D080
:1046C0000124F84004430800B1400C43C117EAE755
:1046D00010001900002494E70000F07FF0B50C0DE5
:1046E000661E3605891BE60A6405640D02D0651C4A
:1046F000ED0A04D0002001210905803C2403A446D2
:104700001C0D671E3F05DB1BE70A6405640D02D024
:10471000651CED0A04D0002201231B05803C240304
:104720007740644497B484B296B27443070C7E43D6
:10473000150C6F4380B26843361802D30120000481
:104740003F183004350C00197D41844688B29AB276
:1047500050430C0C62431F0C7C438EB27E43921973
:1047600002D301263604A4191604170C3618674123
:1047700001BC81B29AB25143040C62431B0C5C43EE
:1047800080B25843121802D30120000424181004E8
:10479000130C401863412D185E410020474106BCB0
:1047A00088B293B258430C0C6343120C544389B241
:1047B00051435B1802D301210904641819041A0C2F
:1047C000091862416D1856410020474118BCF90292
:1047D000720D1143F0026A0D1043ED020A0D03D170
:1047E0006D1940414941013B124E9B1B7600B3427B
:1047F0000ED26D0007D30130002671416646354365
:1048000001D1400840001B05C918E4072144F0BD50
:104810000BDA013306D1013004D101314F0D01D043
:104820004908F2E7E1070020F0BD0136310500201C
:10483000EBE70000FF030000F0B51C0D671E3F050D
:10484000DB1BE70A6405640D02D0661CF60A04D07F
:10485000002201231B05803C2403D0252D060026C1
:10486000F6432E661E096E66CE0FF619B446490051
:104870004F0D02D07E1CF60A03D000200021403FDD
:104880003F033E1BB600B444013F7F05C91B4908E6
:104890002E6F013676089C02950D25437543ED1366
:1048A0007543AD1301356D10F603761B0CB4CC02C5
:1048B000450D2C43A2B2B3B25A43270C7B43350CAF
:1048C0006F43A4B26C431B1902D3012424043F1983
:1048D0001C041D0CA4187D4124196D41009A91B24D
:1048E000ACB26143170C7C432B0C5F4392B25A432A
:1048F000A41802D301221204BF182204230C521858
:104900007B41019C6C431B19520ED9010A4344019F
:10491000A01A81B2B2B2514303145A43360C734306
:1049200087B27743D617D21900277E4136049B19E8
:104930001704160C7F185E417316ED18F30100265C
:1049400080337541A90F06D16400690AE8055B0A46
:10495000184309D22FE00422944480337541A90AF8
:10496000A8059B0A184326D3404149412404009AD4
:10497000019B0D005543641B4343E41A95B286B274
:104980007543170C7E43030C5F4392B25A43B6182B
:1049900002D301221204BF183204330C52197B4196
:1049A00052429C41002C02D4002201305141400867
:1049B000CA071043490802B06246D7079210084B55
:1049C000D218084B9A4203D212058918C919F0BDB2
:1049D0000020002A01DC3900F0BD01331905F5E79C
:1049E000FD030000FE070000002200B5203200F0A9
:1049F00004F8080000BD000000220B150AD410B511
:104A0000944600F05FF81414013400DA0021CB174B
:104A1000144C20470020002170476244343A0CD4E3
:104A20000C2A07DA04009140904052422032D440D0
:104A3000214310BDD843D94310BD203207D40C46C2
:104A40009440524220321141D040204310BD080012
:104A5000C917203203D452422032104110BD180031
:104A6000190010BD1B4A00104A00520D144BD21AF7
:104A700013DDFF2A1EDAD205CB0FDB071A43C30072
:104A8000400F0903490A084310435B0001D301D0DA
:104A9000013070474308FBD2704702D0C80FC007EF
:104AA00070470A0312130132F8D1420F072AF5D1D9
:104AB000012200E0FF22C80F00028018C0057047E5
:104AC000800300000A0DCC0F531E1B05C91A5205A6
:104AD00003D3C943404200D30131520D03D0531CCC
:104AE000DB0A07D0121B00206400611C89078912B1
:104AF000803A1203014BD21A70470000FF030000F6
:104B000051434343C9188C46110C83B24B4310B434
:104B1000040C614392B280B2504362431C041B0CEC
:104B2000001910BC59411304120CC01851416144C2
:104B3000704700004840414048400E4B5B681847B2
:104B40000C4B1B6818470C4A936F9B0802D2094B09
:104B5000DB681847F0B5146E556E576F166FFFF788
:104B6000F6FF054A1466556657671667F0BD014B98
:104B70009B68184758120020000000D0491A0028EE
:104B800008D1084670470000C10FC90700D5404250
:104B9000002817D0F44603B40B4B1B68984706BC9B
:104BA00081409E384042803107D20B0607D0490031
:104BB000490AC0051043084360470130F8E7490A35
:104BC0008902F5E770470000981D0020014B5B6AE1
:104BD0001847000058120020034BDB6FFC461847B3
:104BE0007CDF7D4C0010000058120020132310B50C
:104BF00012481C78FFF7E0F80100012C0AD003DD11
:104C000080220F4800F060F80E48FFF7CDF80E4BF9
:104C1000186010BD0A4C5422200000F055F80B4BD0
:104C20006365A365E36523666366A366E36623673E
:104C30006367A367E3672362E361E5E75346000028
:104C4000581200204C330000981D0020514C0010D9
:104C500007B5604601880A0A0230DF2AFAD1C9B2D4
:104C6000820804D3028840880004104300E00068F2
:104C7000014A5050039007BD58120020C30FDB07B4
:104C800041000A0E07D0FF2A08D00909054A8918F1
:104C90001943400770471900002070470249C9189E
:104CA000FAE70000000000380000F07F014804210E
:104CB000014B1847A00F0020C93D0010014B1B6895
:104CC00018470000A00F0020014B5B681847000048
:104CD000A00F0020F0B546464F46D646C0B5437DEE
:104CE00080460E001700002B4BD0002A32DD274BE8
:104CF00001259A464B1E00240020994607E0335DAB
:104D00000A2B2CD02B0001340135BB4213DA002CC6
:104D1000F5D133780A2BF5D143461B7D002BF1D119
:104D20004346504602211B68984728002B00013457
:104D30000135BB42EBDB874204DD4346391A1B6871
:104D400030189847F619013E33780D3B5A425341CB
:104D500042461375E0BCBA46B146A846F0BD4B4684
:104D60001B5D0D2BCED0A042DADA4346211A1B6818
:104D7000301898474346504602211B689847280040
:104D8000D4E70368110030009847E3E7387C00104F
:104D9000F0B5C6460B6806000C0000B5802B06D0A7
:104DA0005A1C2260E418267180BCB846F0BD0F4B37
:104DB0001D68002D16D00B1D98460D4F02E02D6981
:104DC000002D0FD02B68002BF9D03B68002B01D0B1
:104DD000AB42F4D1280041462268FFF77BFF2D69E2
:104DE000002DEFD101220023DBE7C046401900204F
:104DF00048190020F0B5CE46474680B583B06B46D3
:104E00000600DD1D2870FCF7BDFE00231A4A1218AB
:104E10004B41802109068B4202D30122174B52429B
:104E200017490800884602F067FD164B81461C684A
:104E3000002C14D0144F02E02469002C0FD02368FA
:104E4000002BF9D03B68002B01D0A342F4D1200005
:104E500001222900FFF73EFF2469002CEFD14B46C9
:104E6000002B05D1300003B0C0BCB946B046F0BD40
:104E7000404602F0F9FCF5E740420F00FFFFFF7FDC
:104E8000081000204019002048190020F0B5DE4627
:104E900057464E464546E0B585B0070002F0A4FCF3
:104EA0000600FCF76FFE00232B4A12184B418021AD
:104EB00009068B4202D30122284B5242284908009E
:104EC0008B4602F019FD274B01901C689A46002C76
:104ED0003BD0254B984602ABDD1D0A23994602E0E4
:104EE0002469002C17D02368002BF9D043461B6897
:104EF000002B01D0A342F3D1200032003900FFF78C
:104F0000E9FE4B462000012229002B70FFF7E2FE4C
:104F10002469002CE7D1019B002B18D153461C6853
:104F2000002C06D06368002B0BD098472469002C16
:104F3000F8D1300005B0F0BCBB46B246A946A04649
:104F4000F0BD2469002CEDD1F3E70028F1D05846DC
:104F500002F08AFCE2E7C04640420F00FFFFFF7FFD
:104F60000810002040190020481900200A4A136840
:104F7000002B05D10CE01A001B691032002B07D062
:104F80009842F8D1002902D103691360016170478A
:104F90000029FCD01060FAE740190020F0B5CE4699
:104FA000474680B5A3B004000D00FCF7EBFD0023DD
:104FB000294A12184B41802109068B4202D3012253
:104FC000264B5242264F380002F096FC0023060082
:104FD000019322002B00234801A9FEF7B5FE019B97
:104FE0008046002B14D1204B1C68002C06D063682F
:104FF000002B0BD098472469002CF8D1002E25D126
:10500000404623B0C0BCB946B046F0BD2469ECE7C9
:10501000154B1D689946002D1CD0144C02E02D69DB
:10502000002D0FD02B68002BF9D02368002B01D066
:10503000AB42F4D12800019A02A9FFF74BFE2D697B
:10504000002DEFD14B4601951C68CEE7380002F0E9
:105050000BFCD5E70195D1E740420F00FFFFFF7F32
:1050600008100020914D0010401900204819002020
:105070000FB400B583B004A901C90191FFF78EFFF9
:1050800003B008BC04B0184710B500F0D9F910BD42
:105090007047C0460022014B1A707047DE1D002089
:1050A0004B790020FF2B0BD18B79002B08D1CB79CA
:1050B000012B05D1082A03D9024B8A7809301A70CE
:1050C0007047C046DE1D00200120704770B50129E1
:1050D00001D0012070BD13495379107909781B0262
:1050E000034300209942F5D15378012B08D0022BBD
:1050F000F0D1002064220021FDF736FA0120E9E713
:105100009478D278050012021443D20502D5620ABF
:1051100093401D000448FEF747FE7F210300214015
:1051200028009847DE1D002055420000012303702F
:10513000004870473C7C00104B780A781B021343F0
:105140008A7810B512041A43CB781B0613439622B3
:10515000D200934200D010BD0348FEF725FE002187
:10516000030008009847C04655420000024B1860F3
:10517000024B19607047C046B4180020B8180020D0
:1051800010B5024B1878FBF715FE10BDDF1D00208F
:10519000114B70B51A68002A1AD0EFF3108172B65D
:1051A00010680028FCD0BFF35F8F00200B4A5960C5
:1051B00010701B68BFF35F8F186081F310880024A4
:1051C0000025074B1878FBF7F5FD2900200070BD7E
:1051D000FA240025A400F4E7701D0020E01D002043
:1051E000DF1D002070B5040000200E0001F014FB4C
:1051F000002836D0002001F027FB002831D0FCF732
:10520000C1FC0023184A12184B41802109068B4229
:1052100016D2164D280002F06FFB002821D0002086
:1052200001F0FAFA00280FD101200021404200F0DD
:10523000C3FC03246442280002F016FB200070BD6A
:1052400001220B4B5242E4E7002001F0FDFA002856
:10525000EAD021003200002001F002FB041EEAD156
:10526000E7E703246442E9E740420F00A41D002061
:10527000FFFFFF7FF8B5DE46574680B505000C00FE
:10528000FCF780FC0023374A12184B4180210906A5
:105290008B4202D30122344B5242344908008A46E1
:1052A00002F02AFB002803D1C0BCBB46B246F8BDC1
:1052B000002001F0B1FA00284AD00026002C43DD7E
:1052C0002B4B9B4614E0A919002001F03DFB070081
:1052D00001200021404200F06FFC002001F0F8FAAC
:1052E000FCF750FC224BF61918605960B4422BDDD4
:1052F000002001F043FBA71B0200B84200DD3A008A
:10530000002AE0D101200021404200F055FC00209D
:1053100001F0DEFA002001F07FFA002814D000200E
:1053200001F02CFB0028E1D1FCF72CFC5B460F00C0
:105330001A685B68002184460E4812184B419F4250
:1053400002D8D3D19445D1D9504602F08DFAABE7BB
:1053500000200021064B18605960504602F084FA84
:10536000A2E7C04640420F00FFFFFF7FA41D0020C0
:105370005011002020A1070010B5244C84B000215A
:10538000200002F099FA00281CD1214B1A68002A4B
:1053900016D0EFF3108172B610680028FCD0BFF36E
:1053A0005F8F01241B48596002781B68D2B20470D9
:1053B000BFF35F8F0020186081F31088002A0AD0A5
:1053C00004B010BD01200021404200F0F5FB200098
:1053D00002F04AFAF4E7FCF79DF90400FCF7D2FB6F
:1053E000FA220023920012184B41802109068B42B9
:1053F00002D30122084B5242012102910021019166
:10540000064920000091FCF789F9D9E7A41D002086
:10541000701D0020E01D0020FFFFFF7F9151001054
:10542000054B10B51868002804D0044B00221968F9
:1054300001F062F810BDC046B4180020B818002072
:10544000D02310B51B0684B01C68FCF763F9FCF789
:105450005FFAA04202D0002004B010BD274B1B7899
:1054600001F06EFC2648FBF75BFF0120FBF73AFFDB
:10547000FF23244C244920701840FBF7C1FC2078FE
:105480000121FBF779FC0520FBF79CFC002827D1C4
:10549000FCF740F90400FCF775FBFA2200239200A8
:1054A00012184B41802109068B4202D30122174B6F
:1054B00052420121029100210191154920000091E1
:1054C000FCF72CF90822040000211248FFF7F6FB34
:1054D000002CC0DB10480121FFF748FD0120BBE78D
:1054E00000220E490520FBF7B5FCFBF727FC094B12
:1054F00001001800FBF73EFFECE7C046487E0010B5
:10550000A41D0020DF1D002079530010FFFFFF7F46
:1055100091510010701D0020B00F0020815100102B
:10552000004870470C7D001000487047B87C0010A0
:1055300010B5040017480378002B20D0002C06D1AA
:10554000154B16484380063BFF3B038010BD052CDE
:1055500019D8134BA400E0581249002304E001338A
:105560000A800231132B10D0C25C002AF7D1C0226E
:105570000133DBB25B00920008481343E5E71121D9
:1055800000F01AF8DAE70020E0E7CA2303489B009E
:10559000DBE7C046C01D00200904000018190020E8
:1055A000A07C00101A19002010B5024800F0D8F8AD
:1055B00010BDC046901D002030B54B1E012900D102
:1055C000A7E0664A11780D112C0030349F2900D9CC
:1055D000A2E00470012B00D1BEE00F21147821401D
:1055E0000C003034092900D998E04470022B00D116
:1055F000B2E054782511290030319F2C00D990E079
:105600008170032B00D1A7E00F2121400C00303422
:10561000092900D987E0C470042B00D19CE094785C
:105620002511290030319F2C00D97FE00171052B15
:1056300000D191E00F2121400C003034092900D91C
:1056400076E04471062B00D186E0D478251129003C
:1056500030319F2C00D96EE08171072B00D17BE0A7
:105660000F2121400C003034092966D8C471082B61
:1056700000D171E014792511290030319F2C5FD8B9
:105680000172092B68D00F2121400C003034092908
:1056900058D844720A2B5FD0547925112900303133
:1056A0009F2C52D881720B2B56D00F2121400C0019
:1056B000303409294BD8C4720C2B4DD09479251164
:1056C000290030319F2C00D9073101730D2B43D0B5
:1056D0000F2121400C003034092901D937310C0049
:1056E00044730E2B38D0D1790C11220030329F290F
:1056F00000D9073282730F2B2ED00F220A401100DF
:105700003731092A01D830321100C173102B23D050
:1057100010300023037030BD07345AE737310C00D6
:1057200063E707316CE737310C0074E707317DE739
:1057300037310C0085E707318EE737310C0095E7EC
:1057400007319DE737310C00A3E70731AAE737316E
:105750000C00C4720C2BB1D1C018DAE7901D0020E8
:1057600030B5002589B004000922002101A8009568
:10577000FFF7A4FA0922002105A80495FFF79EFA75
:105780004B236A466846137004A90D2202F05CF8A8
:105790001521082220006944FFF796FA09B030BDB0
:1057A00010B501210520FBF7E7FA10BD10B5002266
:1057B0000021024800F05AF910BDC0466C190020C3
:1057C0008022024B5202DA647047C046002011501A
:1057D000F0B5C64600B5060000F022F90C231B4DBB
:1057E000FF22AB6705201A49FBF734FB402398469C
:1057F000184C402200212000FFF760FA43460127A1
:10580000238321210023144A6770A260136063542C
:105810005F31618441462187053963540F4A10493D
:105820006360E260A1620B606362E26202F02CF8E6
:1058300080239B052F64EB6490230A4A3000EA50D2
:10584000FFF7BEFF80BCB846F0BDC0460000115057
:105850009D0400204C1900208400105000011050BD
:105860008000105010D001000B785B0602D14B78FD
:10587000052B00D070478A78014B1A60FAE7C046C2
:1058800000001150F0B5C64600B5CC7888780A798A
:105890004B797F21A40701401B02C50913434F0028
:1058A000A20F1400324E7A195201B21890700120E2
:1058B0006840507000205B055B0DD0701383D47678
:1058C0008046CA00012D33D02A48844688016244AC
:1058D0008446B4446046826040461060002933D05C
:1058E000254AC90090466246414451603F223F33F9
:1058F0009343022C00D15B0020487A1901685201C1
:10590000B218D1601E4ACB18036051405A40802320
:1059100088465B019A4228D84346A4061C4380234C
:105920007F197F01F61972681B062343136011E08B
:1059300014488446880162448446B44460468262C6
:1059400040461060002909D100236D0175196B6074
:105950000D4BEB60012080BCB846F0BD084AC90081
:105960009046624641445162C0E7FCF7F5FED3E73A
:105970004C1900208400105004001050541D0020C9
:1059800000001050800010500001105010B501F0C0
:105990007BFF10BD10B57F200C0020404000E409C3
:1059A000110000191A00034B4001C01800F05EF806
:1059B000012010BD4C1900207F23180010B50840AD
:1059C0000B420BD0C90980224000074B4018400110
:1059D0000021C018120101F0A7FF10BD0223034AE5
:1059E000C9095B1A9366EEE74C190020002011509C
:1059F0007F22130010B50B400A4200D110BDC90927
:105A00005B005B1804485B01C018002300220349B7
:105A1000C37001F089FFF1E74C190020FFF7FFFF89
:105A200080220D4B520410B51A600C4B0C491A60C1
:105A300010008B689843FBD10A4C9C220021200067
:105A4000FFF73CF98022002152010748FFF736F9A1
:105A50000923636710BDC04600E0004000F000402D
:105A600000C000400000115000001050002310B58D
:105A7000C3820133828283760161040001F00CFF4E
:105A8000002804D080219023074A8902D1502000A9
:105A900001F042FF002802D00123237710BD20002F
:105AA00001F032FFFAE7C04600201150024B58784F
:105AB000431E9841C0B2704780160020024B1878F0
:105AC0004007C00F7047C04680160020034B18786F
:105AD000FF38431E9841C0B27047C046EC0F00200B
